:020000041FFFDC
:10800000008000201183FF1F3D83FF1F3D83FF1F62
:108010003D83FF1F3D83FF1F3D83FF1F00000000C6
:108020000000000000000000000000009583FF1F1A
:108030003D83FF1F000000004184FF1F9984FF1F44
:108040003D83FF1F3D83FF1F3D83FF1F3D83FF1FB8
:108050003D83FF1F3D83FF1F3D83FF1F3D83FF1FA8
:108060003D83FF1F3D83FF1F3D83FF1F3D83FF1F98
:108070003D83FF1F3D83FF1F3D83FF1F3D83FF1F88
:108080003D83FF1F3D83FF1F3D83FF1F3D83FF1F78
:108090003D83FF1F3D83FF1F3D83FF1F3D83FF1F68
:1080A0003D83FF1F3D83FF1F3D83FF1F3D83FF1F58
:1080B0003D83FF1F3D83FF1F3D83FF1F3D83FF1F48
:1080C0003D83FF1F3D83FF1F3D83FF1F3D83FF1F38
:1080D0003D83FF1F3D83FF1F3D83FF1F3D83FF1F28
:1080E0003D83FF1F3D83FF1F3D83FF1F3D83FF1F18
:1080F0003D83FF1F3D83FF1F3D83FF1F3D83FF1F08
:108100003D83FF1F3D83FF1F3D83FF1F3D83FF1FF7
:108110003D83FF1F3D83FF1F3D83FF1F3D83FF1FE7
:108120003D83FF1F3D83FF1F3D83FF1F3D83FF1FD7
:108130003D83FF1F3D83FF1F3D83FF1F3D83FF1FC7
:108140003D83FF1F3D83FF1F3D83FF1F3D83FF1FB7
:108150003D83FF1F3D83FF1F3D83FF1F3D83FF1FA7
:108160003D83FF1F3D83FF1F3D83FF1F3D83FF1F97
:108170003D83FF1F3D83FF1F3D83FF1F3D83FF1F87
:108180003D83FF1F3D83FF1F3D83FF1F3D83FF1F77
:108190003D83FF1F3D83FF1F3D83FF1F3D83FF1F67
:1081A0003D83FF1F3D83FF1F3D83FF1F3D83FF1F57
:1081B0003D83FF1F3D83FF1F3D83FF1F3D83FF1F47
:1081C0003D83FF1F3D83FF1F3D83FF1F3D83FF1F37
:1081D0003D83FF1F3D83FF1F3D83FF1F3D83FF1F27
:1081E0003D83FF1F3D83FF1F3D83FF1F3D83FF1F17
:1081F0003D83FF1F3D83FF1F3D83FF1F3D83FF1F07
:108200003D83FF1F3D83FF1F3D83FF1F3D83FF1FF6
:108210003D83FF1F3D83FF1F3D83FF1F3D83FF1FE6
:108220003D83FF1F3D83FF1F3D83FF1F3D83FF1FD6
:108230003D83FF1F3D83FF1F3D83FF1F3D83FF1FC6
:1082400010B5054C237833B9044B13B10448AFF390
:1082500000800123237010BD740000200000000086
:10826000C4A8FF1F084B10B51BB108480849AFF35D
:1082700000800848036803B910BD074B002BFBD0F2
:10828000BDE81040184700BF00000000C4A8FF1F51
:10829000780000207000002000000000154B002B2B
:1082A00008BF134B9D46A3F5803A00218B460F462D
:1082B0001348144A121A01F04FFA0F4B002B00D04A
:1082C00098470E4B002B00D0984700200021040057
:1082D0000D000D48002802D00C48AFF3008001F0DB
:1082E00015FA2000290000F0CDF901F0E9F900BFEE
:1082F00000000800008000200000000000000000D6
:1083000074000020B05100200000000000000000B8
:1083100072B601F04FF80649064A074B9A42BEBFB3
:1083200051F8040B42F8040BF8E762B6FFF7B6FF0A
:10833000ECA8FF1F0000002074000020FFF7FEBF24
:1083400005480068006880F3088862B6BFF34F8F65
:10835000BFF36F8F00DF00BF08ED00E0DFF80C0017
:10836000016841F4700101607047000088ED00E091
:108370004FF0807300E90A00054B40F80C3C6FF0A9
:10838000020340F8202C40F8243C4438704700BFDA
:10839000DD83FF1F064B19680868B0E8F04F80F3D3
:1083A0000988BFF36F8F4FF0000080F3118870478A
:1083B0004C510020044B4FF080521A60BFF34F8F96
:1083C000BFF36F8F704700BF04ED00E0EFF3118043
:1083D0004FF0100181F311887047002008B5054B5C
:1083E0001B68013302D0FFF7F1FFFEE7FFF7EEFF56
:1083F000FEE700BF0000002008B5FFF7E7FF044AD2
:10840000136801331360BFF34F8FBFF36F8F08BD45
:108410000000002080F311887047000008B5074B6A
:10842000186810B9FFF7D2FFFEE70138186018B9D5
:10843000BDE80840FFF7EEBF08BD00BF0000002008
:10844000EFF30980BFF36F8F124B1A681EF0100F05
:1084500008BF20ED108A20E9F04F10604DF8043D70
:108460004FF0100080F3118800F010FC4FF0000076
:1084700080F3118808BC19680868B0E8F04F1EF056
:10848000100F08BFB0EC108A80F30988BFF36F8F1C
:10849000704700BF4C51002008B5FFF797FF00F070
:1084A0000DFB18B1044B4FF080521A600020BDE85C
:1084B0000840FFF7AFBF00BF04ED00E0034B044AE4
:1084C0001A60072243F8042C704700BF14E000E054
:1084D0007FA9030007B5214B1A78D2B20192FF227F
:1084E0001A701B781E4ADBB28DF803309DF80330FA
:1084F00003F0100313701B4A072313609DF8031049
:10850000090603F1FF3007D59DF803305B00DBB2AD
:108510008DF803300346F1E71B0203F4E0631360B8
:10852000019B0E4ADBB213700F4B1A6842F47002C3
:108530001A601A6842F070421A60FFF7BFFF0B4BD7
:1085400000221A60FFF70AFF094A136843F040430C
:108550001360FFF7F5FEFFF741FF00BF00E400E006
:10856000900000209400002020ED00E0000000209A
:1085700034EF00E070B5044600F098FA2648016830
:1085800071B9264B264A23F0070313605160254A30
:1085900044F6F87582E8220083E824000123036092
:1085A0002CB1083463071CBF24F007040834621E92
:1085B00044F6F6739A4229D8194A13685968A142B9
:1085C00003D31848834206D120E018680028F8D069
:1085D0001A460346F2E71868156810600A1B102A4D
:1085E00005F108050CD919194A605C604C680C4A01
:1085F00010684668A64201D20246F9E70860116099
:1086000009495B680A68D21A0A6000E0002500F098
:10861000D9FA284670BD00BF98000020AC000020A9
:108620009C000020A45000200400002038B504461F
:10863000B8B1A0F1080500F039FA54F8043C094A31
:1086400011684868984201D20A46F9E744F8081CC4
:108650001560054A11680B441360BDE8384000F00E
:10866000B1BA38BD9C0000200400002008B50448C1
:1086700000F02CFC00F054FCC0B200F043FCF9E721
:10868000F0A5FF1F1FB500F0F5FF012300930023A5
:1086900001930293039304490448822200F014F9E1
:1086A00000F0DAF9FEE700BF02A6FF1F6D86FF1F8C
:1086B000D0F8803023F00103C0F88030012200237D
:1086C000C0F88030C0F884204FF4E062C0F8882001
:1086D0004FF40042C0F88C2040F60102C0F8902010
:1086E0002B22C0F89C206022C0F8A030C0F8B03027
:1086F000C0F8B420C0F8B830D0F8843023F00103BB
:10870000C0F88430D0F88430DB07FBD57047000018
:108710001201F0B513460D4601243BB1B5FBF3F64B
:1087200003FB16561C461D463346F6E7B1FBF4F331
:10873000B2FBF4F2264CA34202D8B2F5803F14D328
:10874000561E4FF6FF77B6FBF7F75E1E0137B6FBF6
:10875000F4F56C1CBC4238BF3C46B3FBF4F3B2FBEF
:10876000F4F273B1002A08BF01224FF6FF755C1EB8
:10877000B4FBF5F4651C013C052C06D8154E345DA0
:1087800004E01ABB0122154613460524D0F8906078
:1087900026F46076C0F89060D0F89060E40104F4AC
:1087A0006074013A92B23443C0F89040C0F8A420FB
:1087B000B3FBF5F2013A92B24FF47A73C0F8A820F5
:1087C0006B43B1FBF3F1C0F8B010F0BD0123CCE76F
:1087D000F9FF060050A7FF1F38B505460C4629B91A
:1087E0001448154A154B312100F04EFFD0F8803067
:1087F00023F00103C0F88030FFF75AFFD5F884203A
:10880000A3681343E26843F480431343226913438C
:1088100062691A43C5F88420D5F8883043F0040310
:10882000C5F88830284694E80600BDE83840FFF7D0
:108830006FBF00BF0DA6FF1F56A7FF1F53A6FF1F48
:108840000B0C89B2C058C84000F00100704700F11D
:10885000080343604FF0FF32C3600361002382606E
:108860000360704700230361704743684B609A6858
:108870008A609A68516099600368086101330360F7
:1088800070474168826803698A60826851605968EC
:10889000814208BF5A6000220261186801381860DE
:1088A0007047FEE7064A13681968064B11B94FF086
:1088B000FF3203E01268D268D26852681A607047CB
:1088C000B0500020080000202DE9F84F0AAE0F46F6
:1088D00015469A4696E8400A804610B9FFF776FD9D
:1088E000FEE7042E02D9FFF771FDFEE74020FFF7F7
:1088F00041FE0446002800F09380BBF1000F03D135
:10890000A800FFF737FE00E05846206318B920465C
:10891000FFF78CFE84E005F18045013D00EB85000A
:108920007B1E20F0070504F13302093713F8011FFD
:1089300002F8011F197809B1BB42F7D10023271DA6
:1089400084F83D303846E662FFF78CFF04F11800EA
:10895000FFF788FFC6F105032461A361646228461E
:1089600041465246FFF704FD2060B9F1000F01D0E7
:10897000C9F80040FFF740FD2B4A2C4D1368DFF883
:10898000CC90013313602B6823BB2C601268012A42
:1089900028D1984609EB080008F11408FFF757FFA3
:1089A000B8F1640FF6D1DFF8A8A0DFF8A880504630
:1089B000FFF74DFF4046FFF74AFF1D48FFF747FF0F
:1089C0001C48FFF744FF1C4BC3F800A01B4BC3F827
:1089D000008007E01A4B1B6823B92B68DB6AB3429F
:1089E00098BF2C60174A136801331360164AE36A74
:1089F000116814208B4200FB0390394688BF136036
:108A0000FFF733FFFFF70AFD0D4B1B682BB12B68F7
:108A1000DB6AB34201D2FFF7CDFC0120BDE8F88F3D
:108A20004FF0FF30BDE8F88F705100204C5100200E
:108A30005051002074510020B05000206851002097
:108A4000B45000206C51002088510020E4500020D8
:108A5000B8500020CC50002030B585B000240094E0
:108A60000194029403940D480D4982222346FFF796
:108A70002BFF012805460AD1FFF7A8FC094B1D6012
:108A8000094B1C6005B0BDE83040FFF723BD10B9AD
:108A9000FFF79CFCFEE705B030BD00BFA388FF1FB9
:108AA00060A7FF1FB450002064510020024A1368E1
:108AB00001331360704700BF48510020364B1B68DC
:108AC0002DE9F047002B3AD1344B1A6801321A6075
:108AD0001F688FB9324B1A68126812B1FFF776FC23
:108AE000FEE7304A19681068186011602E4A136852
:108AF00001331360FFF7D6FE2C4EDFF8C0803368D9
:108B0000DFF8BC909F424FF000040DD3244B1A684D
:108B1000126812B94FF0FF3305E01B68DB68DD68AF
:108B20006B689F4211D23360D9F80030DA6A14239F
:108B3000534358F80330022B28BF012424E01C4A79
:108B400013680133136000241EE005F1040A504647
:108B5000FFF797FEAB6A1BB105F11800FFF791FE16
:108B6000144AEB6A116814208B4200FB03805146C3
:108B700088BF1360FFF779FED9F80030EA6ADB6A34
:108B80009A4228BF0124C1E70B4B1B68002B18BF7A
:108B900001242046BDE8F0874851002064510020A0
:108BA000B050002068510020AC5000200800002088
:108BB000E0500020885100208C510020E45000201B
:108BC0004C51002038B5294C236813B9FFF7FEFB40
:108BD000FEE7FFF711FC2368013B236023680BB11C
:108BE00000243EE0224B1B68002BF9D0214B1A6871
:108BF00002B3DB68DC68251D04F11800FFF741FEB5
:108C00002846FFF73EFE1C4AE36A11688B4288BF84
:108C100013601A4A142000FB03202946FFF725FEA3
:108C2000174BE26A1B68DB6A9A4222BF154B01228E
:108C30001A60DBE7144C23687BB9124B1C68012CCB
:108C4000CED1FFF7B7FB0CE0FFF738FF10B10D4BAB
:108C500001221A602368013B23602368002BF3D1B3
:108C6000EBE7FFF7DBFB204638BD00BF4851002093
:108C7000705100205051002088510020E450002005
:108C80004C5100208C510020E0500020154B1A68F8
:108C9000154B10B50AB1012222E01A601349144A9B
:108CA000086814235843105840B90B6813B9FFF7EC
:108CB0008DFBFEE70B68013B0B60EFE709684B4358
:108CC000D018083344686468446013449C4204BF6D
:108CD00063684360142303FB01225368DA68054B81
:108CE0001A6010BD485100208C510020885100208E
:108CF000E45000204C510020D0F8B030DB0309D400
:108D0000054B0648D3F8B03013F0010F044B18BFE1
:108D100018467047034870470000363000389C1CE6
:108D200000A4781F00366E0108B502B12BB90748C0
:108D3000074A084B3D2100F0A7FC0868C0F3024039
:108D400010600A6802F03F021A6008BD65A7FF1FA5
:108D5000CAA7FF1FBEA7FF1F10B5072B029804D993
:108D60000D480E4A0E4B4B2105E03F2805D90A4815
:108D70000A4A0C4B4C2100F087FC120602F0E0621C
:108D80000C68024308481B042040024303F4E0231C
:108D900013430B6010BD00BF65A7FF1FDDA7FF1FBA
:108DA000ACA7FF1FB4A7FF1FC0FFF8F813B5084B0F
:108DB0008DF807001A783AB158689C680DF10701E0
:108DC0000122A047002001E04FF0FF3002B010BDAB
:108DD0009051002070B505460C468E18B4420AD05A
:108DE00028464FF41801FFF72BFD0028F8D02B6818
:108DF00004F8013BF2E770BD70B505460C468E18CD
:108E0000B4420FD014F8013B2B6428460649FFF703
:108E100017FD0028F9D028460449FFF711FD002866
:108E2000F9D0EDE770BD00BF0E0098000300980078
:108E300030B5114D2C7887B0D4B920238DE80600C9
:108E40000293694606236860059303940494FFF730
:108E5000C3FC6A68D2F8803043F00103C2F8803066
:108E6000064BAB60064BEB6001232B70204600E005
:108E7000032007B030BD00BF90510020F98DFF1FC7
:108E8000D58DFF1F38B5144651B10138012807D8D8
:108E9000054B187820B158689D68A847204638BD12
:108EA0004FF0FF3038BD00BF9051002038B5144658
:108EB00038B9054B187820B15868DD68A8472046B6
:108EC00038BD4FF0FF3038BD905100200FB41FB5B2
:108ED0000A4B1B7853B107AB039300930849069BD9
:108EE0004FF0FF32002000F07BF801E04FF0FF3040
:108EF00005B05DF804EB04B0704700BF905100204E
:108F0000AD8DFF1F08B5054B1B7823B10021FFF77E
:108F10004DFF012008BD4FF0FF3008BD90510020EB
:108F2000084B1A7813B542B15868DC680DF1070197
:108F30000122A0479DF8070001E04FF0FF3002B08A
:108F400010BD00BF9051002070B500249DF8106046
:108F50000470B2B10A681AB930234370012128E0C5
:108F6000044692FBF3F503FB1522002AB4BFC2F1BD
:108F70003002303204F8012F2A46211A002DF0D198
:108F800017E00A68002AE7D00446B2FBF3F503FBBA
:108F90001522092A01D8303205E0002E14BF4121E4
:108FA00061210A3A0A4404F8012F2A46211A002DA9
:108FB000EBD1084670BD2DE9F041069D80460C4678
:108FC00017461E46BC4208DA07995FFA88F0A847A0
:108FD0003168013131600134F4E7BDE8F08100000F
:108FE0002DE9F04F93B09A4600230693A94B1C9CA1
:108FF0000392B2F1FF3F18BF134606460F46049393
:109000009AF80000002800F0CC81252840F0BF81AC
:10901000534600255A782B2A03F1010102D145F06D
:10902000020504E005D92D2A0DD145F001050B46B6
:10903000F0E7202A02D145F00405F8E7232A07D1FA
:1090400045F01005F3E7302A02D145F00805EEE7B8
:109050004FF000085A78A2F13000092803F101010D
:1090600006D80A2303FB0828A8F130080B46F1E7CD
:109070002E2A05D10B4601315A78303A092AF9D9FE
:109080005A78682A04D06C2A05D04C2A09D107E006
:109090009A78682A01E09A786C2A01D1023300E0BC
:1090A0000133587803F1010AA0F15803202B00F294
:1090B0006E81DFE813F068006C016C016C016C01DB
:1090C0006C016C016C016C016C01E4003601210043
:1090D0006C016C016C016C0121006C016C016C0174
:1090E0006C016601D900F1006C016C013F016C015B
:1090F000FC006C016C0165002368079301220A23C0
:10910000009209A807A9FFF71FFF09AB03440293C8
:10911000079B002B04F10409044603DA01344FF0E5
:109120002D0B0BE0AB0703D501344FF02B0B05E003
:1091300015F0040B1CBF01344FF0200B28070AD593
:10914000BBF1000F00F0C58058463146B847069B7A
:1091500001330693BDE0E90707D40097019620206C
:109160002146424606ABFFF726FFBBF1000F00F099
:10917000B98058463146B847069B01330693B1E0A3
:109180004FF0000B01E04FF0010B23680893CDF87E
:1091900000B0102309A808A90022FFF7D5FE09ABEB
:1091A0000344029315F0080304F1040905F0100CC0
:1091B00004461FD0BCF1000F0ED031463020B84716
:1091C000BBF1000F14BF582078203146B847069BEA
:1091D000023306934FF0010C214600970196302090
:1091E000424606ABCDF814C04446FFF7E4FEDDF876
:1091F00014C025E0EA0722D4BCF1000F00D00234ED
:109200000097019620202146424606ABCDF814C0B7
:10921000FFF7D1FEDDF814C0BCF1000F10D03146CD
:109220003020B847BBF1000F14BF582078203146DA
:10923000B847069B023306934FF0010C00E09C46B2
:10924000E8064FD5BCF1000F4CD131463020B8476D
:10925000BBF1000F14BF582078203146B847069B59
:109260000233069302343DE0236808930123009300
:1092700004F1040909A808A90022082321E02368B1
:1092800008930123009304F1040909A808A9002206
:10929000022316E0FEFFFF7F63680893012300931B
:1092A00004F1080909A808A90022102309E023688D
:1092B00008930123009304F1040909A808A90022D6
:1092C0000A23FFF741FE09AB034429070446029332
:1092D0000CD52146009701963020424606ABFFF799
:1092E0006AFE4446029B03F1010B0AE0EA07F9D447
:1092F0000097019620202146424606ABFFF75BFE11
:10930000F0E71BF8010D28B13146B847069B013341
:109310000693F6E7EB0740D50097019620202146FB
:109320002AE020783146B847069B013304F104094E
:10933000069332E004F10409246874B3204600F077
:10934000D9FC15F00105834607D10097019620202E
:109350005946424606ABFFF72EFE013C14F8010FBA
:1093600028B13146B847069B01330693F6E7A5B10D
:109370000097019620205946424606ABFFF71BFE98
:109380000BE02368069A1A6004F1040905E03146EF
:10939000B847069B01330693A1460AF1010A4C46E1
:1093A0002EE6049B0BB1069800E0039813B0BDE8CD
:1093B000F08F00BF2C4AD2F8883043F47003C2F813
:1093C000883048F28003294A4FF08851D150BFF3CA
:1093D0005F8F274B2749284800225A609A60DA603D
:1093E0001961012199604FF0C041D96018610220D4
:1093F00098602248D8602248186103209860D9609C
:1094000004202049196198604FF00040D86019612C
:10941000062005219960DA601A6198600720DA60F9
:109420001A619860DA601A615960BFF34F8FBFF319
:109430006F8F154B4FF0A062C3F80028D3F80028B7
:1094400042F00042C3F80028D3F80028002AFBDBD2
:109450000D4B0322C3F80028BFF34F8FBFF36F8F6C
:10946000014B0A4A9A60704700ED00E00000383076
:1094700090ED00E03B0008033D00080300002020C1
:1094800021000B0329000B03002008E00080FF1FD0
:109490001B4B984217D003F58033984222D0A3F596
:1094A000F81398422AD1A3F5AC030022C3F8302167
:1094B000C3F834217822C3F8A023C3F8A4230222DE
:1094C000C3F8FC2670470F4B0122C3F86021C3F894
:1094D00064217822C3F8D023C3F8D4230022C3F830
:1094E00014277047074B03225A659A657922C3F8FF
:1094F000C422C3F8C8220022C3F81C27704700BF4B
:109500000000A7300000333013B500242246234664
:10951000009414481449FFF71FFC144B14494FF0F2
:1095200080521A60134A41F211130C200B60C2F8EA
:1095300028041148028922F001021204120C02814F
:109540000E4A0C601360136202F5615213601361DE
:109550001362C2F8E039C2F8F03902F5E072136024
:1095600002B010BD0000383080BB383084BB3830CA
:10957000E049383000003D3000002A3060083830C3
:1095800013B5124B12491348134C0C22C3F8202573
:10959000002200921346FFF7DFFB104B4FF0805282
:1095A0001A60A3F5D043743B43F233321A6020466D
:1095B000FFF76EFF204600F01BF84FF4E132014642
:1095C000204602B0BDE81040FFF732BC00003D303D
:1095D00000B23830000038300000A83004B2383013
:1095E000024B0122C3F80422704700BF00003D3047
:1095F000194B984213B509D003F58033984207D030
:10960000A3F5F813984224D1144902E0144900E06C
:1096100014490C681448C4F302646A4601ABFFF7AE
:1096200083FB012C06D00AD3042C12D10F48FFF77C
:1096300063FB05E00D48FFF75FFB400800E00C48C6
:10964000009B0133B0FBF3F0019B0133B0FBF3F05F
:1096500000E0002002B010BD0000A73000B038309C
:1096600080B1383000B23830000038300000363079
:1096700000366E0108B5FFF7B3FFFFF745FFBDE801
:109680000840FFF77DBF00001FB505460848006889
:10969000C06812B9074C224600E0074C02928DE8E0
:1096A00012001A4605492B4600F01EF800F0EAFBAE
:1096B0006C00002027A8FF1FECA7FF1FF9A7FF1FC2
:1096C00008B5074B044613B10021AFF30080054BEA
:1096D0001868836A03B19847204600F087FF00BFEF
:1096E000000000002CA8FF1F0EB403B5014603AB19
:1096F000054853F8042B0068019300F05DF802B0B0
:109700005DF804EB03B070476C00002070B50E4BA1
:109710000E4CE41AA41000251E46A54204D056F8AB
:10972000253098470135F8E701F0CCF8084C094B93
:10973000E41AA41000251E46A54204D056F8253090
:1097400098470135F8E770BDE4A8FF1FE4A8FF1FA4
:10975000E8A8FF1FE4A8FF1F02440346934202D07B
:1097600003F8011BFAE770479368013B002B10B523
:10977000936009DA9469A34202DBCBB20A2B03D1CE
:10978000BDE8104000F0BEBA1368581C1060197094
:10979000C8B210BDF8B506460F461446D518AC42FF
:1097A00008D0304614F8011B3A46FFF7DDFF431C92
:1097B000F5D100E00020F8BD2DE9F0439DB00D4645
:1097C00090460393064618B183690BB900F050FC2C
:1097D000754B9D4201D1756808E0744B9D4201D1E3
:1097E000B56803E0724B9D4208BFF568AB891C0762
:1097F0000AD52B6943B10023099320238DF8293022
:1098000030238DF82A3041E03046294600F0CEFA68
:109810000028F0D04FF0FF30C2E0039A111D12680B
:109820000391002ABBBF524243F002030792079202
:10983000B8BF0493013423782E2B7BD0DFF88081CE
:1098400021784046032200F0E9FC38B1049AC8EBC5
:10985000000040238340134304930134217855488A
:109860008DF82810062204F1010800F0D7FC00282A
:1098700000F08580504B002B78D1039B073323F0F9
:10988000070308330393099B3B44099343461C4653
:1098900013F8012B1AB9B4EB08090ED002E0252AFF
:1098A000F5D1F8E73046294642464B46FFF772FFAE
:1098B000013070D0099B4B4409932378002B6AD068
:1098C00000234FF0FF3204930793059206938DF81F
:1098D00053301A9304F101084446DFF8E8902178E8
:1098E0004846052200F09AFC08F10108049B30B1BB
:1098F000C9EB00000122824013430493ECE7D80631
:1099000044BF20228DF85320190744BF2B228DF825
:10991000532022782A2A80D0079923461C460133F7
:109920002278303A092A03D80A2000FB0121F5E702
:10993000079180E763782A2B0AD1039B1A1D1B68C5
:109940000392002BB8BF4FF0FF330234059375E745
:10995000611C00220C4601312378303B092B03D8CF
:109960000A2000FB0232F5E7059267E703AB00939C
:10997000304604A92A46114BAFF3008007E003AB41
:109980000093304604A92A460C4B00F093F8421C81
:1099900007467FF478AFAB895B063FF53BAF09988C
:1099A0001DB0BDE8F08300BF64A8FF1F84A8FF1F9F
:1099B000A4A8FF1F3AA8FF1F000000009597FF1FF3
:1099C00036A8FF1F30A8FF1F2DE9F84391461F4618
:1099D0008A680B69DDF820809342B8BF1346C9F846
:1099E000003091F8432006460C4612B10133C9F805
:1099F00000302368990642BFD9F800300233C9F815
:109A00000030256815F006051CD094F84330226814
:109A1000003318BF012392061FD5E1185A1C3020CD
:109A200081F84300224494F8451082F84310023331
:109A300013E03046394604F119020123C0470130D2
:109A400007D00135E368D9F800209B1A9D42F0DB6E
:109A5000DBE74FF0FF30BDE8F8833046394604F1CC
:109A60004302C0470130F4D02268D9F80050E368BF
:109A700002F00602042A08BF5D1B2269A3680CBF1E
:109A800025EAE57500259342C4BF9B1AED184FF0F7
:109A90000009A9450ADA3046394604F11A020123C1
:109AA000C0470130D5D009F10109F2E70020BDE837
:109AB000F88300002DE9FF410C461746227E6E2AEE
:109AC000984606460A9B01F1430100F0AF8012D888
:109AD000632A23D00AD8002A00F0BC80582A40F01C
:109AE000CB8084F84520DFF804E257E0642A1ED0DA
:109AF000692A1CD0C0E0732A00F0B08009D86F2A10
:109B00002ED0702A40F0B880226842F020022260F5
:109B10003FE0752A24D0782A3BD0ADE01A68111DA9
:109B20001960136884F8423004F14205A8E0206807
:109B30001A6810F0800F02D0101D186008E010F0B5
:109B4000400F02F10400186002D0B2F9003000E0CA
:109B50001368002B3EDA2D225B4284F8432039E063
:109B600020681A6810F0800F02D0101D186007E0FE
:109B700010F0400F02F10400186001D0138800E0DB
:109B80001368227EDFF864E16F2A0CBF08220A22E4
:109B90001CE07822DFF858E184F845202268186834
:109BA00012F0800F00F104051D6003D1550601D5A8
:109BB000038800E00368D00744BF42F0200222601F
:109BC0001BB9226822F0200222601022002084F8B3
:109BD000430002E0DFF814E10A226568A560002D69
:109BE000A2BF206820F00400206003B965B10D46D3
:109BF000B3FBF2F002FB10331EF8033005F8013D11
:109C000003460028F4D100E00D46082A0BD1236852
:109C1000DA0708D5236962689A42DEBF302305F867
:109C2000013C05F1FF35491B21612EE025681A68CA
:109C3000606915F0800F03D0151D1D60136808E0E2
:109C400015F0400F02F104051D60136801D0188063
:109C500000E01860002323610D4616E01A68111D0C
:109C60001960156862682846002100F0D7FA08B12B
:109C7000401B6060636804E004F1420584F8422000
:109C800001232361002384F84330CDF8008030465F
:109C9000214603AA3B46FFF797FE013002D14FF061
:109CA000FF301FE0304639462A462369C04701305D
:109CB000F5D023689B0705D4E068039B9842B8BFA2
:109CC00018460FE00025E368039A9B1A9D42F3DAD9
:109CD0003046394604F119020123C0470130DED075
:109CE0000135F0E704B0BDE8F08100BF41A8FF1FD7
:109CF00052A8FF1F034613F8012B002AFBD1181AA4
:109D00000138704770B50D461446064618B1836990
:109D10000BB900F0ADF9224B9C4201D1746808E008
:109D2000204B9C4201D1B46803E01F4B9C4208BF0A
:109D3000F468A369A360A3891A0709D523693BB115
:109D400023682069181A63699842EDB20FDB08E0B6
:109D50003046214600F02AF80028F1D04FF0FF30BD
:109D600070BD3046214600F019F90028F6D1A368ED
:109D7000013BA36023685A1C22601D706369013097
:109D8000984204D0A389DB0707D50A2D05D13046B8
:109D9000214600F003F90028E0D1284670BD00BF3D
:109DA00064A8FF1F84A8FF1FA4A8FF1F314B70B534
:109DB0001D6806460C4625B1AB6913B9284600F06C
:109DC00057F92D4B9C4201D16C6808E02B4B9C420B
:109DD00001D1AC6803E02A4B9C4208BFEC68A38920
:109DE0009AB211071DD4D50602D40922326038E098
:109DF000500712D5616B41B104F14403994202D07E
:109E0000304600F01BFA00236363A38923F0240388
:109E1000A3810023636023692360A38943F00803BF
:109E2000A38123694BB9A38903F42073B3F5007FA1
:109E300003D03046214600F0A3F9A38913F00102B4
:109E400005D00022A26062695242A26103E0990734
:109E500058BF6269A26022694AB903F0800080B2EB
:109E600030B143F04003A3814FF0FF3070BD0020BC
:109E700070BD00BF6C00002064A8FF1F84A8FF1FF6
:109E8000A4A8FF1F08B5062000F0AAFA012000F0E0
:109E9000ADFB8A892DE9F041054610070C4657D4E1
:109EA0004B68002B02DC0B6C002B18DDE66AB6B1A8
:109EB00002F48052002392B22F682B600AB1626DC7
:109EC00010E0216A28460123B047411C024609D10F
:109ED0002B683BB11D2B01D0162B47D12F600020E2
:109EE000BDE8F081A3895B0705D56368D21A636B6F
:109EF0000BB1236CD21AE66A216A00232846B047C8
:109F0000461CA38905D12A681AB11D2A01D0162A38
:109F100019D100226260D9042269226004D5421C52
:109F200001D12B6803B96065616B2F600029D6D021
:109F300004F14403994202D0284600F07FF9002042
:109F40006063BDE8F08143F04003A381BDE8F08188
:109F50000F69002FC3D093070E6808BF4B690F60CD
:109F600018BF0023C7EB06088B6012E0A38943F0FB
:109F70004003A3814FF0FF30BDE8F0812846216AFD
:109F8000A66A3A464346B0470028EFDD0744C0EBD7
:109F90000808B8F1000FF1DCA1E7000038B50B6943
:109FA00005460C46DBB118B183690BB900F060F8C7
:109FB0000C4B9C4201D16C6808E00B4B9C4201D1D8
:109FC000AC6803E0094B9C4208BFEC68B4F90C3064
:109FD0002BB128462146BDE83840FFF75ABF002084
:109FE00038BD00BF64A8FF1F84A8FF1FA4A8FF1FDF
:109FF000014900F0A7B800BF9D9FFF1F002310B5C7
:10A00000044603604360836081814366C2810361CB
:10A010004361836119465C300822FFF79DFB054BC5
:10A020006362054BA362054BE362054B2462236325
:10A0300010BD00BF19A4FF1F3BA4FF1F73A4FF1F87
:10A0400097A4FF1F70B568234D1E5D430E4605F1B2
:10A05000740100F037F9044640B1002180E8420065
:10A060000C30A06005F16802FFF776FB204670BD5A
:10A07000836910B5044633BB8364C3640365124B24
:10A08000124A1B688262984204BF0123836100F078
:10A090001FF86060204600F01BF8A060204600F02A
:10A0A00017F80421E06000226068FFF7A7FFA068AE
:10A0B00009210122FFF7A2FFE06812210222FFF727
:10A0C0009DFF0123A36110BD2CA8FF1FF19FFF1F5F
:10A0D000F8B51B4B1E68B369074613B93046FFF746
:10A0E000C7FF4836B4687368013B04D4B4F90C5018
:10A0F00075B16834F8E733682BB938460421FFF7A7
:10A10000A1FF306008B13668ECE70C233B60F8BD76
:10A110004FF6FF73E3810123A38165662560A56087
:10A12000656025616561A56104F15C00294608222E
:10A13000FFF712FB6563A563A564E5642046F8BDDF
:10A140002CA8FF1F2DE9F8438046894600F14804FA
:10A15000002694B1A5686768013F0CD4AB89012B38
:10A1600007D9B5F90E30013303D040462946C84718
:10A1700006436835F0E72468EBE73046BDE8F8832E
:10A18000F0B58B899D0791B006460C4626D4B1F9EF
:10A190000E10002909DAA38913F0800F4FF0000593
:10A1A00014BF40274FF480670DE001AA00F09AF930
:10A1B0000028F0DB029D05F47045A5F500514D42E5
:10A1C0004D414FF480673046394600F07BF860B966
:10A1D000A3899A051DD443F00203A38104F1470328
:10A1E000236023610123636113E00B4BB362A389F6
:10A1F000206043F08003A381206167614DB1304648
:10A20000B4F90E1000F080F918B1A38943F00103EE
:10A21000A38111B0F0BD00BFF19FFF1F10B5C9B2FF
:10A2200002449042034606D01C788C4200F10100A3
:10A23000F7D1184610BD002010BD000030B5002930
:10A240003DD051F8042C0B1F1D49002AB8BF9B18A4
:10A250000A680C4612B95A600B6030BD93420DD2A9
:10A2600019685818904201BF5A5852181A6042682B
:10A270005A60236030BD994203D80A4651680029CC
:10A28000F9D1146815199D420AD11B682344D018CE
:10A290008842136013D10868034413604B680DE0D3
:10A2A00002D90C23036030BD1C681819884204BF12
:10A2B00008684968596004BF00191860536030BDD0
:10A2C000A451002070B5CC1C24F0030408340C2CDD
:10A2D00038BF0C24002C064603DA0C233360002020
:10A2E00070BD8C42F9D3204A136810461946A1B1BB
:10A2F0000A68121B0ED40B2A03D90A608B188C50E3
:10A300001FE08B420DBF5A684A685A60026018BF4E
:10A310000B4616E00B464968E9E7144D2B681BB95C
:10A32000304600F025F828603046214600F020F83D
:10A33000421C0346D1D0C51C25F0030585420AD135
:10A340001C6003F10B001A1D20F00700821A0AD0CE
:10A350005142995070BD3046E91A00F009F80130B9
:10A36000BBD02B46ECE770BDA4510020A0510020CB
:10A3700038B5064C002305460846236000F028F94E
:10A38000431C02D1236803B12B6038BDAC510020BF
:10A390001F2938B504460D4604D9162303604FF033
:10A3A000FF3038BD426C12B152F821304BB9204613
:10A3B00000F030F82A4601462046BDE8384000F05B
:10A3C00017B8012B0AD0591C03D1162303600120B2
:10A3D00038BD002442F8254028469847002038BD63
:10A3E000024B01461868FFF7D3BF00BF6C00002086
:10A3F00038B5074C0023054608461146236000F097
:10A40000D7F8431C02D1236803B12B6038BD00BFCD
:10A41000AC51002000F0BCB810B50C46B1F90E10DC
:10A4200000F094F80028ABBF636DA3891B1823F4D8
:10A430008053ACBF6365A38110BD2DE9F0411D467B
:10A440008B89DB0507460C46164605D5B1F90E107B
:10A450000022022300F068F8A389B4F90E1023F457
:10A460008053A381384632462B46BDE8F04100F0C8
:10A4700017B810B50C46B1F90E1000F055F8431C92
:10A48000A38915BF606523F4805343F48053A381EF
:10A4900018BFA38110BDB1F90E1000F013B8000071
:10A4A00038B5074C054600202060084611461A467C
:10A4B000FEF7E8FC431C02D1236803B12B6038BDD2
:10A4C000AC51002038B5064C0023054608462360F1
:10A4D00000F04EF8431C02D1236803B12B6038BD55
:10A4E000AC51002038B5074C0023054608461146FC
:10A4F000236000F045F8431C02D1236803B12B60B0
:10A5000038BD00BFAC51002038B5064C00230546CD
:10A510000846236000F044F8431C02D1236803B1CD
:10A520002B6038BDAC51002038B5074C05460020E3
:10A530002060084611461A4600F042F8431C02D13A
:10A54000236803B12B6038BDAC51002038B5074CEF
:10A55000054600202060084611461A46FEF7A6FC74
:10A56000431C02D1236803B12B6038BDAC510020DD
:10A57000024B58221A604FF0FF307047AC51002058
:10A58000024B58221A604FF0FF307047AC51002048
:10A59000024B58221A604FF0FF307047AC51002038
:10A5A000024B58221A600020704700BFAC510020B7
:10A5B000024B58221A604FF0FF307047AC51002018
:10A5C000024B58221A604FF0FF307047AC51002008
:10A5D000044A05491368002B08BF0B461844106055
:10A5E00018467047A8510020B0510020FEE700BF78
:10A5F0000D0A48656C6C6F20576F726C64210A0AF3
:10A600000D005072696E74205461736B002F686F77
:10A610006D652F6E65756265726672616E2F707200
:10A620006F6A656374732F6672656572746F732DDC
:10A63000746E2F706C6174666F726D2F64726976C0
:10A640006572732F7372632F756172745F696D78B1
:10A650002E6300696E6974436F6E666967002864D3
:10A660006972656374696F6E202620756172744427
:10A670006972656374696F6E547829207C7C202828
:10A68000646972656374696F6E20262075617274E7
:10A69000446972656374696F6E5278290028756128
:10A6A00072744D6F64656D4D6F64654463652026FB
:10A6B00020756172744D6F64656D4D6F64654463A0
:10A6C0006529207C7C2028756172744D6F64656DEE
:10A6D0004D6F6465446365202620756172744D6F0B
:10A6E00064656D4D6F6465447465290064617461CF
:10A6F000203C3D2030783146460028766F74654313
:10A700006C6F636B203D3D207561727449726461AA
:10A71000566F7465436C6F636B53616D706C696EDB
:10A720006729207C7C2028766F7465436C6F636B8F
:10A73000203D3D207561727449726461566F746585
:10A74000436C6F636B5265666572656E6365290065
:10A75000040302010006554152545F496E697400BA
:10A7600049444C45002F686F6D652F6E65756265B5
:10A77000726672616E2F70726F6A656374732F6692
:10A7800072656572746F732D746E2F706C61746670
:10A790006F726D2F647269766572732F7372632F97
:10A7A00063636D5F696D7837642E63007072652036
:10A7B0003C203800706F7374203C20363400707277
:10A7C0006520262620706F73740043434D5F4765F4
:10A7D00074526F6F74446976696465720043434DC7
:10A7E0005F557064617465526F6F74002C206675DC
:10A7F0006E6374696F6E3A20006173736572746979
:10A800006F6E2022257322206661696C65643A2090
:10A8100066696C6520222573222C206C696E652088
:10A820002564257325730A00430000000C000020F6
:10A83000232D302B2000686C4C0065666745464729
:10A8400000303132333435363738394142434445AC
:10A85000460030313233343536373839616263641B
:10A86000656600000000000000000000000000001D
:10A8700000000000000000000000000000000000D8
:10A8800000000000000000000000000000000000C8
:10A8900000000000000000000000000000000000B8
:10A8A00000000000000000000000000000000000A8
:10A8B0000000000000000000000000000000000098
:10A8C00000000000F8B500BFF8BC08BC9E46704709
:0CA8D000F8B500BFF8BC08BC9E467047FD
:08A8DC00C0D9FF7F010000005C
:04A8E4006582FF1F6B
:04A8E8004182FF1F8B
:10A8EC00AAAAAAAAF84F0000FFFFFFFF0000000071
:10A8FC0064A8FF1F84A8FF1FA4A8FF1F000000006E
:10A90C0000000000000000000000000028A8FF1F4D
:10A91C00000000000000000000000000000000002B
:10A92C00000000000000000000000000000000001B
:10A93C00000000000000000000000000000000000B
:10A94C000000000000000000000000000C000020CF
:04A95C0000000000F7
:040000051FFF831145
:00000001FF
