:020000041FFFDC
:10800000008000201183FF1F3D83FF1F3D83FF1F62
:108010003D83FF1F3D83FF1F3D83FF1F00000000C6
:108020000000000000000000000000009583FF1F1A
:108030003D83FF1F000000004184FF1F9984FF1F44
:108040003D83FF1F3D83FF1F3D83FF1F3D83FF1FB8
:108050003D83FF1F3D83FF1F3D83FF1F3D83FF1FA8
:108060003D83FF1F3D83FF1F3D83FF1F3D83FF1F98
:108070003D83FF1F3D83FF1F3D83FF1F3D83FF1F88
:108080003D83FF1F3D83FF1F3D83FF1F3D83FF1F78
:108090003D83FF1F3D83FF1F3D83FF1F3D83FF1F68
:1080A0003D83FF1F3D83FF1F3D83FF1F3D83FF1F58
:1080B0003D83FF1F3D83FF1F3D83FF1F3D83FF1F48
:1080C0003D83FF1F3D83FF1F3D83FF1F3D83FF1F38
:1080D0003D83FF1F3D83FF1F3D83FF1F3D83FF1F28
:1080E0003D83FF1F3D83FF1F3D83FF1F3D83FF1F18
:1080F0003D83FF1F3D83FF1F3D83FF1F3D83FF1F08
:108100003D83FF1F3D83FF1F3D83FF1F3D83FF1FF7
:108110003D83FF1F3D83FF1F3D83FF1F3D83FF1FE7
:108120003D83FF1F3D83FF1F3D83FF1F3D83FF1FD7
:108130003D83FF1F3D83FF1F3D83FF1F3D83FF1FC7
:108140003D83FF1F3D83FF1F3D83FF1F3D83FF1FB7
:108150003D83FF1F3D83FF1F3D83FF1F3D83FF1FA7
:108160003D83FF1F3D83FF1F3D83FF1F3D83FF1F97
:108170003D83FF1F3D83FF1F3D83FF1F3D83FF1F87
:108180003D83FF1F3D83FF1F3D83FF1F3D83FF1F77
:108190003D83FF1F3D83FF1F3D83FF1F3D83FF1F67
:1081A0003D83FF1F3D83FF1F3D83FF1F3D83FF1F57
:1081B0003D83FF1F3D83FF1F3D83FF1F3D83FF1F47
:1081C0003D83FF1F5587FF1F3D83FF1F3D83FF1F1B
:1081D0003D83FF1F3D83FF1F3D83FF1F3D83FF1F27
:1081E0003D83FF1F3D83FF1F3D83FF1F3D83FF1F17
:1081F0003D83FF1F3D83FF1F3D83FF1F3D83FF1F07
:108200003D83FF1F3D83FF1F3D83FF1F3D83FF1FF6
:108210003D83FF1F3D83FF1F3D83FF1F3D83FF1FE6
:108220003D83FF1F3D83FF1F3D83FF1F3D83FF1FD6
:108230003D83FF1F3D83FF1F3D83FF1F3D83FF1FC6
:1082400010B5054C237833B9044B13B10448AFF390
:1082500000800123237010BDD40100200000000025
:1082600010CEFF1F084B10B51BB108480849AFF3EB
:1082700000800848036803B910BD074B002BFBD0F2
:10828000BDE81040184700BF0000000010CEFF1FDF
:10829000D8010020D001002000000000154B002B69
:1082A00008BF134B9D46A3F5803A00218B460F462D
:1082B0001348144A121A03F036FA0F4B002B00D061
:1082C00098470E4B002B00D0984700200021040057
:1082D0000D000D48002802D00C48AFF3008003F0D9
:1082E000F1F92000290000F037FA03F0C5F900BFCA
:1082F00000000800008000200000000000000000D6
:10830000D4010020C4530020000000000000000041
:1083100072B602F019FF0649064A074B9A42BEBFE1
:1083200051F8040B42F8040BF8E762B6FFF7B6FF0A
:1083300038CEFF1F00000020D4010020FFF7FEBF51
:1083400005480068006880F3088862B6BFF34F8F65
:10835000BFF36F8F00DF00BF08ED00E0DFF80C0017
:10836000016841F4700101607047000088ED00E091
:108370004FF0807300E90A00054B40F80C3C6FF0A9
:10838000020340F8202C40F8243C4438704700BFDA
:10839000DD83FF1F064B19680868B0E8F04F80F3D3
:1083A0000988BFF36F8F4FF0000080F3118870478A
:1083B00060530020044B4FF080521A60BFF34F8F80
:1083C000BFF36F8F704700BF04ED00E0EFF3118043
:1083D0004FF0100181F311887047002008B5054B5C
:1083E0001B68013302D0FFF7F1FFFEE7FFF7EEFF56
:1083F000FEE700BF0000002008B5FFF7E7FF044AD2
:10840000136801331360BFF34F8FBFF36F8F08BD45
:108410000000002080F311887047000008B5074B6A
:10842000186810B9FFF7D2FFFEE70138186018B9D5
:10843000BDE80840FFF7EEBF08BD00BF0000002008
:10844000EFF30980BFF36F8F124B1A681EF0100F05
:1084500008BF20ED108A20E9F04F10604DF8043D70
:108460004FF0100080F3118802F058FA4FF000002E
:1084700080F3118808BC19680868B0E8F04F1EF056
:10848000100F08BFB0EC108A80F30988BFF36F8F1C
:10849000704700BF6053002008B5FFF797FF02F058
:1084A0002FF918B1044B4FF080521A600020BDE83C
:1084B0000840FFF7AFBF00BF04ED00E0034B044AE4
:1084C0001A60072243F8042C704700BF14E000E054
:1084D0007FA9030007B5214B1A78D2B20192FF227F
:1084E0001A701B781E4ADBB28DF803309DF80330FA
:1084F00003F0100313701B4A072313609DF8031049
:10850000090603F1FF3007D59DF803305B00DBB2AD
:108510008DF803300346F1E71B0203F4E0631360B8
:10852000019B0E4ADBB213700F4B1A6842F47002C3
:108530001A601A6842F070421A60FFF7BFFF0B4BD7
:1085400000221A60FFF70AFF094A136843F040430C
:108550001360FFF7F5FEFFF741FF00BF00E400E006
:10856000F0010020F401002020ED00E000000020D8
:1085700034EF00E008B5EFF305830F2B08D90A4A62
:108580009B5C0A4A12789A4202D9FFF71FFFFEE766
:10859000074B084A1B68126803F4E063934202D950
:1085A000FFF714FFFEE708BDF0E300E0F001002054
:1085B0000CED00E0F401002070B5044602F098F8DC
:1085C0002648016871B9264B264A23F00703136039
:1085D0005160254A44F6F87582E8220083E82400B9
:1085E000012303602CB1083463071CBF24F0070487
:1085F0000834621E44F6F6739A422AD8194A136860
:108600005968A14203D318498B4206D121E0196869
:108610000029F8D01A460B46F2E719681568116070
:108620005968091B102905F108050CD91A19516060
:108630005C6054680B4908684668A64201D201464E
:10864000F9E710600A6009495B680A68D21A0A6093
:1086500000E0002502F0D8F8284670BDF80100209F
:108660000C020020FC010020045200200400002025
:1086700038B50446C8B1A0F1080502F039F854F83D
:10868000041C0A4B1A685068884201D21346F9E765
:1086900044F8082C064A1D6054F8041C13680B4467
:1086A0001360BDE8384002F0AFB838BDFC010020CF
:1086B0000400002010B586B000241F4802940394E3
:1086C000049402F0EFFA1D4802F0ECFA204602A9E9
:1086D000012203AB00F0D0F810B119484A2114E090
:1086E000039B1848196A5A6A02F0DCFA00224FF01C
:1086F000FF338DE80C00039B04A9D86A05AA042364
:1087000000F018F928B10E4852210F4A0F4B02F021
:1087100097FF04990E4802F0C5FA049B01330493B5
:10872000039B04A9D86A5B6A042200F03DF9002883
:10873000DCD003485621E8E725C6FF1F52C6FF1FBD
:1087400069C6FF1FE8C6FF1F18C6FF1FDCC6FF1F54
:1087500034C7FF1F00F07CB91FB502F055FE0D4A6B
:108760000D48516A4FF6F8730B4053620B4B0C499E
:10877000302283F861230222DA6001230093002370
:108780000193029303934FF4807201F0BFFE01F056
:1087900085FFFEE70000AB30B586FF1F00E100E07B
:1087A00055C7FF1F08B528B90448054A054B68217D
:1087B00002F046FF044B00221A6008BD7FC7FF1F6E
:1087C00015C8FF1FD6C7FF1F0C52002030B5054645
:1087D00085B00C4623B90F480F4A104B7F2104E0A7
:1087E00028B90C480C4A0E4B802102F029FF029157
:1087F00004A9ADF80C20089A41F80C2D1846002267
:1088000001F04CFB18B12846214600F081FD05B06F
:1088100030BD00BF7FC7FF1F30C8FF1FDEC7FF1F6F
:10882000D6C7FF1F08B508B1C36A23B90B480C4A65
:108830000C4B5A2106E00C4A12682AB90748084A2C
:108840000A4B5C2102F0FCFEDA60094B1860094B10
:108850001868BDE8084001F083BA00BF7FC7FF1F5A
:1088600064C7FF1FE3C7FF1F10520020FEC7FF1F92
:108870000C520020145200202DE9F047244C984659
:108880002368A6B005468A46174613BB294602A8A8
:1088900000F090F90146002836D1204601F03CFA5C
:1088A000B8B92368ABB1DFF888901A4B012F0CBF21
:1088B000BDF84C10BDF82C10196048460C2201F090
:1088C000DFFA064610B9D9F8003023B9206801F064
:1088D00025FA114819E0114B114A51468DE88800DC
:1088E0002846104B00F047FC0546206801F01AFAB4
:1088F000206801F013FA0C4B26601B68002BE8D0AF
:10890000C8F80030284600E0084826B0BDE8F087E7
:10891000145200201852002047F4FFFFCD87FF1F9C
:108920002588FF1FA587FF1F0C52002041F4FFFF81
:10893000105200202DE9FF41DDF82880054617463A
:108940001C460E4621B318B303680BB39B6AFBB1F8
:10895000C0680B9A01A901F0C5FAD8B1B8F1000FAF
:1089600002D0019BC8F80030BDF90C3007B13B6064
:108970009C4206DB22463046029902F0C9FE0024E2
:1089800000E0064C2868029900F0CBFC204602E08B
:10899000034800E0034804B0BDE8F08142F4FFFF63
:1089A00044F4FFFF46F4FFFF37B5154604461A4668
:1089B0000B4659B150B1006840B1816A31B1012113
:1089C00001910095A16800F0F9FB00E0014803B0B7
:1089D00030BD00BF44F4FFFF08B50348034A044B11
:1089E0004B2102F02DFE00BF5DC8FF1FB7C9FF1F5E
:1089F00061CAFF1F08B50348034A044B442102F033
:108A00001FFE00BF5DC8FF1FADC9FF1F61CAFF1F6A
:108A10000A6802480121120402F0DCBD0000AB30FC
:108A2000084600F00FB9000008B50146064A006983
:108A300001F0B6F9054A536A23F4702343F08063CA
:108A40005362002008BD00BF218AFF1F0000AB3029
:108A500007B50648012101AA02F0D4FD18B9BDF8F6
:108A6000060001F0DFF903B05DF804FB0000AB3055
:108A7000034B5868C0F30800003018BF012070474E
:108A800000ED00E0012808B504D90D480D4A0E4B51
:108A9000AD2108E00D4B53F82020002A05DC0848E2
:108AA000084A0B4BAE2102F0CBFD013A43F82020DF
:108AB0001A6822B95B6813B9064B0222DA6008BD56
:108AC0005DC8FF1F43C8FF1FBDC8FF1F2052002005
:108AD000E3C8FF1F00E100E0012810B504D90E48EB
:108AE0000E4A0F4BC72111E00E4B53F82020002AED
:108AF00008DB196861B9596851B90B490224C1F8FA
:108B00008C4005E00448054A084BC82102F098FD56
:108B1000013243F8202010BD5DC8FF1F55C9FF1F5B
:108B2000BDC8FF1F2052002000E100E003C9FF1F65
:108B300008B50A4B1868002805DC0948094A0A4BA1
:108B4000E32102F07DFD0138186028B90146024694
:108B5000BDE80840FFF796BF08BD00BF1C520020CB
:108B60005DC8FF1F8FC9FF1F24C9FF1F38B5094B00
:108B70001C68002C1D4605DA0748084A084BF121FD
:108B800002F05EFD02D12046FFF7A6FF01342C6003
:108B900038BD00BF1C5200205DC8FF1F70C9FF1FF9
:108BA0003CC9FF1F70477047704700207047002086
:108BB0007047000008B54B1C0A4B08D01A688A425F
:108BC00005D0D3F890208A4209D1012100E000218C
:108BD000902202FB013101F063F8002008BD4FF044
:108BE000FF3008BD2400002070B5154B1C680646F8
:108BF0002CB120680368B34220D0A468F8E7902025
:108C000001F048F80546C0B13146FFF7D3FF50B92F
:108C10006868AA680146412301F0FCF8102001F0C1
:108C200039F8014618B9284601F036F805E0056024
:108C3000034800F034F8284670BD204670BD00BFE0
:108C400028520020006800F0DABFC36D0B6060306E
:108C5000704750F80C3B0B6070470430704708B504
:108C60000B681A684301D01813441C30D961D2F83C
:108C700080301B6803B19847002008BD0368818CD1
:108C80001B68D3F88020926822B103EB4111186869
:108C90002C3110477047002070470020704761B1A9
:108CA000036833B18B600023CB600368D960016037
:108CB000704701608B600268D3607047036863B1DE
:108CC00059B199428B6801D103607047CA689360BB
:108CD00003B970478B68CA68DA6070472DE9F843BA
:108CE0001546804650B349B342B393071CBF22F0E8
:108CF00003050435B1FBF5F605FB1611002918BF75
:108D0000013616F01F0318BF0123202796FBF7F743
:108D10001F4407F108094FEA8909484600F0BAFFE5
:108D2000044658B100214A4600F0B8FF201D012139
:108D300000F0C3FF28B1204600F0AEFF0020BDE8E0
:108D4000F883C4F80080E560A76126612046BDE88D
:108D5000F883000038B505460C4639B330B348688F
:108D600000F0B8FF2368ED1AE36895FBF3F5104BAC
:108D70002B40002BBCBF03F1FF3363F01F034FF008
:108D8000200295FBF2F204EB82024FF00101B8BF22
:108D9000013301FA03F3D1694B40D3616369606821
:108DA000013B6361BDE8384000F0A5BF38BD00BF9E
:108DB0001F00008010B5044638B1406800F088FFFD
:108DC0002046BDE8104000F067BF10BD431C23EAF9
:108DD00000000D4A013802EA5003C21A0B4B03EAA5
:108DE0009003D31A03EBD30323F0635323F40E133E
:108DF00023F4636323F008033F20B3FBF0F0C0EBE0
:108E00008010181A704700BFDBB66DDB4992244909
:108E10002DE9F843044670B1406800F05BFF6669D5
:108E200023699E4204DA2746002557F8189F06E07A
:108E3000606800F060FF0020BDE8F88301354D4513
:108E400016DA57F8048F4046FFF7C0FF1F28F5DCFD
:108E5000012304EB8502834043EA0803D3612268BF
:108E600000EB4513E068013600FB0325666100E076
:108E70000025606800F03FFF2846BDE8F883002029
:108E800070477047C0687047C3681943C160704736
:108E90000020704770477047704700002DE9F0418F
:108EA0000446006A8EB0103004A915461F46DDF84E
:108EB0005080FFF7CEFE049BAB4264DC05460026E3
:108EC000049B216D9E422FDA68680790EB68089337
:108ED0002A89ADF8242091B9B5F808E003F1FF3CE8
:108EE0004FEACE020CEB0E1C0EF1040E0CEB4E0EF4
:108EF0005B420E320EEA03031A4400F0CFFE58F82C
:108F000026300093234B019305AB03EB86030293BA
:108F10002046B1B257F8262007AB00F0EBFD203514
:108F2000002833D10136CBE70129059B069A02D1EF
:108F3000E361A26102E0E261A36109B1002025E0E2
:108F40000D46A369DB8C9D42F8DAE06A02220369D0
:108F500093FBF2F39D42F1DAFFF75AFF0746A0B107
:108F600000264FF4007231460A900B920C9600F0E6
:108F700095FE0097A0690AA93246012300F0D0FCB3
:108F800020B90135DDE7044800E004480EB0BDE833
:108F9000F08100BF7D8CFF1F45F4FFFF46F4FFFF0B
:108FA0002DE9F3410746084690461E46FFF71CFE92
:108FB0000546002856D05C2000F06CFE04460028D0
:108FC00041D000215C2200F069FE04F14C00012137
:108FD00000F073FE002846D1089B6364099BA364DC
:108FE000224B256023611B692562C4F850802664EA
:108FF00013B1204669699847236D1BB1236D012B7E
:1090000015D10BE02846FFF728FE4FF4007203C885
:10901000FFF764FEE0620028F0D114E0206A01A9A5
:10902000FFF713FE00258046019B9D4202DB0020D6
:109030003C6018E0204608EB45110022352300F083
:1090400087F9064608B90A480DE0A16C22464FF0A0
:10905000FF3300F049F9F0620028F4D083683362EE
:109060000135E1E7034802B0BDE8F081440100208A
:1090700047F4FFFF41F4FFFF70B50546446AC06C3A
:109080000E4600F027FE3CB120683146202200F059
:109090000BFE08B1A468F6E7E86C00F02CFE204651
:1090A00070BD70B50546846AC06C0E4600F012FEB5
:1090B0002CB123689B68B34201D0A468F8E7E86C40
:1090C00000F019FE204670BD70B5436A0446BBB17E
:1090D0009E681D68636C0BB128469847A36D33B139
:1090E000226D012A03D12046294600F007FAE86ADA
:1090F00008B100F006F9284600F05BF93346E6E7D0
:1091000020463521FFF7CDFF034618B120461968E8
:1091100000F0F0FAA06908B100F08CFCE06908B139
:1091200000F088FCE06A08B1FFF744FEE06C08B18B
:1091300000F0CEFD2046BDE8704000F0ADBD10B59A
:10914000036D0446006A33B9FFF7A5FD48B9A0696D
:1091500000F02EFD02E0FFF7A0FD10B901236365CA
:10916000002010BD08B528B1FFF7AEFFBDE80840EC
:1091700000F06EBD08BD2DE9F34107460D461646C9
:10918000984600F041FD044680B9089B0193CDF854
:10919000008028463946099A3346FFF701FF044606
:1091A00020B9286800F050FB044610B12868FFF78A
:1091B000D9FF204602B0BDE8F08100002DE9F34759
:1091C0000A9F884691469A46002878D0036B866AA3
:1091D000022B76D1736D012B73D1F06C00F07AFD08
:1091E000304601A90DF1020200F070F9054630B9D0
:1091F0000B9B3848002B14BF0024044600E00024D9
:10920000F06C00F078FD002C3AD196249DB90A202C
:1092100000F0C4FDF06C00F05DFD01A90DF102024B
:10922000304600F053F90546F06C00F064FD013C57
:10923000ECD1294C24E0019B113B9F4245D80023EF
:10924000AB73EB7351463A4605F11000C5F8049034
:10925000C5F80080AF8100F023FDF06C00F03AFD0E
:1092600030462946019ABDF8023000F001F9044663
:1092700010B9F06900F09CFCF06C00F03CFD14B3F8
:109280003046294600F0F4F9326D012A1BD1134B08
:109290009C4218D10023C5F800802B736B73AA730E
:1092A000EB73C5F8049030462946019ABDF80230A8
:1092B00000F0DEF838B9F06900F07AFC03E0084805
:1092C00005E0084803E0204601E0044CD8E702B07E
:1092D000BDE8F08747F4FFFF46F4FFFF42F4FFFFCD
:1092E00044F4FFFF43F4FFFF38B5054630B131B118
:1092F000806A00F05BFA18B1056038BD38BD0846D9
:1093000038BD014618B10368986A00F0F3B9704798
:1093100030B129B151F8083C43F0004341F8083C12
:10932000704738B50C4690B189B1856AE86C00F099
:10933000D1FC2846A4F1100134F9062C34F8083C7D
:1093400000F0ADF8E86CBDE8384000F0D4BC38BDA2
:109350002DE9F04105463420884617461E4600F0A8
:1093600099FC044610B30021342200F097FC2046FB
:109370004146202200F096FC66622762A56210201A
:1093800000F088FC064628B9204600F085FC3046EF
:10939000BDE8F0810460E86C00F09CFC05F124005D
:1093A0003146FFF77CFCE86C00F0A5FC2046BDE8E8
:1093B000F08138B50446D0B1806A2146FFF75CFEE3
:1093C000054678B1A36AD86C00F084FCA06A2946EF
:1093D0002430FFF773FCA36AD86C00F08CFC28469D
:1093E00000F05AFC2046BDE8384000F055BC38BDBE
:1093F000F7B51D468B181746002203F8012C4A6A60
:1094000012F001020E46284610D0FFF735FE68B371
:109410006B6C04680BB120469847E06AFFF771FF58
:10942000204603B0BDE8F040FFF7C3BF0B6AFFF76B
:109430008FFF0446D0B102230363A96C2A464FF084
:10944000FF33FFF751FFE06280B1816821620123A1
:109450000193009733462046626AFFF7AFFE2B6CFC
:1094600023B1204603B0BDE8F040184703B0F0BD7B
:1094700010B586B0002404940594046D0291039203
:109480003CB90091224602A90123C06900F048FAC4
:1094900003E0C069194600F0FBFA06B010BD10B534
:1094A00086B0002404940594046D029103923CB9A3
:1094B0000091224602A90123806900F031FA03E0FD
:1094C0008069194600F0E4FA06B010BD38B5036DA6
:1094D00004460D46C0694BB900F069FA50B9E06A1C
:1094E000FFF796FC4FF400732B6003E011462A4609
:1094F00000F0A9FABDE8384000F0DBBBF7B505463F
:10950000C06C0E46174600F0E5FB284601A90DF198
:109510000202FFF7DBFF0446D0B1352200230271BF
:10952000282243718371C371027343733146103033
:10953000202200F0B7FB6763336A23632846214685
:10954000019ABDF80230FFF793FFE86900F030FBA5
:10955000E86C00F0D0FB03B0F0BD38B505682B6DAA
:109560006C6A012B12D18CB121680B6B63B9AB6DA6
:109570000BB1012300E002230B630B6B012B03D122
:1095800028460022FFF7BAFFA468ECE738BD10B503
:10959000046D80690B4614B900F009FA03E0114626
:1095A0001A4600F050FABDE8104000F082BB7FB5CB
:1095B00005686A6A7AB12B6D012B0CD111680A6BB0
:1095C0004AB9A86D20B10B632846FFF797FF4DE01D
:1095D00002230B634AE0E86C00F07CFB284603A9F9
:1095E0000DF10A02FFF7D3FF0446E86C00F083FB9D
:1095F000002C3BD0002323726372A372E3722846CF
:109600006168FFF74EFD002830D00368186850B13C
:10961000026B012A07D123684362022303632B6C88
:1096200083B198470EE0039AB2F5803F0AD2E289EF
:10963000D20707D42168A28900915E68DB6804F133
:109640001001B047E86C00F045FBA368002B05DA79
:10965000BDF80A302381039B6381BFE7284621467A
:10966000039ABDF80A30FFF71AFFB7E704B070BDE0
:10967000026D03461AB90846D96AFFF76BBB7047FB
:10968000F8B50F4605460024BC4210DA2E460435D4
:109690003068FFF79BFB1F2807DC326801238340FB
:1096A000134300EB4414336003E00134ECE74FF064
:1096B000FF342046F8BD0000B2EB411F15DA0C4B19
:1096C0001340002BBEBF03F1FF3363F01F030133D0
:1096D000202192FBF1F101229A4050F8213023EA37
:1096E000020340F82130002070474FF0FF307047F0
:1096F0001F00008070B50D4689680446FFF7D1FC55
:10970000064698B1E06C00F0E5FAAA68042104F17D
:109710003000FFF7D1FF04F128003146FFF7CEFA01
:10972000E06C00F0E8FA304600F0B6FA2846BDE8F2
:10973000704000F0B1BA0000B2EB411F12DA0B4BDF
:109740001340002BBEBF03F1FF3363F01F0301334F
:10975000202192FBF1F101229A4050F8213002EAD7
:10976000030070474FF0FF30704700BF1F000080BC
:10977000B2EB411F15DA0C4B1340002BBEBF03F1B7
:10978000FF3363F01F030133202192FBF1F101222B
:1097900002FA03F350F82120134340F8213000204F
:1097A00070474FF0FF3070471F0000802DE9F047F1
:1097B000054610208A4691461F4600F06BFA044683
:1097C00000283ED00021102200F068FA102000F09E
:1097D00061FA064618B9204600F05EFA20E0E86C0F
:1097E00000F078FA05F130087B1C40464FF0040188
:1097F00009D03A46FFF7A0FF48B9404604213A464F
:10980000FFF7B6FF0FE0FFF73BFF07460BE03046E0
:1098100000F042FA204600F03FFAE86C00F06BFAE4
:109820000020BDE8F087A760C4F804A0C4F80C903D
:1098300005F1280034603146FFF731FAE86C00F09A
:109840005AFA2046BDE8F08730B5036D2349244A13
:1098500087B00446012B234B234803BF0491029396
:10986000039205911CBF0292039302AA236908BFC9
:1098700005904FF0000118BF0490009201911D68FF
:109880002046022204ABA84730BB23692046DB6890
:109890009847C30708D4236DA169E569012B0FD14F
:1098A0000B4629461D460BE00123A36520460F49C0
:1098B00022463523FFF77AFF0028ECD10C480BE055
:1098C0000020FFF7CCF938B901202946FFF7C7F986
:1098D00010B92046FFF733FC07B030BDC5C9FF1FE4
:1098E000AF95FF1F5B95FF1FCBC9FF1FF193FF1FB4
:1098F00047F4FFFF10B5436DC28C0446501E5A88D2
:10990000024003EB4203998000F0D2F9626D538864
:1099100001335380B4F85E300133A4F85E3010BDDB
:109920002DE9F74FB0F8609002EB030A00EB091342
:109930000F461FFA8AFB0C999966A3F874B0044687
:10994000036D4FF000084846D04520DAFFB106010C
:10995000386801929D19009300F0ABF9009B019AC1
:109960009851002169607868A8600AF1FF3080454D
:10997000B8BF0121A9819045A8BFA989E889A4BFE2
:1099800041F00201A98108F10108BF68DCE7B4F8E1
:109990005C30A4F86000CBEB03032046A4F85C30F5
:1099A0004946FFF7A7FF002003B0BDE8F08FF8B5E8
:1099B0000F46044600283AD0856DB0F862306A88B8
:1099C0009A4235D0C68C013E1E405A1C05EBC60596
:1099D000A0F8622000F06BF9AE880FB1AB683B6075
:1099E00030012518B4F85C10B5F87420276D1144C7
:1099F0003B18013AA4F85C10A5F874209A89510725
:109A00000BD49A89D20708D5B5F87420DB89013ABE
:109A100007EB0313A5F87420F3E7B4F86020DA81AC
:109A2000A4F8606004440023A06EA366F8BDF8BDEE
:109A30000020F8BD30B1836B13B10023036383634F
:109A400000F02AB9704770B50446B0F86430406D34
:109A5000164642889A420D4618D0E18C01395A1CAC
:109A60000B4000EB4303A4F864209B882B8000F09C
:109A70001EF92B88226D1B01D05800F01CF92A8892
:109A8000236D03EB02139B68336070BD002070BD33
:109A900038B5C38C994205460FD8846D6088013B68
:109AA000034004EBC30359609A6000F001F9AA6D0A
:109AB000538801335380002038BD014838BD00BFB2
:109AC00041F4FFFF836A13F0020F18BFC26C436DAD
:109AD00017BFC18C1A8803EB4203B0F862201BBF8A
:109AE00002F1FF32521A42F001029A8008BF1A8036
:109AF000704700002DE9F8431D892D017835814616
:109B000028460F4690461E4600F0C4F8044600283A
:109B100048D02A46002100F0C1F82046414640F8CE
:109B2000049B202200F0BEF8A7847068E062089BC6
:109B30003589E363099BE584A4F85C50236472686B
:109B40003389511E01EB0311DF00043301EB4303A2
:109B5000514203EA01020E373A4422633368A36399
:109B6000236503EB0513636503EB450303440333EC
:109B700040420340A365E56400236A1E216D9342C1
:109B80004FEA03120A4402DA0133D381F5E74FF4B6
:109B90000043D3812046FFF795FF0A9B1C600020FD
:109BA000BDE8F8830148BDE8F88300BF44F4FFFF37
:109BB00010B5044600F07AF8A36AA26D13F0020F04
:109BC0000FD0E16C636D02EBC1025B889288013BB0
:109BD0009B1AB4F85E209BB29A4294BF00230123E3
:109BE00004E0138803F0010383F001031BB1236C2D
:109BF0000BB1204698470023A4F85E3010BDC36B1C
:109C000003B118477047000008B50C4A1368002BD1
:109C100005DA0B480B4A0C4B572101F011FD0133BB
:109C2000012B136008D109480021502201F07BFD6F
:109C3000BDE80840FEF7B9BF002008BD2C52002047
:109C4000E4C9FF1FC3CAFF1F4DCAFF1F30520020C7
:109C500008B50B4B1968002905DC0A480A4A0B4B6A
:109C60006C2101F0EDFC0139196039B90848502226
:109C700001F059FDBDE80840FEF799BF002008BD7E
:109C80002C520020E4C9FF1FD1C9FF1F63CAFF1F68
:109C900030520020FEF790BCFEF7EABC01F043BD55
:109CA00001F036BD02F030B802F014B870477047CA
:109CB0007047FEF778BFFEF777BF10B504460A205D
:109CC00000F036FA2060B0FA80F04009404210BD42
:109CD00000F0D0BB10B50446FEF7CAFE014648B9F5
:109CE00020464FF0FF320B4600F0F8FABDE8104076
:109CF000FEF73CBF10BD70B50546FEF7B9FE044641
:109D000048B9FEF715FF2846214622462346BDE8FE
:109D1000704000F022BA70BDFFF7CFBF08B100F06D
:109D2000A9BB704737B5002504460195FEF7A0FE94
:109D30000146204651B1294601AA00F053FB019B80
:109D40004BB1064B4FF080521A6004E04FF0FF32E7
:109D50000B4600F0C3FA03B030BD00BF04ED00E0D5
:109D600037B5002504460195FEF782FE01462046E0
:109D700059B12B46294601AA00F06BFA019B43B169
:109D8000054B4FF080521A6003E00A460B4600F084
:109D9000E4F903B030BD00BF04ED00E000F098BD71
:109DA000032810B506DD0748074A084B40F2A11109
:109DB00001F046FC064B142404FB0030C160026134
:109DC00010BD00BFE4C9FF1F9DCAFF1F78CAFF1F57
:109DD00030520020032838B50C4606D909480A4AF3
:109DE0000A4B4FF4E17101F02BFC0949142505FBE6
:109DF000001311469A605C602246BDE83840FEF7C9
:109E000041BE00BFE4C9FF1FAECAFF1F78CAFF1FD3
:109E10003052002010B5044608462146BDE81040E7
:109E2000FEF7C0BE032838B5054605DD0F48104AC9
:109E3000104B40F20D210AE00F4C142303FB0044A9
:109E4000236933B909480A4A0C4B40F2112101F049
:109E5000F7FBFEF741FE2846E1682369984728464C
:109E60006168A268BDE83840FFF7B4BFE4C9FF1FCE
:109E7000DCC9FF1F78CAFF1F305200208BCAFF1FAA
:109E800010B5044608461146002200F033F9206060
:109E9000B0FA80F04009404210BD000073B505469D
:109EA0000C461646FEF7E4FD03462146284663B1FC
:109EB00001AA002300F0CDF901280DD1019B63B167
:109EC000074B4FF080521A6007E0324600F045F928
:109ED000431E5842584100E0002002B070BD00BF50
:109EE00004ED00E073B505460C461646FEF7C0FDCE
:109EF0000346214628465BB101AA00F073FA012807
:109F00000DD1019B63B1074B4FF080521A6007E0FF
:109F1000324600F0E3F9431E5842584100E0002069
:109F200002B070BD04ED00E000F1080343604FF0A3
:109F3000FF32C36003610023826003607047002327
:109F40000361704743684B609A688A609A68516001
:109F50009960086103680133036070470A68531C05
:109F600030B501D1036907E000F108035C6825689A
:109F7000954201D82346F9E75A684A6091608B60A0
:109F80005960086103680133036030BD426881682D
:109F9000036991608268416851605A68824204BFD7
:109FA00082685A60002202611868013818607047A0
:109FB00038B51546026C044612B365B9806801F0E5
:109FC000A7FBA268236C13446268A360934217D373
:109FD0002368A36014E0C06801F09AFB236CE26878
:109FE00021685B421A448A42E2603EBF62689B1865
:109FF000E360022D04D1A36B13B1A36B013BA363F8
:10A00000A36B0133A36338BD30B5056803466DB15A
:10A01000C468026C1444C4604068844228BFDD6098
:10A020000846BDE83040D96801F072BB30BD10B5BC
:10A030000446FEF7E1F9A36C002B0CDD636A53B113
:10A0400004F1240000F0C6FC08B100F03BFDA36C55
:10A05000013BA364EFE74FF0FF33A364FEF7DEF9A3
:10A06000FEF7CAF9636C002B0CDD236953B104F1D0
:10A07000100000F0AFFC08B100F024FD636C013B60
:10A080006364EFE74FF0FF336364BDE81040FEF711
:10A09000C5B938B50D46044610B9FEF797F9FEE785
:10A0A000FEF7AAF9206CE36B2268A2604343D11843
:10A0B0001B1A13446160E36000214FF0FF33A1637A
:10A0C0006364A36455B9236983B104F1100000F0FF
:10A0D00081FC01280AD1FEF76DF907E004F11000B8
:10A0E000FFF722FF04F12400FFF71EFFFEF796F9A9
:10A0F000012038BD70B50E46054670B14C20FEF704
:10A100005BFA044648B106FB05F00130FEF754FA4D
:10A11000206028B92046FEF7ABFAFEF757F9FEE7B4
:10A12000E563266420460121FFF7B3FF204670BD9A
:10A1300010B50C4610B9FEF749F9FEE7814202D985
:10A14000FEF744F9FEE700210222FFF7D3FF08B132
:10A15000846310BDFEF73AF9FEE72DE9FF4188461A
:10A1600001921E46044610B9FEF730F9FEE721B908
:10A17000036C13B1FEF72AF9FEE7022E02D1E36B5E
:10A18000012B60D10027FEF737F9A26BE36B9A42EF
:10A1900001D3022E12D1204641463246FFF708FF76
:10A1A000636A3BB104F1240000F014FC012801D1E2
:10A1B000FEF700F9FEF732F9012047E0019D15B9DD
:10A1C000FEF72CF93DE017B902A800F03DFCFEF7C0
:10A1D00025F900F08DFAFEF70FF9636C013304BF27
:10A1E00000236364A36C013304BF0023A364FEF760
:10A1F00015F902A801A900F037FCE8B9FEF7FCF850
:10A20000A76BE56BFEF70AF9AF420FD104F110001E
:10A21000019900F0B9FB2046FFF709FF00F0F4FABE
:10A2200008B10127AFE7FEF7C5F8FAE72046FFF7C8
:10A23000FEFE00F0E9FAF4E72046FFF7F8FE00F032
:10A24000E3FA002002E0FEF7C1F8FEE704B0BDE843
:10A25000F0812DE9F0410E4690461D46044610B9A6
:10A26000FEF7B4F8FEE721B9036C13B1FEF7AEF8C0
:10A27000FEE7022D05D1E36B012B02D0FEF7A6F815
:10A28000FEE7FEF777F9FEF7A1F8A26BE36B9A42BF
:10A29000074601D3022D1AD1204631462A46FFF740
:10A2A00087FEA36C01330DD1636A73B104F12400FE
:10A2B00000F090FB48B1B8F1000F06D00124C8F8B7
:10A2C000004005E0A36C0133A364012400E00024F6
:10A2D0003846FEF79FF82046BDE8F0812DE9FF41A2
:10A2E0000E4601929846044610B9FEF76FF8FEE755
:10A2F00021B9036C002B6FD10F4630E000272EE010
:10A3000017B902A800F0A0FBFEF788F800F0F0F9FA
:10A31000FEF772F8636C013304BF00236364A36C1F
:10A32000013304BF0023A364FEF778F802A801A953
:10A3300000F09AFB002848D1FEF75EF8A56BFEF707
:10A340006DF8002D3BD104F12400019900F01CFBB5
:10A350002046FFF76CFE00F057FA68B30127FEF7BE
:10A360004BF8A36B13B320463146E568FFF74CFE6C
:10A37000B8F1000F0DD1A36B013BA36323698BB12F
:10A3800004F1100000F026FB01280BD1FEF712F8B3
:10A3900008E0636AE5602BB104F1240000F01AFBC9
:10A3A0000028F3D1FEF73AF8012018E0019D002DB6
:10A3B000A6D1FEF733F80DE0FDF7FCFFCEE720460F
:10A3C000FFF735FE00F020FAC8E72046FFF72FFE22
:10A3D00000F01AFA002002E0FDF7F8FFFEE704B0F3
:10A3E000BDE8F081F8B50E461746044610B9FDF7F2
:10A3F000EDFFFEE721B9036C13B1FDF7E7FFFEE7C0
:10A40000FEF7B8F8FDF7E2FFA36B0546CBB1204697
:10A410003146FFF7F9FDA36B013BA363636C013386
:10A420000AD123695BB104F1100000F0D3FA30B116
:10A430002FB101243C6005E0636C013363640124A7
:10A4400000E01C462846FDF7E5FF2046F8BD000069
:10A450000023074A02EBC3014968814203D100216E
:10A4600042F8331070470133082BF2D1704700BF18
:10A470008052002010B5044610B9FDF7A7FFFEE793
:10A48000FFF7E6FF206808B1FEF7F2F82046BDE8C6
:10A490001040FEF7EDB8FEE7064A13681968064B50
:10A4A00011B94FF0FF3203E01268D268D2685268E7
:10A4B0001A607047C45200206801002010B50E4B8E
:10A4C0001A6850600D4A12689042044607D20C4A3E
:10A4D00010681968BDE810400431FFF73FBD094A14
:10A4E000106819680431FFF739FD074B1A68944268
:10A4F00038BF1C6010BD00BF60530020785300209F
:10A500007C530020C4520020680100202DE9F84F40
:10A510000AAE0F4615469A4696E8400A804610B99C
:10A52000FDF754FFFEE7042E02D9FDF74FFFFEE7CB
:10A530004020FEF741F80446002800F09380BBF16C
:10A54000000F03D1A800FEF737F800E0584620635B
:10A5500018B92046FEF78CF884E005F18045013DEE
:10A5600000EB85007B1E20F0070504F1330209375C
:10A5700013F8011F02F8011F197809B1BB42F7D186
:10A580000023271D84F83D303846E662FFF7D7FCEC
:10A5900004F11800FFF7D3FCC6F105032461A361A1
:10A5A0006462284641465246FDF7E2FE2060B9F15A
:10A5B000000F01D0C9F80040FDF71EFF2B4A2C4DBB
:10A5C0001368DFF8CC90013313602B6823BB2C6039
:10A5D0001268012A28D1984609EB080008F11408EE
:10A5E000FFF7A2FCB8F1640FF6D1DFF8A8A0DFF8FE
:10A5F000A8805046FFF798FC4046FFF795FC1D48A1
:10A60000FFF792FC1C48FFF78FFC1C4BC3F800A01F
:10A610001B4BC3F8008007E01A4B1B6823B92B685B
:10A62000DB6AB34298BF2C60174A1368013313608A
:10A63000164AE36A116814208B4200FB03903946E6
:10A6400088BF1360FFF77EFCFDF7E8FE0D4B1B682B
:10A650002BB12B68DB6AB34201D2FDF7ABFE0120C0
:10A66000BDE8F88F4FF0FF30BDE8F88F845300202D
:10A67000605300206453002088530020C4520020FF
:10A680007C530020C8520020805300209C5300209F
:10A69000F8520020CC520020E052002030B585B0A6
:10A6A000002400940194029403940D480D498222E1
:10A6B0002346FFF72BFF012805460AD1FDF786FE4A
:10A6C000094B1D60094B1C6005B0BDE83040FDF72B
:10A6D00001BF10B9FDF77AFEFEE705B030BD00BF3F
:10A6E00097A4FF1FCCCAFF1FC85200207853002038
:10A6F000024A136801331360704700BF5C530020A7
:10A700002DE9F047354B1B68002B3AD1344B1A68C2
:10A7100001321A601F688FB9324B1A68126812B181
:10A72000FDF754FEFEE7304A1968106818601160A2
:10A730002E4A136801331360FFF7AEFE2C4EDFF88C
:10A74000C0803368DFF8BC909F424FF000040DD307
:10A75000244B1A68126812B94FF0FF3305E01B68EA
:10A76000DB68DD686B689F4211D23360D9F8003036
:10A77000DA6A1423534358F80330022B28BF01240C
:10A7800024E01C4A13680133136000241EE005F125
:10A79000040A5046FFF7FAFBAB6A1BB105F118003B
:10A7A000FFF7F4FB144AEB6A116814208B4200FB9C
:10A7B0000380514688BF1360FFF7C4FBD9F800300F
:10A7C000EA6ADB6A9A4228BF0124C1E70B4B1B6887
:10A7D000002B18BF01242046BDE8F0875C53002001
:10A7E00078530020C45200207C530020C052002027
:10A7F00068010020F45200209C530020A053002048
:10A80000F85200206053002038B5294C236813B952
:10A81000FDF7DCFDFEE7FDF7EFFD2368013B23605C
:10A8200023680BB100243EE0224B1B68002BF9D0BB
:10A83000214B1A6802B3DB68DC68251D04F118009F
:10A84000FFF7A4FB2846FFF7A1FB1C4AE36A116847
:10A850008B4288BF13601A4A142000FB032029464C
:10A86000FFF770FB174BE26A1B68DB6A9A4222BF54
:10A87000154B01221A60DBE7144C23687BB9124B9D
:10A880001C68012CCED1FDF795FD0CE0FFF738FFD9
:10A8900010B10D4B01221A602368013B236023682D
:10A8A000002BF3D1EBE7FDF7B9FD204638BD00BF23
:10A8B0005C53002084530020645300209C530020EC
:10A8C000F852002060530020A0530020F4520020D2
:10A8D00010B5044618B9BDE81040FDF76BBD0C4B30
:10A8E0001B6813B1FDF772FDFEE7FFF701FF094B8F
:10A8F0001B681C44084B18680430FFF747FB2046D0
:10A90000FFF7DCFDFFF780FF0028E4D010BD00BF9B
:10A910005C530020785300206053002010B5154B85
:10A920001A68154B0AB1012222E01A601349144A31
:10A93000086814235843105840B90B6813B9FDF741
:10A9400045FDFEE70B68013B0B60EFE709684B43F1
:10A95000D018083344686468446013449C4204BFC0
:10A9600063684360142303FB01225368DA68054BD4
:10A970001A6010BD5C530020A05300209C5300209F
:10A98000F85200206053002038B50D4610B9FDF78D
:10A990001DFDFEE70C4C21681831FFF7DFFA206837
:10A9A0000430FFF7F3FA6B1C06D121680748043125
:10A9B000BDE83840FFF7C6BA054B18682844BDE823
:10A9C0003840FFF77BBD00BF605300208853002054
:10A9D0007853002038B5C368DC6814B9FDF7F6FC7D
:10A9E000FEE704F118052846FFF7D0FA104B1B6864
:10A9F00073B9251D2846FFF7C9FA0E4AE36A1168A4
:10AA00008B4288BF13600C4A142000FB032000E037
:10AA10000A482946FFF796FA094BE26A1B68DB6A87
:10AA20009A4283BF074B01201860002038BD00BF49
:10AA30005C5300209C530020F852002064530020F7
:10AA400060530020A053002008B510B9FDF7BEFCEC
:10AA5000FEE7034B1B680360024B1B68436008BDA5
:10AA6000C05200207853002038B50D46044610B976
:10AA7000FDF7ACFCFEE711B9FDF7A8FCFEE7FDF71A
:10AA8000BBFC0E4B19682B685A1C10D00C4A10687E
:10AA900022689042626801D091420AD2881A984294
:10AAA00007D2521A13442B602046FFF7CDFF002433
:10AAB00000E00124FDF7B2FC204638BD78530020A9
:10AAC000C0520020014B01221A607047A0530020A1
:10AAD000D0F8B030DB0309D4054B0648D3F8B030CA
:10AAE00013F0010F044B18BF184670470348704716
:10AAF0000000363000389C1C00A4781F00366E0120
:10AB000008B502B12BB90748074A084B3D2100F0B0
:10AB100097FD0868C0F3024010600A6802F03F0227
:10AB20001A6008BDD1CAFF1F36CBFF1F2ACBFF1FFB
:10AB300010B5072B029804D90D480E4A0E4B4B2135
:10AB400005E03F2805D90A480A4A0C4B4C2100F081
:10AB500077FD120602F0E0620C68024308481B040D
:10AB60002040024303F4E02313430B6010BD00BFF9
:10AB7000D1CAFF1F49CBFF1F18CBFF1F20CBFF1FE0
:10AB8000C0FFF8F813B5084B8DF807001A783AB1F2
:10AB900058689C680DF107010122A047002001E0E0
:10ABA0004FF0FF3002B010BDA453002070B5054631
:10ABB0000C468E18B4420AD028464FF4180100F013
:10ABC00001FD0028F8D02B6804F8013BF2E770BDC6
:10ABD00070B505460C468E18B4420FD014F8013BF0
:10ABE0002B642846064900F0EDFC0028F9D02846E1
:10ABF000044900F0E7FC0028F9D0EDE770BD00BF84
:10AC00000E0098000300980030B5114D2C7887B0E5
:10AC1000D4B920238DE806000293694606236860B4
:10AC200005930394049400F099FC6A68D2F880308C
:10AC300043F00103C2F88030064BAB60064BEB607B
:10AC400001232B70204600E0032007B030BD00BF79
:10AC5000A4530020D1ABFF1FADABFF1F38B5144686
:10AC600051B10138012807D8054B187820B1586830
:10AC70009D68A847204638BD4FF0FF3038BD00BF63
:10AC8000A453002038B5144638B9054B187820B1C4
:10AC90005868DD68A847204638BD4FF0FF3038BD02
:10ACA000A45300200FB41FB50A4B1B7853B107AB58
:10ACB000039300930849069B4FF0FF32002000F0F9
:10ACC00059F801E04FF0FF3005B05DF804EB04B037
:10ACD000704700BFA453002085ABFF1F70B5002450
:10ACE0009DF810600470B2B10A681AB9302343703D
:10ACF000012128E0044692FBF3F503FB1522002A0C
:10AD0000B4BFC2F13002303204F8012F2A46211AB2
:10AD1000002DF0D117E00A68002AE7D00446B2FB04
:10AD2000F3F503FB1522092A01D8303205E0002E85
:10AD300014BF412161210A3A0A4404F8012F2A462E
:10AD4000211A002DEBD1084670BD2DE9F041069D7A
:10AD500080460C4617461E46BC4208DA07995FFA41
:10AD600088F0A8473168013131600134F4E7BDE86B
:10AD7000F08100002DE9F04F93B09A46002306932E
:10AD8000A94B1C9C0392B2F1FF3F18BF1346064625
:10AD90000F4604939AF80000002800F0CC81252883
:10ADA00040F0BF81534600255A782B2A03F1010158
:10ADB00002D145F0020504E005D92D2A0DD145F058
:10ADC00001050B46F0E7202A02D145F00405F8E71B
:10ADD000232A07D145F01005F3E7302A02D145F0C8
:10ADE0000805EEE74FF000085A78A2F13000092874
:10ADF00003F1010106D80A2303FB0828A8F1300853
:10AE00000B46F1E72E2A05D10B4601315A78303A2C
:10AE1000092AF9D95A78682A04D06C2A05D04C2A14
:10AE200009D107E09A78682A01E09A786C2A01D162
:10AE3000023300E00133587803F1010AA0F158030E
:10AE4000202B00F26E81DFE813F068006C016C01CA
:10AE50006C016C016C016C016C016C016C01E40013
:10AE6000360121006C016C016C016C0121006C0148
:10AE70006C016C016C016601D900F1006C016C0180
:10AE80003F016C01FC006C016C01650023680793B5
:10AE900001220A23009209A807A9FFF71FFF09ABA7
:10AEA00003440293079B002B04F10409044603DAD0
:10AEB00001344FF02D0B0BE0AB0703D501344FF0FD
:10AEC0002B0B05E015F0040B1CBF01344FF0200BD9
:10AED00028070AD5BBF1000F00F0C580584631465F
:10AEE000B847069B01330693BDE0E90707D40097F6
:10AEF000019620202146424606ABFFF726FFBBF114
:10AF0000000F00F0B98058463146B847069B013320
:10AF10000693B1E04FF0000B01E04FF0010B236806
:10AF20000893CDF800B0102309A808A90022FFF764
:10AF3000D5FE09AB0344029315F0080304F104099C
:10AF400005F0100C04461FD0BCF1000F0ED03146A6
:10AF50003020B847BBF1000F14BF5820782031468D
:10AF6000B847069B023306934FF0010C2146009729
:10AF700001963020424606ABCDF814C04446FFF798
:10AF8000E4FEDDF814C025E0EA0722D4BCF1000F8E
:10AF900000D002340097019620202146424606AB9D
:10AFA000CDF814C0FFF7D1FEDDF814C0BCF1000FDE
:10AFB00010D031463020B847BBF1000F14BF5820E5
:10AFC00078203146B847069B023306934FF0010CB8
:10AFD00000E09C46E8064FD5BCF1000F4CD131464D
:10AFE0003020B847BBF1000F14BF582078203146FD
:10AFF000B847069B0233069302343DE0236808936A
:10B000000123009304F1040909A808A900220823D8
:10B0100021E0236808930123009304F1040909A89F
:10B0200008A90022022316E0FEFFFF7F6368089351
:10B030000123009304F1080909A808A9002210239C
:10B0400009E0236808930123009304F1040909A887
:10B0500008A900220A23FFF741FE09AB0344290790
:10B06000044602930CD521460097019630204246B3
:10B0700006ABFFF76AFE4446029B03F1010B0AE0B0
:10B08000EA07F9D40097019620202146424606ABF4
:10B09000FFF75BFEF0E71BF8010D28B13146B8471A
:10B0A000069B01330693F6E7EB0740D50097019620
:10B0B000202021462AE020783146B847069B0133FC
:10B0C00004F10409069332E004F10409246874B31E
:10B0D000204600F0F7FD15F00105834607D10097E3
:10B0E000019620205946424606ABFFF72EFE013C52
:10B0F00014F8010F28B13146B847069B0133069377
:10B10000F6E7A5B10097019620205946424606ABC6
:10B11000FFF71BFE0BE02368069A1A6004F104098E
:10B1200005E03146B847069B01330693A1460AF174
:10B13000010A4C462EE6049B0BB1069800E00398EA
:10B1400013B0BDE8F08F00BF2C4AD2F8883043F42A
:10B150007003C2F8883048F28003294A4FF08851C2
:10B16000D150BFF35F8F274B2749284800225A60F0
:10B170009A60DA601961012199604FF0C041D9608D
:10B180001861022098602248D86022481861032084
:10B190009860D96004202049196198604FF0004000
:10B1A000D8601961062005219960DA601A619860FB
:10B1B0000720DA601A619860DA601A615960BFF39B
:10B1C0004F8FBFF36F8F154B4FF0A062C3F800286D
:10B1D000D3F8002842F00042C3F80028D3F8002832
:10B1E000002AFBDB0D4B0322C3F80028BFF34F8F6F
:10B1F000BFF36F8F014B0A4A9A60704700ED00E081
:10B200000000383090ED00E03B0008033D000803EB
:10B210000000202021000B0329000B03002008E080
:10B220000080FF1F1B4B984217D003F580339842D4
:10B2300022D0A3F5F81398422AD1A3F5AC0300223B
:10B24000C3F83021C3F834217822C3F8A023C3F80F
:10B25000A4230222C3F8FC2670470F4B0122C3F837
:10B260006021C3F864217822C3F8D023C3F8D42323
:10B270000022C3F814277047074B03225A659A65CA
:10B280007922C3F8C422C3F8C8220022C3F81C27BD
:10B29000704700BF0000A7300000333013B5002412
:10B2A00022462346009414481449FFF741FC144BEE
:10B2B00014494FF080521A60134A41F211130C20C6
:10B2C0000B60C2F828041148028922F0010212041E
:10B2D000120C02810E4A0C601360136202F5615277
:10B2E000136013611362C2F8E039C2F8F03902F555
:10B2F000E072136002B010BD0000383080BB3830FF
:10B3000084BB3830E049383000003D3000002A303E
:10B310006008383013B5124B12491348134C0C22F5
:10B32000C3F82025002200921346FFF701FC104BC2
:10B330004FF080521A60A3F5D043743B43F233328E
:10B340001A602046FFF76EFF204600F01BF84FF40E
:10B35000E1320146204602B0BDE81040FFF754BC80
:10B3600000003D3000B23830000038300000A83016
:10B3700004B23830024B0122C3F80422704700BFE8
:10B3800000003D30194B984213B509D003F58033C6
:10B39000984207D0A3F5F813984224D1144902E04B
:10B3A000144900E014490C681448C4F302646A4666
:10B3B00001ABFFF7A5FB012C06D00AD3042C12D158
:10B3C0000F48FFF785FB05E00D48FFF781FB4008BC
:10B3D00000E00C48009B0133B0FBF3F0019B01330C
:10B3E000B0FBF3F000E0002002B010BD0000A73079
:10B3F00000B0383080B1383000B23830000038301A
:10B400000000363000366E0108B5FFF7B3FFFFF7D6
:10B4100045FFFFF77FFF064B0C22C3F82C25A3F551
:10B420009723A3F5B26341F211121A6008BD00BF61
:10B4300000003D30D0F8803023F00103C0F88030A8
:10B4400001220023C0F88030C0F884204FF4E0626D
:10B45000C0F888204FF40042C0F88C2040F601026A
:10B46000C0F890202B22C0F89C206022C0F8A030A9
:10B47000C0F8B030C0F8B420C0F8B830D0F884308C
:10B4800023F00103C0F88430D0F88430DB07FBD50B
:10B49000704700001201F0B513460D4601243BB180
:10B4A000B5FBF3F603FB16561C461D463346F6E77E
:10B4B000B1FBF4F3B2FBF4F2264CA34202D8B2F58E
:10B4C000803F14D3561E4FF6FF77B6FBF7F75E1E8C
:10B4D0000137B6FBF4F56C1CBC4238BF3C46B3FBED
:10B4E000F4F3B2FBF4F273B1002A08BF01224FF665
:10B4F000FF755C1EB4FBF5F4651C013C052C06D8F9
:10B50000154E345D04E01ABB01221546134605248E
:10B51000D0F8906026F46076C0F89060D0F8906023
:10B52000E40104F46074013A92B23443C0F89040EC
:10B53000C0F8A420B3FBF5F2013A92B24FF47A734B
:10B54000C0F8A8206B43B1FBF3F1C0F8B010F0BD18
:10B550000123CCE7F9FF06009BCCFF1F38B5054659
:10B560000C4629B91448154A154B312100F068F8EA
:10B57000D0F8803023F00103C0F88030FFF75AFF85
:10B58000D5F88420A3681343E26843F4804313434F
:10B590002269134362691A43C5F88420D5F88830BC
:10B5A00043F00403C5F88830284694E80600BDE857
:10B5B0003840FFF76FBF00BF58CBFF1FA1CCFF1F64
:10B5C0009ECBFF1F0B0C89B2C058C84000F0010091
:10B5D00070470000032910B505D90748074A084BF2
:10B5E0003D2100F02DF84FF40003CB40046A2342C4
:10B5F000FCD040F8212010BDC7CCFF1FABCCFF1FF3
:10B600000BCDFF1F032910B505D90A480A4A0B4B79
:10B610004C2100F015F8046A4FF00063CB40234240
:10B620001FBF043150F821301360002008BF0220F2
:10B6300010BD00BFC7CCFF1FB6CCFF1F22CDFF1F20
:10B640001FB5054608480068C06812B9074C224675
:10B6500000E0074C02928DE812001A4605492B467D
:10B6600000F01EF800F022FCCC01002051C6FF1FA4
:10B6700039CDFF1F46CDFF1F08B5074B044613B158
:10B680000021AFF30080054B1868836A03B1984727
:10B69000204600F0BFFF00BF0000000078CDFF1F74
:10B6A0000EB403B5014603AB054853F8042B0068FC
:10B6B000019300F069F802B05DF804EB03B0704745
:10B6C000CC01002070B50E4B0E4CE41AA4100025DE
:10B6D0001E46A54204D056F8253098470135F8E7B4
:10B6E00001F096FB084C094BE41AA41000251E46F5
:10B6F000A54204D056F8253098470135F8E770BDCB
:10B7000030CEFF1F30CEFF1F34CEFF1F30CEFF1FC5
:10B7100010B5431E0A44914204D011F8014B03F8BE
:10B72000014FF8E710BD02440346934202D003F8EC
:10B73000011BFAE770479368013B002B10B593603B
:10B7400009DA9469A34202DBCBB20A2B03D1BDE82C
:10B75000104000F0EBBA1368581C10601970C8B2A2
:10B7600010BDF8B506460F461446D518AC4208D0B1
:10B77000304614F8011B3A46FFF7DDFF431CF5D1B4
:10B7800000E00020F8BD00002DE9F0439DB00D461B
:10B7900090460393064618B183690BB900F07CFC10
:10B7A000754B9D4201D1756808E0744B9D4201D1F3
:10B7B000B56803E0724B9D4208BFF568AB891C0772
:10B7C0000AD52B6943B10023099320238DF8293032
:10B7D00030238DF82A3041E03046294600F0FAFA4D
:10B7E0000028F0D04FF0FF30C2E0039A111D12681C
:10B7F0000391002ABBBF524243F002030792079213
:10B80000B8BF0493013423782E2B7BD0DFF88081DE
:10B8100021784046032200F015FD38B1049AC8EBA8
:10B82000000040238340134304930134217855489A
:10B830008DF82810062204F1010800F003FD00280D
:10B8400000F08580504B002B78D1039B073323F009
:10B85000070308330393099B3B44099343461C4663
:10B8600013F8012B1AB9B4EB08090ED002E0252A0F
:10B87000F5D1F8E73046294642464B46FFF771FFBF
:10B88000013070D0099B4B4409932378002B6AD078
:10B8900000234FF0FF3204930793059206938DF82F
:10B8A00053301A9304F101084446DFF8E8902178F8
:10B8B0004846052200F0C6FC08F10108049B30B19F
:10B8C000C9EB00000122824013430493ECE7D80641
:10B8D00044BF20228DF85320190744BF2B228DF836
:10B8E000532022782A2A80D0079923461C46013308
:10B8F0002278303A092A03D80A2000FB0121F5E713
:10B90000079180E763782A2B0AD1039B1A1D1B68D5
:10B910000392002BB8BF4FF0FF330234059375E755
:10B92000611C00220C4601312378303B092B03D8DF
:10B930000A2000FB0232F5E7059267E703AB0093AC
:10B94000304604A92A46114BAFF3008007E003AB51
:10B950000093304604A92A460C4B00F093F8421C91
:10B9600007467FF478AFAB895B063FF53BAF09989C
:10B970001DB0BDE8F08300BFB0CDFF1FD0CDFF1FCD
:10B98000F0CDFF1F86CDFF1F0000000063B7FF1F33
:10B9900082CDFF1F7CCDFF1F2DE9F84391461F4646
:10B9A0008A680B69DDF820809342B8BF1346C9F856
:10B9B000003091F8432006460C4612B10133C9F815
:10B9C00000302368990642BFD9F800300233C9F825
:10B9D0000030256815F006051CD094F84330226825
:10B9E000003318BF012392061FD5E1185A1C3020DE
:10B9F00081F84300224494F8451082F84310023342
:10BA000013E03046394604F119020123C0470130E2
:10BA100007D00135E368D9F800209B1A9D42F0DB7E
:10BA2000DBE74FF0FF30BDE8F8833046394604F1DC
:10BA30004302C0470130F4D02268D9F80050E368CF
:10BA400002F00602042A08BF5D1B2269A3680CBF2E
:10BA500025EAE57500259342C4BF9B1AED184FF007
:10BA60000009A9450ADA3046394604F11A020123D1
:10BA7000C0470130D5D009F10109F2E70020BDE847
:10BA8000F88300002DE9FF410C461746227E6E2AFE
:10BA9000984606460A9B01F1430100F0AF8012D898
:10BAA000632A23D00AD8002A00F0BC80582A40F02C
:10BAB000CB8084F84520DFF804E257E0642A1ED0EA
:10BAC000692A1CD0C0E0732A00F0B08009D86F2A20
:10BAD0002ED0702A40F0B880226842F02002226006
:10BAE0003FE0752A24D0782A3BD0ADE01A68111DBA
:10BAF0001960136884F8423004F14205A8E0206818
:10BB00001A6810F0800F02D0101D186008E010F0C5
:10BB1000400F02F10400186002D0B2F9003000E0DA
:10BB20001368002B3EDA2D225B4284F8432039E073
:10BB300020681A6810F0800F02D0101D186007E00E
:10BB400010F0400F02F10400186001D0138800E0EB
:10BB50001368227EDFF864E16F2A0CBF08220A22F4
:10BB60001CE07822DFF858E184F845202268186844
:10BB700012F0800F00F104051D6003D1550601D5B8
:10BB8000038800E00368D00744BF42F0200222602F
:10BB90001BB9226822F0200222601022002084F8C3
:10BBA000430002E0DFF814E10A226568A560002D79
:10BBB000A2BF206820F00400206003B965B10D46E3
:10BBC000B3FBF2F002FB10331EF8033005F8013D21
:10BBD00003460028F4D100E00D46082A0BD1236863
:10BBE000DA0708D5236962689A42DEBF302305F878
:10BBF000013C05F1FF35491B21612EE025681A68DB
:10BC0000606915F0800F03D0151D1D60136808E0F2
:10BC100015F0400F02F104051D60136801D0188073
:10BC200000E01860002323610D4616E01A68111D1C
:10BC30001960156862682846002100F003FB08B10E
:10BC4000401B6060636804E004F1420584F8422010
:10BC500001232361002384F84330CDF8008030466F
:10BC6000214603AA3B46FFF797FE013002D14FF071
:10BC7000FF301FE0304639462A462369C04701306D
:10BC8000F5D023689B0705D4E068039B9842B8BFB2
:10BC900018460FE00025E368039A9B1A9D42F3DAE9
:10BCA0003046394604F119020123C0470130DED085
:10BCB0000135F0E704B0BDE8F08100BF8DCDFF1F76
:10BCC0009ECDFF1F034613F8012B002AFBD1181A43
:10BCD0000138704770B5AAB1451E01396B7811F86B
:10BCE000014FA34205F1010606D16FF00104641B68
:10BCF0001444E04202D11C46181B70BD3546002B8F
:10BD0000ECD1F8E7104670BD10B5034632B111F81A
:10BD1000014B03F8014B013A002CF7D11A4493422E
:10BD200003D0002103F8011BF9E710BD70B50D46E3
:10BD30001446064618B183690BB900F0ADF9224BE1
:10BD40009C4201D1746808E0204B9C4201D1B46848
:10BD500003E01F4B9C4208BFF468A369A360A3895A
:10BD60001A0709D523693BB123682069181A63694A
:10BD70009842EDB20FDB08E03046214600F02AF889
:10BD80000028F1D04FF0FF3070BD3046214600F062
:10BD900019F90028F6D1A368013BA36023685A1C57
:10BDA00022601D7063690130984204D0A389DB07CB
:10BDB00007D50A2D05D13046214600F003F90028A9
:10BDC000E0D1284670BD00BFB0CDFF1FD0CDFF1F12
:10BDD000F0CDFF1F314B70B51D6806460C4625B1EE
:10BDE000AB6913B9284600F057F92D4B9C4201D19D
:10BDF0006C6808E02B4B9C4201D1AC6803E02A4BF5
:10BE00009C4208BFEC68A3899AB211071DD4D506DD
:10BE100002D40922326038E0500712D5616B41B17B
:10BE200004F14403994202D0304600F01BFA00238B
:10BE30006363A38923F02403A38100236360236940
:10BE40002360A38943F00803A38123694BB9A38925
:10BE500003F42073B3F5007F03D03046214600F091
:10BE6000A3F9A38913F0010205D00022A260626940
:10BE70005242A26103E0990758BF6269A260226939
:10BE80004AB903F0800080B230B143F04003A3818F
:10BE90004FF0FF3070BD002070BD00BFCC0100200E
:10BEA000B0CDFF1FD0CDFF1FF0CDFF1F08B506207E
:10BEB00000F0AAFA012000F0ADFB8A892DE9F041DB
:10BEC000054610070C4657D44B68002B02DC0B6C60
:10BED000002B18DDE66AB6B102F48052002392B25C
:10BEE0002F682B600AB1626D10E0216A2846012399
:10BEF000B047411C024609D12B683BB11D2B01D034
:10BF0000162B47D12F600020BDE8F081A3895B0785
:10BF100005D56368D21A636B0BB1236CD21AE66A3B
:10BF2000216A00232846B047461CA38905D12A6808
:10BF30001AB11D2A01D0162A19D100226260D90433
:10BF40002269226004D5421C01D12B6803B96065C7
:10BF5000616B2F600029D6D004F14403994202D0CE
:10BF6000284600F07FF900206063BDE8F08143F0CF
:10BF70004003A381BDE8F0810F69002FC3D0930770
:10BF80000E6808BF4B690F6018BF0023C7EB060897
:10BF90008B6012E0A38943F04003A3814FF0FF3090
:10BFA000BDE8F0812846216AA66A3A464346B04772
:10BFB0000028EFDD0744C0EB0808B8F1000FF1DC02
:10BFC000A1E7000038B50B6905460C46DBB118B196
:10BFD00083690BB900F060F80C4B9C4201D16C688E
:10BFE00008E00B4B9C4201D1AC6803E0094B9C423A
:10BFF00008BFEC68B4F90C302BB128462146BDE8E7
:10C000003840FFF75ABF002038BD00BFB0CDFF1F3A
:10C01000D0CDFF1FF0CDFF1F014900F0A7B800BF32
:10C02000C5BFFF1F002310B5044603604360836053
:10C0300081814366C28103614361836119465C303B
:10C040000822FFF770FB054B6362054BA362054BAB
:10C05000E362054B2462236310BD00BF41C4FF1F90
:10C0600063C4FF1F9BC4FF1FBFC4FF1F70B56823BD
:10C070004D1E5D430E4605F1740100F037F904468C
:10C0800040B1002180E842000C30A06005F1680258
:10C09000FFF749FB204670BD836910B5044633BBEA
:10C0A0008364C3640365124B124A1B688262984220
:10C0B00004BF0123836100F01FF86060204600F098
:10C0C0001BF8A060204600F017F80421E060002271
:10C0D0006068FFF7A7FFA06809210122FFF7A2FF10
:10C0E000E06812210222FFF79DFF0123A36110BD2A
:10C0F00078CDFF1F19C0FF1FF8B51B4B1E68B36931
:10C10000074613B93046FFF7C7FF4836B46873686F
:10C11000013B04D4B4F90C5075B16834F8E73368C6
:10C120002BB938460421FFF7A1FF306008B136680B
:10C13000ECE70C233B60F8BD4FF6FF73E38101236E
:10C14000A38165662560A560656025616561A5615F
:10C1500004F15C0029460822FFF7E5FA6563A56350
:10C16000A564E5642046F8BD78CDFF1F2DE9F843AE
:10C170008046894600F14804002694B1A5686768A6
:10C18000013F0CD4AB89012B07D9B5F90E3001332F
:10C1900003D040462946C84706436835F0E724687F
:10C1A000EBE73046BDE8F883F0B58B899D0791B089
:10C1B00006460C4626D4B1F90E10002909DAA389E7
:10C1C00013F0800F4FF0000514BF40274FF4806735
:10C1D0000DE001AA00F09AF90028F0DB029D05F4B9
:10C1E0007045A5F500514D424D414FF480673046F2
:10C1F000394600F07BF860B9A3899A051DD443F055
:10C200000203A38104F147032360236101236361D7
:10C2100013E00B4BB362A389206043F08003A3813A
:10C22000206167614DB13046B4F90E1000F080F91D
:10C2300018B1A38943F00103A38111B0F0BD00BF81
:10C2400019C0FF1F10B5C9B202449042034606D080
:10C250001C788C4200F10100F7D1184610BD002077
:10C2600010BD000030B500293DD051F8042C0B1F43
:10C270001D49002AB8BF9B180A680C4612B95A60BB
:10C280000B6030BD93420DD219685818904201BF1F
:10C290005A5852181A6042685A60236030BD994259
:10C2A00003D80A4651680029F9D1146815199D422E
:10C2B0000AD11B682344D0188842136013D1086840
:10C2C000034413604B680DE002D90C23036030BDBA
:10C2D0001C681819884204BF08684968596004BF7F
:10C2E00000191860536030BDB853002070B5CC1CE5
:10C2F00024F0030408340C2C38BF0C24002C064610
:10C3000003DA0C233360002070BD8C42F9D3204A3D
:10C31000136810461946A1B10A68121B0ED40B2AE5
:10C3200003D90A608B188C501FE08B420DBF5A68EE
:10C330004A685A60026018BF0B4616E00B4649680F
:10C34000E9E7144D2B681BB9304600F025F828604A
:10C350003046214600F020F8421C0346D1D0C51CCF
:10C3600025F0030585420AD11C6003F10B001A1D5C
:10C3700020F00700821A0AD05142995070BD304611
:10C38000E91A00F009F80130BBD02B46ECE770BD8C
:10C39000B8530020B453002038B5064C002305469E
:10C3A0000846236000F028F9431C02D1236803B13A
:10C3B0002B6038BDC05300201F2938B504460D46F8
:10C3C00004D9162303604FF0FF3038BD426C12B120
:10C3D00052F821304BB9204600F030F82A46014689
:10C3E0002046BDE8384000F017B8012B0AD0591C90
:10C3F00003D116230360012038BD002442F82540F4
:10C4000028469847002038BD024B01461868FFF7C0
:10C41000D3BF00BFCC01002038B5074C0023054630
:10C4200008461146236000F0D7F8431C02D1236868
:10C4300003B12B6038BD00BFC053002000F0BCB872
:10C4400010B50C46B1F90E1000F094F80028ABBFFF
:10C45000636DA3891B1823F48053ACBF6365A3816C
:10C4600010BD2DE9F0411D468B89DB0507460C46C2
:10C47000164605D5B1F90E100022022300F068F827
:10C48000A389B4F90E1023F48053A38138463246B1
:10C490002B46BDE8F04100F017B810B50C46B1F9D5
:10C4A0000E1000F055F8431CA38915BF606523F4F6
:10C4B000805343F48053A38118BFA38110BDB1F909
:10C4C0000E1000F013B8000038B5074C05460020E8
:10C4D0002060084611461A46FEF7C0FB431C02D1F5
:10C4E000236803B12B6038BDC053002038B5064C1B
:10C4F000002305460846236000F04EF8431C02D195
:10C50000236803B12B6038BDC053002038B5074CF9
:10C510000023054608461146236000F045F8431CF9
:10C5200002D1236803B12B6038BD00BFC053002087
:10C5300038B5064C002305460846236000F044F851
:10C54000431C02D1236803B12B6038BDC0530020C7
:10C5500038B5074C054600202060084611461A46AB
:10C5600000F042F8431C02D1236803B12B6038BDB0
:10C57000C053002038B5074C05460020206008460F
:10C5800011461A46FEF77EFB431C02D1236803B115
:10C590002B6038BDC0530020024B58221A604FF068
:10C5A000FF307047C0530020024B58221A604FF0F2
:10C5B000FF307047C0530020024B58221A604FF0E2
:10C5C000FF307047C0530020024B58221A600020F1
:10C5D000704700BFC0530020024B58221A604FF032
:10C5E000FF307047C0530020024B58221A604FF0B2
:10C5F000FF307047C0530020044A05491368002BE0
:10C6000008BF0B461844106018467047BC53002002
:10C61000C8530020FEE700BF50696E67506F6E6719
:10C620005461736B000D0A52504D53472050696E90
:10C6300067506F6E67204672656552544F532052A3
:10C64000544F53204150492044656D6F2E2E2E0DBE
:10C650000A0052504D534720496E6974206173207F
:10C6600052656D6F74650D0A002F686F6D652F6ED2
:10C6700065756265726672616E2F70726F6A65634E
:10C6800074732F6672656572746F732D746E2F6587
:10C6900078616D706C65732F696D7837645F706950
:10C6A000636F5F6D342F64656D6F5F617070732FA2
:10C6B00072706D73672F70696E67706F6E675F66FB
:10C6C00072656572746F732F70696E67706F6E67D5
:10C6D0005F6672656572746F732E630030203D3D36
:10C6E00020726573756C74004E616D6520736572A0
:10C6F000766963652068616E647368616B65206943
:10C700007320646F6E652C204D3420686173207334
:10C710006574757020612072706D73672063686145
:10C720006E6E656C205B2564202D2D2D3E202564CA
:10C730005D0D0A0047657420446174612046726F84
:10C740006D204D61737465722053696465203A20D1
:10C7500025640D0A0050696E6720506F6E67205483
:10C7600061736B0072706D73675F6368616E6E6595
:10C770006C5F637265617465645F72746F73002FC0
:10C78000686F6D652F6E65756265726672616E2F7A
:10C7900070726F6A656374732F6672656572746F09
:10C7A000732D746E2F6D6964646C65776172652F8B
:10C7B0006D756C7469636F72652F6F70656E2D6136
:10C7C0006D702F72706D73672F72706D73675F720B
:10C7D000746F732E630072705F63686E6C007072AA
:10C7E00069760072705F63686E6C20262620727016
:10C7F0005F63686E6C2D3E72705F65707400646577
:10C800006661756C745F71007264657620213D20ED
:10C810004E554C4C0072706D73675F6368616E6E4D
:10C82000656C5F64656C657465645F72746F7300DA
:10C8300072706D73675F726561645F72746F735F4E
:10C84000636200706C6174666F726D5F696E7465AF
:10C8500072727570745F656E61626C65002F686FCF
:10C860006D652F6E65756265726672616E2F70728E
:10C870006F6A656374732F6672656572746F732D6A
:10C88000746E2F6D6964646C65776172652F6D7568
:10C890006C7469636F72652F6F70656E2D616D705A
:10C8A0002F706F7274696E672F696D7837645F6D72
:10C8B000342F706C6174666F726D2E6300766563E1
:10C8C000746F725F6964203C20504C4154464F5253
:10C8D0004D5F44495341424C455F434F554E54458B
:10C8E00052530030203C2064697361626C655F6361
:10C8F0006F756E746572735B766563746F725F6972
:10C90000645D0030203C3D2064697361626C655F4A
:10C91000636F756E746572735B766563746F725F57
:10C9200069645D0030203C2064697361626C655FFE
:10C93000636F756E7465725F616C6C0030203C3D96
:10C940002064697361626C655F636F756E74657294
:10C950005F616C6C00706C6174666F726D5F696EA4
:10C96000746572727570745F64697361626C65007E
:10C97000706C6174666F726D5F696E7465727275EA
:10C9800070745F64697361626C655F616C6C007088
:10C990006C6174666F726D5F696E746572727570CA
:10C9A000745F656E61626C655F616C6C005F626F85
:10C9B0006F745F637075005F73687574646F776E12
:10C9C0005F6370750074785F76710072785F76715E
:10C9D00000656E765F6465696E697400656E765F8A
:10C9E000697372002F686F6D652F6E657562657271
:10C9F0006672616E2F70726F6A656374732F6672F0
:10CA0000656572746F732D746E2F6D6964646C65E7
:10CA1000776172652F6D756C7469636F72652F6FC6
:10CA200070656E2D616D702F706F7274696E672FF7
:10CA3000656E762F6672656572746F732F72706D96
:10CA400073675F706F7274696E672E6300656E76D0
:10CA50005F696E69745F636F756E746572203E3DC9
:10CA6000203000656E765F696E69745F636F756E06
:10CA7000746572203E203000766563746F72203CCE
:10CA8000204953525F434F554E54004E554C4C2055
:10CA9000213D20696E666F2D3E69737200656E766A
:10CAA0005F72656769737465725F69737200656E42
:10CAB000765F656E61626C655F696E7465727275D2
:10CAC000707400656E765F696E69740049444C4508
:10CAD000002F686F6D652F6E657562657266726195
:10CAE0006E2F70726F6A656374732F6672656572FC
:10CAF000746F732D746E2F706C6174666F726D2F0E
:10CB0000647269766572732F7372632F63636D5FEE
:10CB1000696D7837642E6300707265203C203800A0
:10CB2000706F7374203C20363400707265202626A6
:10CB300020706F73740043434D5F476574526F6F8D
:10CB400074446976696465720043434D5F5570644F
:10CB5000617465526F6F74002F686F6D652F6E651D
:10CB6000756265726672616E2F70726F6A6563744A
:10CB7000732F6672656572746F732D746E2F706C8F
:10CB80006174666F726D2F647269766572732F734C
:10CB900072632F756172745F696D782E6300696EC0
:10CBA0006974436F6E6669670028646972656374AF
:10CBB000696F6E20262075617274446972656374B2
:10CBC000696F6E547829207C7C20286469726563C3
:10CBD00074696F6E20262075617274446972656392
:10CBE00074696F6E5278290028756172744D6F6494
:10CBF000656D4D6F646544636520262075617274B0
:10CC00004D6F64656D4D6F646544636529207C7C60
:10CC10002028756172744D6F64656D4D6F64654455
:10CC20006365202620756172744D6F64656D4D6F6C
:10CC30006465447465290064617461203C3D203062
:10CC4000783146460028766F7465436C6F636B20BD
:10CC50003D3D207561727449726461566F7465431D
:10CC60006C6F636B53616D706C696E6729207C7C9F
:10CC70002028766F7465436C6F636B203D3D207593
:10CC800061727449726461566F7465436C6F636B53
:10CC90005265666572656E636529000403020100D2
:10CCA00006554152545F496E6974004D555F536596
:10CCB0006E644D7367004D555F54727952656365BC
:10CCC0006976654D7367002F686F6D652F6E6575AA
:10CCD0006265726672616E2F70726F6A65637473DB
:10CCE0002F6672656572746F732D746E2F706C6130
:10CCF00074666F726D2F647269766572732F7372CA
:10CD0000632F6D755F696D782E6300726567496E7C
:10CD1000646578203C204D555F54525F434F554E1B
:10CD20005400726567496E646578203C204D555FFC
:10CD300052525F434F554E54002C2066756E6374FB
:10CD4000696F6E3A2000617373657274696F6E204B
:10CD500022257322206661696C65643A2066696CDD
:10CD60006520222573222C206C696E6520256425A0
:10CD70007325730A004300006C010020232D302B23
:10CD80002000686C4C0065666745464700303132CC
:10CD90003334353637383941424344454600303123
:10CDA0003233343536373839616263646566000082
:10CDB0000000000000000000000000000000000073
:10CDC0000000000000000000000000000000000063
:10CDD0000000000000000000000000000000000053
:10CDE0000000000000000000000000000000000043
:10CDF0000000000000000000000000000000000033
:10CE00000000000000000000000000000000000022
:10CE1000F8B500BFF8BC08BC9E467047F8B500BF27
:08CE2000F8BC08BC9E467047F7
:08CE280074B4FF7F010000005B
:04CE30006582FF1FF9
:04CE34004182FF1F19
:10CE3800AAAAAAAAF84F0000298AFF1F000000002A
:10CE4800118AFF1F0000000000000000F589FF1F85
:10CE5800D989FF1F0000000000000000000000004A
:10CE680000000000020000000100000000000000B7
:10CE7800000000000000FF9F0001000000100000FB
:10CE8800000000000000000000000000000000009A
:10CE9800000000000080FF9F00010000001000005B
:10CEA8000100000000000000000000000000000079
:10CEB8000100000072706D73672D6F70656E616D93
:10CEC800702D64656D6F2D6368616E6E656C000012
:10CED8000000000008000020000000000000000022
:10CEE8000000000001000000000000000000000039
:10CEF8000000000002000000010000000000000027
:10CF0800000000000000FF9F00010000001000006A
:10CF18000000000000000000000000000000000009
:10CF2800000000000080FF9F0001000000100000CA
:10CF380001000000000000000000000000000000E8
:10CF48000100000072706D73672D6F70656E616D02
:10CF5800702D64656D6F2D6368616E6E656C000081
:10CF68000000000008000020000000000000000091
:10CF7800000000009D8EFF1F7F8EFF1F838EFF1F06
:10CF8800858EFF1F898EFF1F918EFF1F958EFF1FB5
:10CF9800978EFF1F998EFF1FFFFFFFFF0000000005
:10CFA800B0CDFF1FD0CDFF1FF0CDFF1F0000000048
:10CFB80000000000000000000000000075CDFF1F09
:10CFC8000000000000000000000000000000000059
:10CFD8000000000000000000000000000000000049
:10CFE8000000000000000000000000000000000039
:10CFF8000000000000000000000000006C0100209C
:04D008000000000024
:040000051FFF831145
:00000001FF
