:020000041FFFDC
:1080000000800020FD82FF1F2983FF1F2983FF1F9F
:108010002983FF1F2983FF1F2983FF1F0000000002
:108020000000000000000000000000003584FF1F79
:108030002983FF1F00000000E184FF1F3985FF1F17
:108040002983FF1F2983FF1F2983FF1F2983FF1F08
:108050002983FF1F2983FF1F2983FF1F2983FF1FF8
:108060002983FF1F2983FF1F2983FF1F2983FF1FE8
:108070002983FF1F2983FF1F2983FF1F2983FF1FD8
:108080002983FF1F2983FF1F2983FF1F2983FF1FC8
:108090002983FF1F2983FF1F2983FF1F2983FF1FB8
:1080A0002983FF1F2983FF1F2983FF1F2983FF1FA8
:1080B0002983FF1F2983FF1F2983FF1F2983FF1F98
:1080C0002983FF1F2983FF1F2983FF1F2983FF1F88
:1080D0002983FF1F2983FF1F2983FF1F2983FF1F78
:1080E0002983FF1F2983FF1F2983FF1F2983FF1F68
:1080F0002983FF1F2983FF1F2983FF1F2983FF1F58
:108100002983FF1F2983FF1F2983FF1F2983FF1F47
:108110002983FF1F2983FF1F2983FF1F2983FF1F37
:108120002983FF1F2983FF1F2983FF1F2983FF1F27
:108130002983FF1F2983FF1F2983FF1F2983FF1F17
:108140002983FF1F2983FF1F2983FF1F2983FF1F07
:108150002983FF1F2983FF1F2983FF1F2983FF1FF7
:108160002983FF1F2983FF1F2983FF1F2983FF1FE7
:108170002983FF1F2983FF1F2983FF1F2983FF1FD7
:108180002983FF1F2983FF1F2983FF1F2983FF1FC7
:108190002983FF1F2983FF1F2983FF1F2983FF1FB7
:1081A0002983FF1F2983FF1F2983FF1F2983FF1FA7
:1081B0002983FF1F2983FF1F2983FF1F2983FF1F97
:1081C0002983FF1F7188FF1F2983FF1F2983FF1F3A
:1081D0002983FF1F2983FF1F2983FF1F2983FF1F77
:1081E0002983FF1F2983FF1F2983FF1F2983FF1F67
:1081F0002983FF1F2983FF1F2983FF1F2983FF1F57
:108200002983FF1F2983FF1F2983FF1F2983FF1F46
:108210002983FF1F2983FF1F2983FF1F2983FF1F36
:108220002983FF1F2983FF1F2983FF1F2983FF1F26
:108230002983FF1F2983FF1F2983FF1F2983FF1F16
:1082400010B5054C237833B9044B13B10448AFF390
:1082500000800123237010BDD00100200000000029
:10826000A8D1FF1F08B5034B1BB103490348AFF367
:10827000008008BD00000000D4010020A8D1FF1F2D
:10828000A3F5803A704700BF174B002B08BF134B74
:108290009D46FFF7F5FF00218B460F461348144A11
:1082A000121A03F0ABFB0E4B002B00D098470D4B7E
:1082B000002B00D098470020002104000D000D483D
:1082C000002802D00C48AFF3008003F065FB2000CB
:1082D000290000F0CFFA03F039FB00BF00000800CE
:1082E000000000000000000000800020D0010020FD
:1082F000C4550020000000000000000072B603F02A
:108300006BF80649064A074B9A42BEBF51F8040B68
:1083100042F8040BF8E762B6FFF7B6FFD0D1FF1FB3
:1083200000000020D0010020FFF7FEBF034613F835
:10833000012B002AFBD1181A0138704700000000F9
:1083400001F0FF01102A2BDB10F0070F08D010F806
:10835000013B013A8B422DD010F0070F42B3F6D10A
:10836000F0B441EA012141EA014122F007047FF023
:1083700000070023F0E80256083C85EA010586EA7A
:10838000010685FA47F5A3FA87F586FA47F6A5FAB6
:1083900087F68EB9EED1F0BC01F0FF0102F00702C2
:1083A00032B110F8013B013A83EA010313B1F8D16D
:1083B0000020704701387047002D06BF354603384E
:1083C000073815F0010F07D1013015F4807F02BF87
:1083D000013015F4C03F0130F0BC0138704700BFD8
:1083E00005480068006880F3088862B6BFF34F8FC5
:1083F000BFF36F8F00DF00BF08ED00E0DFF80C0077
:10840000016841F4700101607047000088ED00E0F0
:108410004FF0807340E90213054B40F80C3C6FF0BD
:10842000020340F8202C40F8243C4438704700BF39
:108430007D84FF1F064B19680868B0E8F04F80F391
:108440000988BFF36F8F4FF0000080F311887047E9
:10845000BC5400204FF0E0234FF08052C3F8042DAD
:10846000BFF34F8FBFF36F8F7047EFF311804FF063
:10847000100181F3118870470020000008B5054BFA
:108480001B68013302D0FFF7F0FFFEE7FFF7EDFFB7
:10849000FEE700BF0000002008B5FFF7E6FF044A32
:1084A000136801331360BFF34F8FBFF36F8F08BDA5
:1084B0000000002080F311887047000008B5074BCA
:1084C000186810B9FFF7D1FFFEE70138186018B936
:1084D000BDE80840FFF7EEBF08BD00BF0000002068
:1084E000EFF30980BFF36F8F124B1A681EF0100F65
:1084F00008BF20ED108A20E9F04F10604DF8043DD0
:108500004FF0100080F3118802F02AFB4FF00000BA
:1085100080F3118808BC19680868B0E8F04F1EF0B5
:10852000100F08BFB0EC108A80F30988BFF36F8F7B
:10853000704700BFBC54002008B5FFF796FF02F05B
:10854000F5F928B14FF0E0234FF08052C3F8042D25
:10855000BDE808400020FFF7ADBF00004FF0E0236A
:10856000024A5A6107221A61704700BF7FA90300BF
:1085700013B5264B1A78D2B20192FF221A701B78DB
:10858000234ADBB28DF803309DF8033003F010036B
:108590001370204A0723136000219DF80300000692
:1085A00003F1FF3429D401B1136013681B0203F4F3
:1085B000E0631360019B154A4FF0E024DBB21370B7
:1085C000D4F8203D43F47003C4F8203DD4F8203D96
:1085D00043F07043C4F8203DFFF7C0FF0E4B00226C
:1085E0001A60FFF70BFFD4F8343F43F04043C4F860
:1085F000343FFFF7F5FEFFF741FF9DF803305B00C6
:10860000DBB28DF8033001212346C6E700E400E029
:10861000EC010020F00100200000002008B5EFF37D
:1086200005830F2B08D90B4A9B5C0B4A12789A42A0
:1086300002D9FFF71AFFFEE74FF0E023074AD3F80D
:108640000C3D126803F4E063934202D9FFF70DFF7B
:10865000FEE708BDF0E300E0EC010020F00100209F
:1086600070B5044602F05AF92548016871B9254BE6
:10867000254A23F00703C2E90031244A44F6F8757D
:10868000C2E90015C3E90025012303602CB10834B9
:1086900063071CBF24F007040834621E44F6F67317
:1086A0009A422AD8184A13685968A14201D2196817
:1086B00001BB16498B4220D01968156811605A68B1
:1086C000121B102A05F108050BD919194A605C60C4
:1086D0004C680D4A104612685668A642FAD30A60E2
:1086E00001600B495B680A68D21A0A6002F0B0F9AF
:1086F000284670BD1A460B46D6E70025F6E700BFB0
:10870000FC510020FC01002000520020F451002008
:108710000400002038B50446C0B1A0F1080502F0FD
:10872000FDF854F8041C0A4B1A461B685868884226
:10873000FAD344F8083C1560064A54F8043C116822
:108740000B441360BDE8384002F082B938BD00BF69
:108750000052002004000020F0B53A4889B00024FF
:10876000CDE9024402F0C4FB374802F0C1FB03AB81
:10877000012202A9204600F00BF928B1334B344AFC
:108780004921344803F0C4F8039B3348334C344E3A
:10879000344FD3E9081202F0ABFB03984FF0FF33DC
:1087A0000093C06A06AB05AA04A900F053F9054678
:1087B00018B1264B264A5421E3E7059AB2F5007F0B
:1087C00003D3294B224A5721DBE70499234803F0BE
:1087D00007F9059A022AA55413D123780D2B10D13D
:1087E00063780A2B0DD1384602F082FB039B07A960
:1087F000D86A00F063F9054640B91C4B144A62215F
:10880000BFE72146304602F073FBEFE7059A2146A9
:1088100003F0E6F80398DDE90523C06A294600F075
:1088200059F918B1094B0A4A6721AAE7DDE9033172
:10883000D86A00F033F90028AFD0044B044A6B210A
:108840009FE700BF60CAFF1F90CAFF1FA7CAFF1F94
:10885000F1CBFF1FB3CAFF1F26CBFF1F085200201A
:10886000A8CBFF1F88CBFF1F72CBFF1FD9CBFF1FE9
:1088700000F082B91FB502F039FF0E4A0E49536A63
:108880000E4823F007031B041B0C53620C4B3022D1
:1088900083F861230222DA6000230122CDE902334A
:1088A000019300924FF4807202F000F802F00EF88B
:1088B000FEE700BF0000AB30E0CBFF1F5987FF1F72
:1088C00000E100E030B5044685B00D4618462BB9EE
:1088D0000D4B0E4A7F210E4803F01AF81CB90D4BC0
:1088E0000A4A8021F7E7ADF80C20089A029101921C
:1088F00001A9002201F0CFFB18B12946204600F063
:108900009CFD05B030BD00BFFDCBFF1FBCCCFF1FE1
:1089100002CCFF1F59CCFF1F08B528B9044B054AEC
:108920000548682102F0F4FF044B00221A6008BDDC
:1089300059CCFF1FA1CCFF1F02CCFF1F0C540020FD
:1089400008B508B1C36A2BB90A4B0B4A5A210B4828
:1089500002F0DEFF0A4A12681AB90A4B064A5C2185
:10896000F5E7DA60084B1860084B1868BDE8084066
:1089700001F0F4BA61CCFF1F86CCFF1F02CCFF1FB1
:10898000105400207CCCFF1F0C5400200854002001
:108990002DE9F047264C98462368A6B0054689463F
:1089A000174623B1234D284626B0BDE8F08701467F
:1089B00002A800F091F90146002836D1204601F0C6
:1089C000A9FA0028EED12368002BEBD0DFF880A0B5
:1089D000194B012F0CBFBDF84C10BDF82C101960BD
:1089E0000C22504601F04AFB064610B9DAF8003076
:1089F0001BB9206801F090FAD4E7104B104A00939D
:108A00004946104B0197284600F04DFC054620686A
:108A100001F086FA206801F07FFA0B4B26601B6894
:108A2000002BBFD0C8F80030BDE7084DBBE700BF42
:108A30000854002047F4FFFF14540020C588FF1F8E
:108A40004189FF1F1989FF1F0C54002041F4FFFFCB
:108A5000105400207FB515461E460C46B1B1A8B192
:108A600003689BB19B6A8BB1089AC06801A901F0A9
:108A700036FB68B10EB1019B336015B1BDF90C3006
:108A80002B60029B2360002004B070BD0148FBE70F
:108A90000148F9E744F4FFFF46F4FFFF08B541B190
:108AA00038B1006828B1836A1BB100F0CFFC002008
:108AB00008BD0148FCE700BF44F4FFFF39B130B105
:108AC000006820B1836A13B1012200F0D6BC0020F7
:108AD0007047000037B515461A460B4659B150B1DC
:108AE000046844B1A16A31B100958168204600F064
:108AF000FFFC03B030BD0148FBE700BF44F4FFFFBB
:108B000008B5034A034B04484B2102F001FF00BFA4
:108B100043CEFF1FB1CAFF1FCFCCFF1F08B5034ACA
:108B2000034B0448442102F0F3FE00BF39CEFF1F7F
:108B3000B1CAFF1FCFCCFF1F0A68024812040121EF
:108B400002F0B0BE0000AB3008B50146064A00692D
:108B500001F024FA054A536A23F4702343F080633A
:108B60005362002008BD00BF718BFF1F0000AB30B7
:108B7000084600F0F9B8000007B5064801AA01212F
:108B800002F0A8FE18B9BDF8060001F049FA03B0DA
:108B90005DF804FB0000AB30034B5868C0F30800DD
:108BA000003818BF0120704700ED00E0012808B52B
:108BB00005D90D4B0D4AAD210D4802F0A9FE0D4B14
:108BC00053F82020002A03DC0B4B084AAE21F3E7C0
:108BD000013A43F82020D3E90023134302BF074B97
:108BE0000222DA6008BD00BF2FCDFF1F1FCEFF1F7E
:108BF000CFCCFF1F1C54002055CDFF1F00E100E02B
:108C0000012810B505D90E4B0E4AC7210E4802F0B7
:108C10007FFE0E4B53F82020002A07DBD3E90041EA
:108C2000214307D0013243F8202010BD084B054AEC
:108C3000C821EBE707490224C1F88C40F2E700BFE6
:108C40002FCDFF1F04CEFF1FCFCCFF1F1C540020D1
:108C500075CDFF1F00E100E008B50A4B1A68002A35
:108C600005DC094B094A0A48E32102F051FE013AAA
:108C70001A602AB9BDE8084011461046FFF796BFB2
:108C800008BD00BF1854002096CDFF1FE6CDFF1F82
:108C9000CFCCFF1F38B5084D2C68002C05DA074BE8
:108CA000074A0848F12102F033FE02D12046FFF7BF
:108CB000A7FF01342C6038BD18540020AECDFF1F33
:108CC000C7CDFF1FCFCCFF1F7047704770470020F4
:108CD000704700207047000008B54B1C0A4B0ED0AF
:108CE0001A688A420BD0D3F89020914209D1012111
:108CF000902202FB013101F0D1F8002008BD0021D3
:108D0000F6E74FF0FF30F9E72400002070B5154B6F
:108D10001D68064675B9902001F0BAF8044638B1CE
:108D20003146FFF7D9FF58B1204601F0B3F82C4681
:108D3000204670BD2C682368B342F9D0AD68E9E7DE
:108D4000D4E901124123084601F062F9102001F034
:108D50009FF801460028E7D00460024800F032F88E
:108D6000E6E700BF24540020006801F047B8C36D57
:108D70000B606030704750F80C3B0B60704704305C
:108D8000704708B50B681A68430102EB4010C161D7
:108D9000D2F88010096811B11C33D0188847002020
:108DA00008BD03681B68D3F8802092682AB1818CC3
:108DB000186803EB41112C311047704700207047B1
:108DC0000020704761B1036833B18B600023CB6032
:108DD0000368D9600160704701608B600268D360EE
:108DE000704702685AB151B18A428B6801D1036061
:108DF0007047CA68936003B97047CA68DA60704701
:108E00002DE9F3411546074620B90024204602B05B
:108E1000BDE8F0810029F8D0002AF6D093071CBFE6
:108E200022F003050435B1FBF5F605FB1611002908
:108E300018BF013616F01F0318BF0123002EB046DD
:108E4000B8BF06F11F0803EB681808F1080292008A
:108E50001046019201F01CF804460028D5D00021EC
:108E6000019A01F019F80121201D01F024F818B130
:108E7000204601F00FF8C8E72760E560C4F81880C5
:108E80002661C3E738B504460D4629B320B34868C8
:108E900001F01EF82868EB68201A90FBF3F0002818
:108EA0000346B8BF00F11F035B11424205EB830389
:108EB00002F01F0200F01F0058BF5042012202FAC8
:108EC00000F0DA694240DA616B696868013B6B6106
:108ED000BDE8384001F00DB838BD10B5044638B1D2
:108EE000406800F0F3FF2046BDE8104000F0D2BF1C
:108EF00010BD0000431C23EA00000D4A0D4B013851
:108F000002EA900203EA50031344C01A00EBD000B7
:108F100020F0635020F40E1020F4636020F008006D
:108F20003F23B0FBF3F3C3EB8313C01A704700BFBA
:108F300049922449DBB66DDB2DE9F041044698B136
:108F4000406800F0C5FFD4E904369E4208DAD4F840
:108F5000188004F11C050021884508DC00251BE071
:108F6000606800F0C6FF00242046BDE8F08155F897
:108F7000047B3846FFF7BEFF1F2812DC0123834025
:108F800004EB81023B43D361E368256800EB4110A9
:108F9000013603FB00556661606800F0AAFF2C46AD
:108FA000E2E70131D8E7002070477047C06870479A
:108FB000C3681943C160704700207047704770470D
:108FC0002DE9F0430446006A8FB004A9103015461D
:108FD0001F46DDF85880FFF7CEFE049BAB4268DCED
:108FE000DFF8E09005460026049B216DB34209DCC2
:108FF0000129DDE9053230D1C4E9062300200FB094
:10900000BDE8F08368680790EB680893B5F808C07E
:10901000ADF824C069B95A1E02EB0C120CF1040E13
:1090200002EB4E025B421A4002EBCC020E3200F021
:1090300033FF05AB03EB8603CDE9019358F82630E7
:10904000009357F8262007ABB1B2204600F056FE39
:1090500020350028D3D10136C6E7C4E906320029FD
:10906000CCD10D464FF40077884616E0FFF764FF39
:10907000064600B34FF400720021CDE90A07CDF88F
:10908000308000F009FFA0690096012300220AA9A0
:1090900000F048FD0028B2D10135A369DB8CAB425A
:1090A000ACDDE06A036903EBD373B5EB630FDDDB83
:1090B000A4E70248A3E70248A1E700BF45F4FFFF89
:1090C00046F4FFFFA38DFF1F704700002DE9F74313
:1090D0008046084691461F46FFF718FE06460028C0
:1090E00059D05C2000F0D4FE044608B92B4D2AE08C
:1090F0005C22002100F0D0FE012104F14C0000F0C0
:10910000DAFE0546F8B90A9B63640B9BA364244B03
:10911000266023611B692662C4F85090276413B14E
:10912000716920469847236D8BB1236D012B08D1BF
:10913000206A01A9FFF71BFE00278146019B9F4281
:1091400012DBC8F80040284603B0BDE8F083304683
:10915000FFF715FE4FF40072D0E90001FFF750FE53
:10916000E0620028E1D1C1E73523002209EB471175
:10917000204600F0E9F906460028B7D0A16C4FF070
:10918000FF33224600F046F9F0620028AED0836833
:1091900033620137D2E7034DD5E700BF47F4FFFF45
:1091A0004401002041F4FFFF70B50446456AC06CDD
:1091B0000E4600F08DFE2DB128682022314600F0C9
:1091C00071FE20B9E06C00F094FE284670BDAD68D9
:1091D000F1E770B50446856AC06C0E4600F078FE73
:1091E0001DB12B689B68B34204D1E06C00F081FE96
:1091F000284670BDAD68F3E770B5436A0446EBB925
:1092000035212046FFF7E5FF18B10168204600F040
:109210007CFBA06908B100F015FDE06908B100F021
:1092200011FDE06A08B1FFF758FEE06C08B100F0EC
:109230004DFE2046BDE8704000F02CBE9E681D68C3
:10924000636C0BB128469847A36D33B1226D012A98
:1092500003D12946204600F050FAE86A08B100F030
:10926000E5F8284600F0A0F93346C8E710B50446F3
:10927000006A236D4BB9FFF7A1FD50B9A06900F05A
:109280009BFD01236365002003E0FFF799FD0028A3
:10929000F7D010BD08B528B1FFF7AEFFBDE8084014
:1092A00000F0D4BD08BD2DE9F34106460D46174632
:1092B000984600F0A7FD044678B9089B099ACDE9C5
:1092C000008331463B462846FFF700FF044620B99D
:1092D000286800F0BFFB044610B12868FFF7DAFFEA
:1092E000204602B0BDE8F0812DE9F347DDF828A063
:1092F0000F469046994600287ED0036B866A022B63
:109300007CD1736D012B79D1F06C00F0E1FD0DF192
:10931000020201A9304600F0D7F9044638BB0B9B86
:10932000374D002B18BF0025F06C00F0E2FDA5B30F
:109330002146304600F0A6FA326D012A56D1314B53
:109340009D4253D10023276023736373A273E37399
:10935000019ABDF80230C4F804802146304600F07E
:1093600083F9002842D1F06900F026FD3EE0002597
:10937000DAE70A2000F010FEF06C00F0A9FD0DF114
:10938000020201A9304600F09FF90446F06C00F09B
:10939000B0FD013D02D11C4DCAE79625002CE8D056
:1093A000019B113B534525D30023A373E37352461E
:1093B000494604F11000C4F804802760A4F80CA00A
:1093C00000F06CFDF06C00F083FDBDF80230019AF6
:1093D0002146304600F048F9054610B9F06900F022
:1093E000EBFCF06C00F085FD002DA1D1284602B009
:1093F000BDE8F087034D9BE7044DF7E7044DF5E723
:1094000047F4FFFF42F4FFFF46F4FFFF44F4FFFF81
:1094100043F4FFFF38B5054628B129B1806A00F052
:10942000CDFA00B1056038BD0846FCE7014618B129
:109430000368986A00F069BA704730B129B151F8F1
:10944000083C43F0004341F8083C704738B50C46EF
:1094500090B189B1856AE86C00F03AFD284634F88D
:10946000083C34F9062CA4F1100100F015F9E86C61
:10947000BDE8384000F03DBD38BDF7B50E46174693
:1094800010B9002003B0F0BD0029FAD0856AE86C5D
:1094900000F01EFD0DF1020201A9284600F014F9AA
:1094A0000446E86C00F025FD0CB9002FE9D09627A2
:1094B00011E00A2000F070FDE86C00F009FD0DF1EC
:1094C000020201A9284600F0FFF80446E86C00F00B
:1094D00010FD013FD5D0002CEBD0BDF80230238128
:1094E000019B6381103B336004F11000CAE7000068
:1094F00038B51C4618B313B3856A43F80C2C43F8EF
:10950000101C049B24F8043C002304F8023C04F8DB
:10951000013CE86C00F0DCFC34F8083C34F9062C23
:10952000A4F11001284600F09FF8044610B9E8693C
:1095300000F042FCE86C00F0DCFC204638BD014C39
:10954000FBE700BF44F4FFFF2DE9F041054634205E
:10955000884617461E4600F09BFC0446A0B1342204
:10956000002100F099FC20224146204600F098FCA2
:10957000C4E90876A562102000F08AFC064630B9DE
:10958000204600F087FC34462046BDE8F0810460A8
:10959000E86C00F09DFC05F124003146FFF712FC59
:1095A000E86C00F0A6FCEFE738B50446D0B1014600
:1095B000806AFFF7F9FD054678B1A36AD86C00F020
:1095C00087FCA06A29462430FFF70BFCA36AD86CFD
:1095D00000F08FFC284600F05DFC2046BDE83840D6
:1095E00000F058BC38BDF7B51D468B181746002251
:1095F00003F8012C4A6A12F001020E4611D02846E7
:10960000FFF7D2FD70B36B6C04680BB1204698472E
:10961000E06AFFF70BFF204603B0BDE8F040FFF71C
:10962000C3BF0B6A2846FFF78FFF0446D0B1022361
:109630000363A96C4FF0FF332A46FFF7EBFEE062AD
:1096400080B1816821620123CDE900732046334651
:10965000626AFFF749FE2B6C23B1204603B0BDE8D8
:10966000F040184703B0F0BD30B5054687B02D6D0A
:10967000C0690C4619460023CDE90242CDE9043306
:109680003DB9009401232A4602A900F04BFA07B025
:1096900030BD00F005FBFAE730B5054687B02D6D0B
:1096A00080690C4619460023CDE90242CDE9043316
:1096B0003DB9009401232A4602A900F033FA07B00D
:1096C00030BD00F0EDFAFAE738B504461346226DD6
:1096D000C0690D4662B900F06FFA28B9E06AFFF779
:1096E0002BFC4FF400732B60BDE8384000F0DFBB6B
:1096F0000A46194600F0AFFAF6E7F7B50546C06C22
:109700000E46174600F0E4FB0DF1020201A92846BF
:10971000FFF7DAFF044620B9E86C00F0EAFB03B07B
:10972000F0BD352200230271282243718371C37179
:109730000273437331462022103000F0B1FB67639F
:10974000336A2363019ABDF8023021462846FFF7A9
:109750008BFFE86900F030FBDEE7F8B505682E6D99
:10976000012E02D16C6A022704B9F8BD21680A6B88
:1097700012B9AB6D13B90F63A468F5E70E63284601
:10978000FFF7BBFFF8E738B5034614461B6D806949
:109790002BB900F011FABDE8384000F088BB0A464A
:1097A000214600F058FAF6E72DE9FF4105686A6A9C
:1097B0009AB12B6D012B10D111680A6B6AB9A86D93
:1097C00030B128460B6304B0BDE8F041FFF795BF08
:1097D00002230B6304B0BDE8F081E86C00F078FB75
:1097E0000DF10A0203A92846FFF7CDFF0446E86CF5
:1097F00000F07FFB00260227002CEBD06168267268
:109800006672A672E6722846FFF7E3FC0028E1D0F4
:1098100003681868F0B1026B012A1BD12368436208
:1098200007632B6C03B19847E86C00F051FBA36809
:10983000002BBDF80A301FDA2381039B63810DF1F1
:109840000A0203A92846FFF79EFF0446E86C00F0D1
:1098500050FBD1E7039AB2F5803FE5D2E289D20707
:10986000E2D42146A28951F810CBCDF800C0D3F83C
:109870000480DB68C047D7E7039A21462846FFF7F4
:109880000BFFDCE7034608461A6D12B9D96AFFF7E9
:10989000F9BA7047F8B50E4605460024B44202DB1B
:1098A0004FF0FF300FE02F4604353868FFF722FBFA
:1098B0001F28034608DC012202FA03F33A681A4320
:1098C00000EB44103A60F8BD0134E7E7B2EB411F0A
:1098D00018DA002A1346B8BF02F11F0351424FEABB
:1098E000631301F01F0102F01F0258BF4A42012119
:1098F00001FA02F250F8231021EA020140F8231085
:10990000002070474FF0FF30704770B50D468968F2
:109910000446FFF75EFC064698B1E06C00F0D8FA0A
:10992000AA68042104F13000FFF7D0FF314604F1AA
:109930002800FFF756FAE06C00F0DBFA304600F042
:10994000A9FA2846BDE8704000F0A4BAB2EB411F66
:1099500013DA002A1346B8BF02F11F03591153420C
:1099600003F01F0350F8210002F01F0258BF5A42B3
:10997000012303FA02F2104070474FF0FF307047A6
:10998000B2EB411F17DA002A1346B8BF02F11F03DA
:1099900051424FEA631301F01F0102F01F0258BF4A
:1099A0004A42012101FA02F250F82310114340F813
:1099B0002310002070474FF0FF3070472DE9F0472B
:1099C000074610208A4691461D4600F061FA04467B
:1099D00060B11022002100F05FFA102000F058FA68
:1099E000804630B9204600F055FA00242046BDE8F4
:1099F000F087F86C00F06CFA6B1C07F1300623D08E
:109A00002A4604213046FFF7A1FF48B1404600F046
:109A100041FA204600F03EFAF86C00F06AFAE4E7FA
:109A20002A4604213046FFF7ABFFC4E901A5C4F87C
:109A30000C9007F12800C8F800404146FFF7C2F932
:109A4000F86C00F056FAD1E704213046FFF722FF08
:109A50000546EAE730B5036D2149224A012B044649
:109A6000214B224887B007BFCDE90410CDE902326F
:109A7000CDE90401CDE9022300212369019102AA65
:109A800000921D68022204AB2046A847C8B923698A
:109A90002046DB689847C30715D4236D012BD4E912
:109AA000061502D10B4629461D460020FFF769F92D
:109AB00038B929460120FFF764F910B92046FFF7AD
:109AC000D5FB07B030BD0123A365094935232246E4
:109AD0002046FFF773FF0028DFD10648F1E700BFFB
:109AE00051CEFF1FA997FF1F5B97FF1F57CEFF1F88
:109AF000E795FF1F47F4FFFF10B5426DC38C044686
:109B00005088013B034002EB4303998000F0CEF9FB
:109B1000626D538801335380B4F85E300133A4F88A
:109B20005E3010BD2DE9F04FB0F8609085B002EBCB
:109B3000030800EB091392461FFA88FB0E9A9A66F7
:109B4000A3F874B0036D0E4605464C46002708F195
:109B5000FF31B84500DD7EB9B5F85C30A5F860404E
:109B6000A3EB0B0B2846A5F85CB04946FFF7C4FFF2
:109B7000002005B0BDE8F08F22013068039103EBAF
:109B800004140192029300F092F9DDE90123039994
:109B90009850002262607068A060B942D4BF10463D
:109BA0000120BA45A081DEBF80B240F00200A08152
:109BB000B668E4890137CCE7F8B50F46044688B3A8
:109BC000856DB0F862306A889A4239D0C68C013E01
:109BD0001E405A1C05EBC605A0F8622000F065F98E
:109BE0006B689EB20FB1AA683A60276DB4F85C50FA
:109BF0009BB207EB0312180104EB0313B3F87410C4
:109C00000D440139A4F85C50A3F8741091894D07F4
:109C100012D5B4F86030D3812318A4F86060002214
:109C20009C6E9A662046F8BDB3F87410D28901394B
:109C300007EB0212A3F874109189C907F4D4E8E77E
:109C40000024EFE730B1836B13B100230363836318
:109C500000F020B9704770B50D46416D16464B882F
:109C6000B0F864209342044618D0531CA0F8643026
:109C7000C38C013B134001EB43039B882B8000F016
:109C800014F92B88226D1B01D05800F012F92A8894
:109C9000236D03EB02139B68336070BD0020FCE76B
:109CA00038B5C38C8B4204460FD3806D4588013B89
:109CB0002B4000EBC303C3E9011200F0F7F8A26DDB
:109CC000538801335380002038BD0148FCE700BFB2
:109CD00041F4FFFF826A436D920709D5C26CC18CC3
:109CE00003EB4203B0F86220013A521A9A8070479F
:109CF0001A8842F001021A80704700002DE9F341F2
:109D00001D461B891B01174603F178028046104649
:109D10000E46019200F0BCF80446002848D0019A93
:109D2000002100F0B9F82046394640F8048B202283
:109D300000F0B6F8A6846868E062089B2989E363AE
:109D4000099BE184A4F85C1023646B682E895A1E79
:109D500002EB0612371D5B4202EB47021A4002EB90
:109D6000C6020E3222632B68A3638A1CC4E9131354
:109D700003EB0113636503EB4203421E13444042AD
:109D80000340A36501390023226D8B4202EB0312CD
:109D90000BDB4FF40043D3812046FFF79BFF0A9B68
:109DA00000201C6002B0BDE8F0810133D381EBE7F5
:109DB0000048F7E744F4FFFF10B5044600F074F8DC
:109DC000A36AA26D13F0020F11D0E16C636D02EB78
:109DD000C1025B889288013B9B1AB4F85E209BB25B
:109DE0009A4207D9236C2BB12046984702E013888A
:109DF000DB07F7D50023A4F85E3010BDC36B03B1B9
:109E00001847704708B50C4A1368002B05DA0B4B4E
:109E10000B4A0C48572101F07BFD0133012B1360E5
:109E200008D109485022002101F0E8FDBDE80840B2
:109E3000FEF74DBF002008BD285400205DCEFF1F57
:109E40004FCFFF1F73CEFF1F2C54002008B50B4BC4
:109E50001968002905DC0A4B0A4A0B486C2101F0FD
:109E600057FD0139196039B90848502201F0C6FD83
:109E7000BDE80840FEF72DBF002008BD2854002093
:109E8000DCCEFF1F44CFFF1F73CEFF1F2C540020DA
:109E9000FEF7E6BBFEF73EBC01F0B0BD01F0A0BD91
:109EA00002F0B6B802F0A0B8704770477047FEF7EE
:109EB0000CBFFEF70BBF10B504460A2000F037FABE
:109EC0002060B0FA80F04009404210BD00F0E0BBD5
:109ED00010B50446FEF760FE034648B901464FF050
:109EE000FF32204600F001FBBDE81040FEF7D2BE75
:109EF00010BD70B50546FEF74FFE044648B9FEF7A3
:109F0000ABFE2346224621462846BDE8704000F0BD
:109F100023BA70BDFFF7CFBF08B100F0B9BB7047DF
:109F200037B5002504460195FEF736FE034670B1AD
:109F300001AA2946204600F061FB019B2BB14FF09E
:109F4000E0234FF08052C3F8042D03B030BD01462A
:109F50004FF0FF32204600F0C8FAF6E737B500258B
:109F600004460195FEF718FE034678B12B4601AA78
:109F70002946204600F074FA019B2BB14FF0E023F4
:109F80004FF08052C3F8042D03B030BD02460146A5
:109F9000204600F0E1F9F7E700F0BEBD032810B558
:109FA00006DD074B074A084840F2A11101F0B0FC5A
:109FB000064B142404FB0030C0E9031210BD00BF9F
:109FC000F1CEFF1F33CFFF1F73CEFF1F2C54002095
:109FD000032838B50B46114606D9094B094A0A48E9
:109FE0004FF4E17101F094FC084C142202FB004292
:109FF000C2E901311A46BDE83840FEF7D7BD00BFBF
:10A00000F1CEFF1F1ECFFF1F73CEFF1F2C54002069
:10A0100010B40446084621465DF8044BFEF754BED2
:10A02000032838B5054606DD0F4B104A40F20D21D6
:10A030000F4801F06DFC0F4C142303FB004423690F
:10A0400023B90D4B094A40F21121F1E7FEF7D8FD83
:10A05000D4E9031328469847D4E901122846BDE8FD
:10A060003840FFF7B5BF00BFF1CEFF1F16CFFF1F6F
:10A0700073CEFF1F2C54002004CFFF1F10B50446E1
:10A0800008461146002200F034F92060B0FA80F052
:10A090004009404210BD1FB50446CDE90021FEF73E
:10A0A0007BFDDDE90021034680B1002303AA2046A1
:10A0B00000F0D6F9012810D1039B2BB14FF0E0231B
:10A0C0004FF08052C3F8042D04B010BD204600F0BC
:10A0D00043F9431E58425841F6E70020F4E71FB504
:10A0E0000446CDE90021FEF757FDDDE900210346D6
:10A0F00078B103AA204600F081FA012810D1039B11
:10A100002BB14FF0E0234FF08052C3F8042D04B080
:10A1100010BD204600F0E9F9431E58425841F6E7C9
:10A120000020F4E700F108034FF0FF32C0E90223FA
:10A13000436003610023036070470023036170479D
:10A1400043684B609A688A6051609960086103684F
:10A1500001330360704730B50C68631C0AD1036992
:10A160005A684A6091608B605960086103680133E6
:10A17000036030BD00F10802134652681568A5421D
:10A18000FAD9EDE7D0E9011203698A6041685160AC
:10A190005A68824204BF82685A60002202611868CD
:10A1A00001381860704738B51546026C044662B134
:10A1B0007DB9806801F014FCA368226C13446268C6
:10A1C000A360934201D32368A360A36B0133A3630D
:10A1D00038BDC06801F004FC226CE36851429B1A50
:10A1E0002268E36093423EBF63685B18E360022D20
:10A1F000EBD1A36B002BE8D0A36B013BA363E4E797
:10A2000003460846196860B451B1DD681A6C5E688F
:10A210001544B54238BF2946D96060BC01F0E0BBA7
:10A2200060BC704738B50446FEF736F904F12405E2
:10A23000A36C002B12DC4FF0FF33A364FEF73EF952
:10A24000FEF72AF904F11005636C002B13DC4FF0C4
:10A25000FF336364BDE83840FEF730B9636A002B12
:10A26000E9D0284600F0D8FC08B100F051FDA36CFD
:10A27000013BA364DCE72369002BE8D0284600F00B
:10A28000CBFC08B100F044FD636C013B6364DBE789
:10A2900038B50D46044610B9FEF7E7F8FEE7FEF7BD
:10A2A000FBF8D4E90F312268A2604B43D0185B1A47
:10A2B00013446060E36000204FF0FF33A0636364E9
:10A2C000A3646DB923693BB104F1100000F0A4FC54
:10A2D000012801D1FEF7BEF8FEF7F0F8012038BDE5
:10A2E00004F11000FFF71EFF04F12400FFF71AFF2E
:10A2F000F2E770B50E46054670B14C20FEF7B0F996
:10A30000044648B106FB05F00130FEF7A9F92060CC
:10A3100028B92046FEF7FEF9FEF7A7F8FEE7C4E9E4
:10A320000F5601212046FFF7B3FF204670BD10B540
:10A330000C4610B9FEF799F8FEE7884202D2FEF704
:10A3400094F8FEE702220021FFF7D3FF08B18463EF
:10A3500010BDFEF78AF8FEE72DE9F04385B00F4601
:10A3600001921E46044610B9FEF77FF8FEE721B9B8
:10A37000036C13B1FEF779F8FEE7022E05D1E36B0B
:10A38000012B02D0FEF771F8FEE74FF000084FF006
:10A39000000942E0019D1DB9FEF790F8002056E04B
:10A3A000B8F1000F02D102A800F074FCFEF786F8A5
:10A3B00000F0B4FAFEF770F8636C013308BFC4F81C
:10A3C0004490A36C013308BFC4F84890FEF776F8B8
:10A3D00001A902A800F06EFC00283BD1FEF75CF852
:10A3E000A26BE36B9A420FD1FEF768F8019904F172
:10A3F000100000F0EBFB2046FFF714FF00F028FBF5
:10A4000048B9FEF727F806E0FEF758F82046FFF7B0
:10A4100009FF00F01DFB4FF00108FEF73DF8A26BAD
:10A42000E36B9A4201D3022EB4D13246394620461C
:10A43000FFF7B9FE636A3BB104F1240000F0ECFBC6
:10A44000012801D1FEF706F8FEF738F8012005B023
:10A45000BDE8F0832046FFF7E5FE00F0F9FA9DE73E
:10A460002DE9F0410F4616461D46044610B9FDF78A
:10A47000FCFFFEE721B9036C13B1FDF7F6FFFEE721
:10A48000022D05D1E36B012B02D0FDF7EEFFFEE7B5
:10A49000FEF7C4F8FDF7E9FFA26BE36B9A42804632
:10A4A00001D3022D1FD12A4639462046FFF77BFEF5
:10A4B000A36C013313D1636A0BB9012409E004F1E1
:10A4C000240000F0A9FB0028F7D0002EF5D00124CD
:10A4D00034604046FDF7EEFF2046BDE8F081A36CF6
:10A4E0000133A364E9E70024F3E72DE9F04385B0E5
:10A4F0000E4601921F46044610B9FDF7B6FFFEE76F
:10A5000021B9036C3BB1FDF7B0FFFEE74FF0000847
:10A510004FF000094DE08846FAE7636AE560002BDA
:10A5200060D004F1240000F077FB00285AD057E0F7
:10A53000019D1DB9FDF7C2FF002056E0B8F1000FE4
:10A5400002D102A800F0A6FBFDF7B8FF00F0E6F983
:10A55000FDF7A2FF636C013308BFC4F84490A36CFD
:10A56000013308BFC4F84890FDF7A8FF01A902A86D
:10A5700000F0A0FB00283BD1FDF78EFFA36B7BB959
:10A58000FDF79CFF019904F1240000F01FFB204619
:10A59000FFF748FE00F05CFA48B9FDF75BFF06E004
:10A5A000FDF78CFF2046FFF73DFE00F051FA4FF01B
:10A5B0000108FDF771FFA36B002BB9D0314620468F
:10A5C000E568FFF71DFE002FA7D1A36B013BA36336
:10A5D00023693BB104F1100000F01EFB012801D1FA
:10A5E000FDF738FFFDF76AFF012005B0BDE8F083F5
:10A5F0002046FFF717FE00F02BFA9DE7F8B50E4650
:10A600001546044610B9FDF730FFFEE721B9036C8B
:10A6100013B1FDF72AFFFEE7FEF700F8FDF725FF6F
:10A62000A36B074603B331462046FFF7E9FDA36B52
:10A63000013BA363636C013312D123690BB901247D
:10A6400009E004F1100000F0E7FA0028F7D0002D2F
:10A65000F5D001242C603846FDF72CFF2046F8BDCC
:10A66000636C01336364EAE71C46F4E7074A00239E
:10A6700002EBC3014968814203D1002142F8331043
:10A6800070470133082BF3D1704700BF7C54002082
:10A6900010B5044610B9FDF7E8FEFEE7FFF7E6FF48
:10A6A000006808B1FEF736F82046BDE81040FEF716
:10A6B00031B8FEE7064A13681968064B19B94FF01E
:10A6C000FF321A6070471268D268D2685268F8E7A1
:10A6D000C05400206801002010B50E4B1A6850606D
:10A6E0000D4A12688242044607D90C4A106819685C
:10A6F000BDE810400431FFF72EBD094A1068196803
:10A700000431FFF728FD074B1A68944238BF1C60DC
:10A7100010BD00BFBC54002098550020C454002038
:10A72000C0540020680100202DE9F84F0746402062
:10A73000DDE90A9A0C9D0E4693469846FDF790FF78
:10A74000044650B125B94FEA8B00FDF789FF054655
:10A75000256385B92046FDF7DDFF4FF0FF30BDE8EA
:10A76000F88F464B1B68002B6AD13B68DB6A994522
:10A7700028BF3C6064E00BF1804B0BF1FF3B05EB25
:10A780008B05731E25F0070504F13402093613F812
:10A79000011F02F8011B09B1B342F8D1B9F1040F4E
:10A7A0004FF00003CB4604F1040628BF4FF0040B22
:10A7B00084F83D303046C4F82CB0FFF7BEFC04F1FD
:10A7C0001800FFF7BAFCCBF105032461A3616462B2
:10A7D000424639462846FDF71BFE2060BAF1000FBD
:10A7E00001D0CAF80040FDF757FE254B254F1A68E7
:10A7F000DFF8B08001321A603D68002DB1D13C60B5
:10A800001B68012B1CD1C24650460135FFF78AFC5C
:10A81000052D0AF1140AF7D1DFF88CA01A4D504625
:10A82000FFF780FC2846FFF77DFC1848FFF77AFC0D
:10A830001748FFF777FC174BC3F800A0164B1D60B5
:10A84000164A136801331360154AE36A116814202D
:10A850008B4200FB0380314688BF1360FFF770FC1A
:10A86000FDF72CFE054B1B682BB13B68DB6A994555
:10A8700001D9FDF7EFFD012071E700BF80550020F1
:10A880002C550020BC540020545500206C5500204D
:10A8900084550020C0540020C454002038550020A6
:10A8A0003C550020C85400204055002010B5029CA3
:10A8B00010B9FDF7DAFDFEE7042C02D9FDF7D5FD4E
:10A8C000FEE7BDE81040FFF72FBF000030B585B0B0
:10A8D0000025CDE901550D490D4800952B468222F2
:10A8E000FFF722FF012804460AD1FDF7BEFD094B00
:10A8F0001C60094B1D6005B0BDE83040FDF738BE57
:10A9000010B9FDF7B2FDFEE705B030BD58CFFF1F0F
:10A91000B3A6FF1F8055002098550020024A1368F7
:10A9200001331360704700BF345500202DE9F74F05
:10A930003C4B1B68002B6ED13B4B1A6801321A60EE
:10A940001D688DB9394B1A68126812B1FDF78DFD7B
:10A95000FEE7374A1968106818601160354A1368B5
:10A9600001331360FFF7A6FE334E344F3368DFF830
:10A97000D880AB424FF0000411D9D8F80030DB6A20
:10A9800014225343FB58022B28BF01242C4B1B6875
:10A99000002B0CBF2046012003B0BDE8F08FDFF88C
:10A9A0008C90DFF8A8A0D9F800301B681BB94FF0D5
:10A9B000FF333360E1E7D9F80030DB68D3F80CB03F
:10A9C000DBF80420954201D23260D6E70BF1040196
:10A9D00008460191FFF7D6FBDBF82820019922B148
:10A9E0000BF11800FFF7CEFB0199DBF82C00DAF829
:10A9F00000201423904288BFCAF8000003FB0070B7
:10AA0000FFF79EFBD8F80010DBF82C20CB6A9A42A7
:10AA100028BF0124C7E70B4A1368013313600024E1
:10AA2000B4E700BF3455002098550020C0540020E2
:10AA3000C45400206855002068010020C85400203C
:10AA40009C55002030550020BC5400203C5500206F
:10AA5000F7B5294C236813B9FDF707FDFEE7FDF7AD
:10AA60001BFD2368013B236023682BB10024FDF705
:10AA700025FD204603B0F0BD204B1B68002BF5D010
:10AA80001F4D204E204F2B686BB9204C23681BB103
:10AA90001F4D0126236833BB1D4B1C68012CE5D1DB
:10AAA000FDF7D8FCE3E7EB68DC6804F11800FFF77A
:10AAB00069FB211D08460191FFF764FBE36A3268D8
:10AAC00001991420934200FB037088BF3360FFF7A5
:10AAD00037FB104BE26A1B68DB6A9A42D3D30C4BFC
:10AAE00001221A60CEE7FFF721FF00B12E60236834
:10AAF000013B2360CEE700BF345500202C550020D9
:10AB00006C5500203C550020C854002030550020D2
:10AB10009C550020BC54002010B518B9BDE8104069
:10AB2000FDF798BC0B4B1B6813B1FDF79EFCFEE7CD
:10AB3000FFF7F4FE084B1C68084B04441868043007
:10AB4000FFF720FB2046FFF7C7FDFFF781FF002836
:10AB5000E4D010BD3455002098550020BC5400208E
:10AB600010B5154B1A68154B12B101221A6010BDB1
:10AB70001A601349134A142308685843105890B1B7
:10AB80000C686343D1180833486840684860134430
:10AB9000984204BF43684B60142303FB04225368AC
:10ABA000DA68094BE2E7086810B9FDF75EFCFEE7DA
:10ABB000086801380860DFE7345500209C55002004
:10ABC0003C550020C8540020BC54002038B50C4629
:10ABD00010B9FDF74AFCFEE70C4D29681831FFF764
:10ABE000BAFA28680430FFF7CDFA631C06D1296849
:10ABF0000748BDE838400431FFF7A2BA054B186892
:10AC00002044BDE83840FFF767BD00BFBC540020BA
:10AC1000845500209855002013B5C368DC6814B92A
:10AC2000FDF723FCFEE704F1180108460191FFF748
:10AC3000A9FA124B01991B68EBB9211D0846019135
:10AC4000FFF7A0FA0E4AE36A10680199834288BFB1
:10AC500013600C4A142000FB0320FFF771FA0A4B23
:10AC6000E26A1B68DB6A9A4285BF084B012000201C
:10AC7000186002B010BD0648EFE700BF3455002051
:10AC80003C550020C8540020BC5400209C55002096
:10AC90006C55002008B510B9FDF7E7FBFEE7034B44
:10ACA0001B680360024B1B68436008BD68550020A9
:10ACB0009855002070B50D46044610B9FDF7D5FB38
:10ACC000FEE711B9FDF7D1FBFEE7FDF7E5FB0E4B03
:10ACD00019682B685A1C10D00C4A1068D4E900621D
:10ACE000864201D091420DD2881A83420AD95B1A5A
:10ACF00013442B602046FFF7CDFF0024FDF7DEFB59
:10AD0000204670BD0124F9E79855002068550020C1
:10AD1000014B01221A6070479C550020D0F8B030DA
:10AD2000DB0309D4054B0648D3F8B03013F0010F0C
:10AD3000044B08BF18467047034870470000363080
:10AD400000A4781F00389C1C00366E0108B502B1C3
:10AD50002BB9074B074A08483D2100F0D9FD086888
:10AD6000C0F3024010600A6802F03F021A6008BD9A
:10AD7000B6CFFF1FD1CFFF1F65CFFF1F10B5072B29
:10AD8000029805D90B4B0C4A4B210C4800F0C0FD32
:10AD90003F2803D90A4B084A4C21F6E7120602F075
:10ADA000E0620C68024307482040024342EA034342
:10ADB0000B6010BD5DCFFF1FC2CFFF1F65CFFF1F10
:10ADC000ACCFFF1FC0FFF8F813B5084B8DF8070094
:10ADD0001A7842B158689C6801220DF10701A0471A
:10ADE000002002B010BD4FF0FF30FAE7A055002060
:10ADF00070B505460C468E18B44200D170BD4FF4B4
:10AE00001801284600F046FD0028F8D02B6804F809
:10AE1000013BF1E72DE9F0410C4FDFF834800546A6
:10AE20000C468E18B44201D1BDE8F08114F8013B04
:10AE30002B643946284600F02DFD0028F9D0414604
:10AE4000284600F027FD0028F9D0EBE70E00980017
:10AE50000300980030B5114D2C7887B0DCB9202361
:10AE6000CDE90012CDE902346946062368600593F6
:10AE7000049400F0DFFC6A68D2F8803043F00103EC
:10AE8000C2F88030064BAB60064BEB6001232B70A1
:10AE9000204607B030BD0320FBE700BFA0550020CF
:10AEA00015AEFF1FF1ADFF1F38B5144651B1013883
:10AEB000012807D8054B187820B1D3E90105A84728
:10AEC000204638BD4FF0FF34FAE700BFA055002000
:10AED00038B5144638B9054B187820B1DD68586884
:10AEE000A847204638BD4FF0FF34FAE7A0550020B0
:10AEF0000FB41FB50A4B1B7873B107AB03930093D4
:10AF00000849069B4FF0FF32002000F05FF805B0C3
:10AF10005DF804EB04B070474FF0FF30F7E700BF77
:10AF2000A0550020C9ADFF1FF0B50446054600201E
:10AF300004F8010B0E68C2B11EB930236B700120FA
:10AF4000F0BD324696FBF3F603FB1622002A04F10D
:10AF50000104B4BFC2F1300102F13001224602F80F
:10AF6000011D501B002EECD1EAE7002EE5D09DF824
:10AF70001420002A14BF412761270A3FB446B6FBBC
:10AF8000F3F603FB16C2092A04F1010494BF02F18F
:10AF90003001B9182246634502F8011DA2EB0500F5
:10AFA000ECD9CDE72DE9F041069F80460C461646C8
:10AFB0001D46B44201DBBDE8F08107994046B84721
:10AFC0002B6801332B600134F3E700002DE9F04FCB
:10AFD00095B0994600230893A94B1E9C0592B2F1A7
:10AFE000FF3F18BF134607468846079399F80000AD
:10AFF00038B9079B0BB1089B0593059815B0BDE8C0
:10B00000F08F252800F087803946C047089B013320
:10B0100008932546ABE146F00106914699F80130C8
:10B020002B2B09F101026DD077D8202B6DD0232B6B
:10B030006ED04FF0000A99F80130A3F130010929D0
:10B0400009F1010271D92E2B05D1914612F8013F69
:10B05000303B092BF9D999F80120682A09F101033D
:10B060006AD06C2A6FD04C2A18BF4B46587803F12F
:10B070000109A0F15803202BC6D801A252F823F0F1
:10B0800077B2FF1F09B0FF1F09B0FF1F09B0FF1FF4
:10B0900009B0FF1F09B0FF1F09B0FF1F09B0FF1F54
:10B0A00009B0FF1F09B0FF1F05B3FF1F5DB3FF1FEE
:10B0B0004FB1FF1F09B0FF1F09B0FF1F09B0FF1FED
:10B0C00009B0FF1F4FB1FF1F09B0FF1F09B0FF1FDD
:10B0D00009B0FF1F09B0FF1FC3B3FF1FC7B2FF1F97
:10B0E00015B3FF1F09B0FF1F09B0FF1F77B3FF1F84
:10B0F00009B0FF1F25B3FF1F09B0FF1F09B0FF1FD5
:10B10000EBB1FF1F46F0020687E746F0040684E72E
:10B1100046F0100681E7002680E72D2B3FF47BAF39
:10B12000302B86D146F0080677E70A2101FB0A3A60
:10B13000AAF1300A91467EE799F80220682A08BFF2
:10B1400009F1020392E799F802206C2AF7E72546F5
:10B15000012255F8043B099300920A2309A90BA880
:10B16000FFF7E2FE0BAB03440493099B002B04465C
:10B1700017DA01344FF02D0B32071FD5BBF1000F4A
:10B1800005D039465846C047089B013308932146ED
:10B19000CDE9008708AB52463020FFF703FF544645
:10B1A0001FE0B10703D501344FF02B0BE4E716F095
:10B1B000040B1CBF01344FF0200BDDE7F30707D46D
:10B1C000CDE9008708AB524621462020FFF7EAFE72
:10B1D000BBF1000F05D039465846C047089B0133E4
:10B1E0000893049B03F1010BA9E000232546039378
:10B1F00055F8043B0A93039B0093002210230AA9ED
:10B200000BA8FFF791FE0BAB03440493340706F041
:10B2100010038346029335D5002B2ED039463020BB
:10B22000C047039B002B394614BF58207820C047E5
:10B23000089B0233089301230693CDE9008708ABEE
:10B24000524659463020FFF7ADFE029B5446002B74
:10B25000C7D0069B002BC4D139463020C047039B82
:10B26000002B394614BF58207820C047089B023372
:10B2700008930234B5E70123B8E7029BDCE700BF7F
:10B28000FEFFFF7FF007029B00F1A180CBB10BF125
:10B29000020408ABCDE90087524621462020FFF783
:10B2A00081FE029B002B9CD039463020C047039B77
:10B2B000002B39460CBF78205820C047089B02332A
:10B2C0008EE75C46E5E7254655F8043B0A930123E3
:10B2D000009308230AA900220BA8FFF725FE0BAB59
:10B2E00003443107044604933FF551AFF2073FF59D
:10B2F00078AF0146CDE9008708AB52462020FFF722
:10B3000051FE6EE7254655F8043B0A93012300934E
:10B310000223DFE763680A930123009304F1080521
:10B320001023D7E7254655F8043B0A9301230093E1
:10B330000A23CFE73946C047089B013308931BF81F
:10B34000010D0028F6D1F30711D5CDE9008708AB30
:10B35000524621462020FFF725FE08E025463946C3
:10B3600055F8040BC0B2C047089B0133089309F19C
:10B3700001092C463AE6254655F8044B002CF6D038
:10B380002046FCF7D3FF16F00106834607D101469D
:10B39000CDE9008708AB52462020FFF703FE013CB1
:10B3A00014F8010F38B9002EE1D0CDE9008708ABC1
:10B3B00052465946CEE73946C047089B01330893A9
:10B3C000EEE72546089A55F8043B1A60CFE75C463D
:10B3D000002B7FF441AF04E7384BD3F8882042F4C8
:10B3E0007002C3F88820364A4FF08851C2F88010A6
:10B3F000BFF35F8F00223349C3F89420C3F898202D
:10B40000C3F89C20C3F8A0100121C3F898102E485F
:10B410004FF0C041C3F89C10C3F8A0000220C3F84D
:10B4200098002A48C3F89C002948C3F8A0000320CC
:10B43000C3F89800C3F89C1004202649C3F8A01054
:10B44000C3F898004FF00040C3F89C00C3F8A01068
:10B4500006200521C3F89810C3F89C20C3F8A0204B
:10B46000C3F898000720C3F89C20C3F8A020C3F8B5
:10B470009800C3F89C20C3F8A020C3F89410BFF331
:10B480004F8FBFF36F8F144B4FF0A062C3F80028AB
:10B49000D3F8002842F00042C3F80028D3F800286F
:10B4A000002AFBDB0322C3F80028BFF34F8FBFF352
:10B4B0006F8F024B094A9A60704700BF00ED00E0B1
:10B4C000008038303B0008033D00080300002020C6
:10B4D00021000B0329000B03002008E00080FF1F60
:10B4E0001B4B984217D003F58033984222D0A3F526
:10B4F000F81398422AD1A3F5AC030022C3F83021F7
:10B50000C3F834217822C3F8A023C3F8A42302226D
:10B51000C3F8FC2670470F4B0122C3F86021C3F823
:10B5200064217822C3F8D023C3F8D4230022C3F8BF
:10B5300014277047074B03225A659A657922C3F88E
:10B54000C422C3F8C8220022C3F81C27704700BFDA
:10B550000000A73000003330F7B51A4F1A491B4CD2
:10B5600000263346324600963846FFF707FC184B54
:10B570004FF08052C3F8842B03F58A2341F2111156
:10B580000C22C4F8E019C3F82824A3F598131D89E8
:10B5900025F001052D042D0C1D81C4F8E069C7F8C4
:10B5A0006018C7F88018C4F8A010C4F8B010C4F828
:10B5B000C010C4F8801AC4F8901AC4F8601203B01E
:10B5C000F0BD00BF0000383080BB3830004038305C
:10B5D00000B0383013B5134B13491448144C0C22E7
:10B5E000C3F82025002300931A46FFF7C7FB114B31
:10B5F0004FF08052C3F80422A3F5E04343F2333204
:10B60000C3F890292046FFF76BFF204600F01CF896
:10B610004FF4E1320146204602B0BDE81040FFF78A
:10B6200019BC00BF00003D3000B238300000383097
:10B630000000A83000B03830024B0122C3F80422C9
:10B64000704700BF00003D30214B984213B51BD01E
:10B6500003F58033984220D0A3F5F813984202D026
:10B66000002002B010BD1B490C6801ABC4F302649A
:10B670006A461948FFF76AFB012C17D0042C22D028
:10B68000002CEDD1154815E0124B1549D3F8804137
:10B690006A46C4F3026401ABEBE70E4B1149D3F8E1
:10B6A00000426A46C4F3026401ABE2E70E48FFF7CA
:10B6B00035FB4008009B0133B0FBF3F0019B0133E5
:10B6C000B0FBF3F0CDE70848FFF728FBF2E700BF37
:10B6D0000000A73000B038300000383000366E016E
:10B6E00080B1383000B238300000363008B5FFF78E
:10B6F000A3FFFFF731FFFFF76DFF054B0C22C3F8E7
:10B700002C25A3F5982341F21112C3F8702208BD2D
:10B7100000003D30D0F8803023F00103C0F88030C5
:10B7200001220023C0F88030C0F884204FF4E0628A
:10B73000C0F888204FF40042C0F88C2040F6010287
:10B74000C0F890202B22C0F89C206022C0F8A030C6
:10B75000C0F8B030C0F8B420C0F8B830D0F88430A9
:10B7600023F00103C0F88430D0F88430DB07FBD528
:10B77000704700001201F0B513460D460124002B5E
:10B780004CD1B1FBF4F3B2FBF4F2284DAB4202D83A
:10B79000B2F5803F16D35C1E4FF6FF76B4FBF5F48E
:10B7A000551E0134B5FBF6F50135AC4238BF2C46C9
:10B7B000A34234BF0123B3FBF4F3A24234BF0122FE
:10B7C000B2FBF4F25C1E4FF6FF75B4FBF5F4651C9A
:10B7D000013C052C98BF164EB3FBF5F398BF375DBF
:10B7E000D0F8906026F46076C0F89060D0F8904071
:10B7F00088BF0527013A013B9BB244EAC71492B2C5
:10B80000C0F89040C0F8A420C0F8A8304FF47A7374
:10B810005D43B1FBF5F1C0F8B010F0BDB5FBF3F638
:10B8200003FB16561C461D463346A8E7F9FF0600E3
:10B8300035D0FF1F38B529B9134B144A14483121AC
:10B8400000F066F8D0F8803023F00103C0F88030B3
:10B85000FFF760FF4D698B68D0F884202B431343BA
:10B86000CA6813430A69134343F48043C0F8843021
:10B87000D0F8883043F00403C0F88830BDE8384081
:10B88000D1E90012FFF776BFE4CFFF1F3BD0FF1FC7
:10B89000EFCFFF1F0B0C89B2C058C84000F0010069
:10B8A00070470000032910B505D9074B074A08481F
:10B8B0003D2100F02DF84FF40003CB40046A1C42F8
:10B8C000FCD040F8212010BD45D0FF1FC8D0FF1F7D
:10B8D0005CD0FF1F032910B505D90A4B0A4A0B4853
:10B8E0004C2100F015F8046A4FF00063CB4023426E
:10B8F00017BF0431022050F82130136018BF002018
:10B9000010BD00BFA0D0FF1FB7D0FF1F5CD0FF1F2E
:10B910001FB514461A46094B1B680546D8684CB13A
:10B92000074B0091CDE9013406492B4600F022F87F
:10B9300000F042FC044B1C46F3E700BF6C01002002
:10B94000D3D0FF1FE0D0FF1F8FCAFF1F08B5074BE2
:10B95000044613B10021AFF30080054B1868836AD9
:10B9600003B19847204601F079F800BF00000000BD
:10B9700010D1FF1F0EB403B5014603AB054853F8C1
:10B98000042B0068019300F06BF802B05DF804EB43
:10B9900003B070476C01002070B50D4D0D4C641B59
:10B9A000A4100026A64209D10B4D0C4C01F0FCFB63
:10B9B000641BA4100026A64205D170BD55F8043BB7
:10B9C00098470136EEE755F8043B98470136F2E711
:10B9D000C8D1FF1FC8D1FF1FC8D1FF1FCCD1FF1F87
:10B9E0000A44914200F1FF3300D1704710B511F8BD
:10B9F000014B03F8014F9142F9D110BD02440346B7
:10BA0000934200D1704703F8011BF9E79368013BAB
:10BA1000002B10B4936008DA9469A34201DB0A2971
:10BA200003D15DF8044B00F007BB1368581C10608D
:10BA3000197008465DF8044B7047F8B506460F4686
:10BA40001446D518AC4201D1002007E014F8011BC0
:10BA50003A463046FFF7DAFF431CF3D1F8BD000049
:10BA60002DE9F04F0D469DB014469846064618B194
:10BA700083690BB900F0C2FC894B9D421BD17568EC
:10BA80006B6ED90705D4AB899A0502D4A86D00F076
:10BA900053FDAB891B0701D52B69EBB9294630460D
:10BAA00000F01CFBC0B16B6EDC070ED54FF0FF3011
:10BAB0001DB0BDE8F08F7B4B9D4201D1B568DFE73B
:10BAC000794B9D4208BFF568DAE7AB899805EDD45C
:10BAD000A86D00F032FDE9E70023099320238DF8DB
:10BAE0002930CDF80C803023DFF8C0818DF82A3062
:10BAF0004FF0010923469A4613F8012B0AB1252A73
:10BB0000F9D1BAEB040B0BD05B46224629463046EE
:10BB1000FFF793FF013000F0AA80099A5A44099276
:10BB20009AF80030002B00F0A28000234FF0FF3283
:10BB3000CDE905230AF1010A049307938DF85330E8
:10BB40001A935446052214F8011B5848FCF7F8FBD9
:10BB5000049AD8B9D10644BF20238DF85330130777
:10BB600044BF2B238DF853309AF800302A2B15D080
:10BB7000079A544600204FF00A0C214611F8013B69
:10BB8000303B092B4ED9B0B1079214E0A0EB08036B
:10BB900009FA03F313430493A246D2E7039B191D4A
:10BBA0001B680391002BBBBF5B4242F0020207936C
:10BBB0000793B8BF049223782E2B0CD163782A2BDD
:10BBC00035D1039B1A1D1B680392002BB8BF4FF0A1
:10BBD000FF3302340593DFF8E4A0217803225046B6
:10BBE000FCF7AEFB40B14023A0EB0A0003FA00F0E3
:10BBF000049B03430134049314F8011B2C488DF873
:10BC000028100622FCF79CFB00283FD0294B1BBBC9
:10BC1000039B073323F0070308330393099B3B443B
:10BC2000099367E70CFB02320C460120A5E70023CD
:10BC30000134059319464FF00A0C204610F8012BE9
:10BC4000303A092A03D9002BC5D00591C3E70CFB74
:10BC5000012104460123F0E703AB00932A46164B6B
:10BC600004A93046AFF300800746781CD6D16B6E2E
:10BC7000D90705D4AB899A0502D4A86D00F05DFC04
:10BC8000AB895B063FF512AF099811E703AB009350
:10BC90002A46094B04A9304600F080F8E4E700BFCB
:10BCA00068D1FF1F88D1FF1F48D1FF1F14D1FF1F8C
:10BCB0001ED1FF1F000000003BBAFF1F1AD1FF1F5B
:10BCC0002DE9F047164699468A680B69DDF8208011
:10BCD0009342B8BF1346336091F8432007460C46A1
:10BCE0000AB1013333602368990642BF33680233D7
:10BCF0003360256815F0060506D104F1190AE368DA
:10BD000032689B1AAB4226DC94F84320131E22684B
:10BD100018BF012392062BD404F14302494638464A
:10BD2000C04701301ED02368E568326803F006037F
:10BD3000042B08BFAD1AA36822690CBF25EAE5757C
:10BD400000259342C4BF9B1AED1800261A34B54251
:10BD50001AD1002008E00123524649463846C04720
:10BD6000013003D14FF0FF30BDE8F0870135C6E761
:10BD7000E1185A1C302081F84300224494F8451001
:10BD800082F843100233C7E701232246494638466A
:10BD9000C0470130E6D00136D9E700002DE9FF4762
:10BDA0000F7E0C9D782F914680460C469A4601F1F5
:10BDB000430207D8622F0AD8002F00F0D880582FEE
:10BDC00000F0A38004F1420584F842703AE0A7F144
:10BDD0006303152BF6D801A151F823F035BEFF1FE0
:10BDE00049BEFF1FC5BDFF1FC5BDFF1FC5BDFF1F4E
:10BDF000C5BDFF1F49BEFF1FC5BDFF1FC5BDFF1F3E
:10BE0000C5BDFF1FC5BDFF1F55BFFF1F79BEFF1F6B
:10BE100037BFFF1FC5BDFF1FC5BDFF1F77BFFF1F7A
:10BE2000C5BDFF1F79BEFF1FC5BDFF1FC5BDFF1FDD
:10BE30003FBFFF1F2B681A1D1B682A6004F14205D3
:10BE400084F842300123A3E020682968060601F146
:10BE500004030AD50E682B60002E03DA2D237642E8
:10BE600084F843305E480A2319E00E682B6010F016
:10BE7000400F18BF36B2EFE72B682068191D296004
:10BE8000010601D51E6802E04606FBD51E8854480F
:10BE90006F2F0CBF08230A23002184F84310656824
:10BEA000A560002DA2BF216821F0040121600EB918
:10BEB000002D4DD01546B6FBF3F103FB1167C75DAE
:10BEC00005F8017D3746BB420E46F4D9082B0BD14D
:10BED0002368DE0708D5236961689942DEBF3023F5
:10BEE00005F8013C05F1FF35521B2261CDF800A099
:10BEF0004B4603AA21464046FFF7E2FE01304CD1F3
:10BF00004FF0FF3004B0BDE8F087354881F8457048
:10BF10002968236851F8046B29601D0614D5DF07D2
:10BF200044BF43F0200323601EB9236823F020039D
:10BF300023601023B0E7236843F0200323607823B5
:10BF4000284884F84530E3E7590648BFB6B2E6E72B
:10BF50001546BBE72B6826686169181D2860350601
:10BF60001B6801D5196002E07006FBD5198000231B
:10BF700023611546BAE72B681A1D2A601D6862689E
:10BF800000212846FCF7DCF908B1401B60606368BB
:10BF90002361002384F84330A8E723692A464946F1
:10BFA0004046D0470130ABD023689B0713D4E068EC
:10BFB000039B9842B8BF1846A4E70123324649467E
:10BFC0004046D04701309BD00135E36803995B1AA6
:10BFD000AB42F2DCEBE7002504F11906F5E700BF00
:10BFE00025D1FF1F36D1FF1F10B57AB103460139A5
:10BFF000841813F8010B11F8012F904201D1A342CC
:10C0000001D1801A10BD0028F3D1FAE71046F9E7F4
:10C0100010B50139034632B111F8014F03F8014B55
:10C02000013A002CF7D11A440021934200D110BDEF
:10C0300003F8011BF9E70000F8B50E461446054663
:10C0400018B183690BB900F0D9F9214B9C422BD16F
:10C050006C68A369A360A3891A072FD523696BB302
:10C0600023692068C01A6369F6B28342374604DC4C
:10C070002146284600F02EF930BBA368013BA3609F
:10C0800023685A1C22601E7063690130834204D009
:10C09000A389DB0706D50A2E04D12146284600F0E5
:10C0A00019F988B93846F8BD0A4B9C4201D1AC68F1
:10C0B000CFE7094B9C4208BFEC68CAE721462846F7
:10C0C00000F00CF80028CBD04FF0FF37EAE700BFB4
:10C0D00068D1FF1F88D1FF1F48D1FF1F324B70B5B9
:10C0E0001D6806460C4625B1AB6913B9284600F019
:10C0F00085F92E4B9C420FD16C68A389B4F90C20B2
:10C1000019072CD4DD0611D40923336042F0400313
:10C11000A3814FF0FF303EE0254B9C4201D1AC683B
:10C12000EBE7244B9C4208BFEC68E6E7580712D5C2
:10C13000616B41B104F14403994202D0304600F0F2
:10C1400063FA00236363A38923F02403A3810023FC
:10C15000636023692360A38943F00803A3812369F3
:10C160004BB9A38903F42073B3F5007F03D02146B4
:10C17000304600F009FAA089B4F90C2010F0010350
:10C180000AD00023A36063695B42A361236943B9BA
:10C1900010F08000BAD170BD810758BF6369A360F9
:10C1A000F4E70020F7E700BF6C01002068D1FF1F13
:10C1B00088D1FF1F48D1FF1F08B5062000F03CFBC7
:10C1C000012000F04BFC00008A892DE9F041054672
:10C1D00010070C4658D44B68002B05DC0B6C002B69
:10C1E00002DC0020BDE8F081E66A002EF9D00023D1
:10C1F00012F480522F682B6032D0606DA3895A07E9
:10C2000005D56368C01A636B0BB1236CC01A002399
:10C210000246E66A216A2846B047431CA38906D134
:10C2200029681D292CD82A4ACA40D60728D50022B9
:10C230006260D9042269226004D5421C01D12B68B6
:10C2400003B96065616B2F600029CAD004F1440313
:10C25000994202D0284600F0D7F900206063C1E778
:10C26000216A01232846B047411CC7D12B68002B07
:10C27000C4D01D2B01D0162B01D12F60B1E7A389AB
:10C2800043F04003A381ADE70F69002FA9D09307C6
:10C290000E6808BF4B690F6018BF0023A6EB0708A4
:10C2A0008B60B8F1000F9CDD216AA66A43463A46CE
:10C2B0002846B047002806DCA38943F04003A38149
:10C2C0004FF0FF308EE70744A8EB0008E9E700BF16
:10C2D0000100402038B50B6905460C4613B900250E
:10C2E000284638BD18B183690BB900F087F8144BA4
:10C2F0009C421BD16C68B4F90C30002BEFD0626EFD
:10C30000D00704D4990502D4A06D00F015F9284691
:10C310002146FFF759FF636EDA070546E0D4A3898B
:10C320009B05DDD4A06D00F008F9D9E7054B9C42D0
:10C3300001D1AC68DFE7044B9C4208BFEC68DAE748
:10C3400068D1FF1F88D1FF1F48D1FF1F002310B500
:10C350000446C0E90033C0E9043383608181436649
:10C36000C2818361194608225C30FFF747FB054B09
:10C370006362054BA362054BE362054B24622363B2
:10C3800010BD00BF71C8FF1F93C8FF1FCBC8FF1FA0
:10C39000EFC8FF1F014900F0AFB800BFD5C2FF1FB3
:10C3A00070B568224D1E55430E4605F1740100F02C
:10C3B00097F9044640B10021C0E900160C30A06096
:10C3C00005F16802FFF71AFB204670BD014800F036
:10C3D000B3B800BFB1550020014800F0AEB800BFAF
:10C3E000B1550020014800F0A7B800BFB2550020A9
:10C3F000014800F0A2B800BFB255002010B50446B5
:10C40000FFF7F0FFA3691BB1BDE81040FFF7F0BFD5
:10C41000C4E912332365134B134A1B68A262A3427B
:10C4200004BF0123A361204600F020F8606020468D
:10C4300000F01CF8A060204600F018F80022E06030
:10C4400004216068FFF782FFA06801220921FFF73D
:10C450007DFFE06802221221FFF778FF0123A3612C
:10C46000D2E700BF10D1FF1F95C3FF1FF8B50746E5
:10C47000FFF7ACFF1E4B1E68B36913B93046FFF7D8
:10C48000BDFF4836D6E90134013B03D533680BB311
:10C490003668F7E7B4F90C50D5B9164BE36004F1F0
:10C4A0005800656600F047F8FFF796FFC4E90155AC
:10C4B000C4E904552560A5610822294604F15C0001
:10C4C000FFF79CFAC4E90D55C4E912552046F8BDA2
:10C4D0006834D9E704213846FFF762FF044630602C
:10C4E0000028D5D1FFF778FF0C233B60EEE700BFB3
:10C4F00010D1FF1F0100FFFF2DE9F84306468846D3
:10C5000000F148040027D4E90195B9F1010905D5E6
:10C510002468002CF7D13846BDE8F883AB89012B9D
:10C5200007D9B5F90E30013303D029463046C0474C
:10C5300007436835E9E770477047704770B50E46A6
:10C54000B1F90E10002996B014461D4608DAB6F966
:10C550000C3000222A601A0610D44FF480630EE0DB
:10C560006A4600F0EBF90028F1DB019A02F4704210
:10C57000A2F500535A425A412A60EEE740230020B8
:10C58000236016B070BD00008B8973B59D07064609
:10C590000C4607D504F1470323602361012363613F
:10C5A00002B070BD01AB6A46FFF7C8FF00990546AF
:10C5B000304600F095F848B9B4F90C309A05EFD43C
:10C5C00023F0030343F00203A381E3E70D4BB362BF
:10C5D000A389206043F08003A381009B6361019BDA
:10C5E00020615BB1B4F90E10304600F0B9F928B102
:10C5F000A38923F0030343F00103A381A08905432A
:10C60000A581CDE795C3FF1F37B5002944D051F868
:10C61000043C0190002BA1F10404B8BFE41800F021
:10C62000C1F91E4A0198136833B96360146003B0FE
:10C63000BDE8304000F0BCB9A34208D925686119B3
:10C640008B4201BF19685B6849192160EDE71A4602
:10C650005B680BB1A342FAD911685518A5420BD1FA
:10C66000246821445418A3421160E0D11C685B681F
:10C67000536021441160DAE702D90C230360D6E746
:10C68000256861198B4204BF19685B68636004BF49
:10C69000491921605460CAE703B030BDB455002089
:10C6A00070B50E4E0C463168054611B900F08CF895
:10C6B00030602146284600F087F8431C0AD0C41C8D
:10C6C00024F00304A04207D0211A284600F07CF889
:10C6D000013001D14FF0FF34204670BDB855002025
:10C6E0002DE9F041CD1C25F0030508350C2D38BF90
:10C6F0000C25002D074601DBA94205D90C233B6020
:10C7000000263046BDE8F0812E4E00F04BF933682C
:10C710001C4634BB29463846FFF7C2FF431C04467B
:10C720004DD134682646002E40D123683146384624
:10C7300004EB030800F048F880453AD1216803353E
:10C740006D1A25F0030508350C2D38BF0C25294638
:10C750003846FFF7A5FF01302BD023682B44236018
:10C760000EE02268521B1ED40B2A16D96119A3426F
:10C77000256018BF5960636808BF316062514B6023
:10C78000384604F10B0600F013F926F00706231DC6
:10C79000F21AB6D09B1BA350B3E76268A3420CBF4A
:10C7A00032605A60ECE723466468B2E73446766844
:10C7B000B9E70C233B60384600F0FAF8A1E72560A2
:10C7C000DEE700BFB455002038B5064D002304460F
:10C7D00008462B6000F034F9431C02D12B6803B1EA
:10C7E000236038BDBC5500201F2938B504460D46CE
:10C7F00004D9162303604FF0FF3038BD426C12B1EC
:10C8000052F821304BB9204600F030F82A46014654
:10C810002046BDE8384000F017B8012B0AD0591C5B
:10C8200003D1162303600120E7E7002442F82540E6
:10C83000284698470020E0E7024B01461868FFF7BA
:10C84000D3BF00BF6C01002038B5074D002304465C
:10C85000084611462B6000F0E3F8431C02D12B6818
:10C8600003B1236038BD00BFBC55002000F0C8B83C
:10C8700010B50C46B1F90E1000F0A0F80028ABBFBF
:10C88000636DA3891B1823F48053ACBF6365A38138
:10C8900010BD2DE9F0411F468B89DB0505460C468E
:10C8A000164605D5B1F90E100223002200F068F8F3
:10C8B000A389B4F90E1023F48053A38132463B467A
:10C8C0002846BDE8F04100F017B810B50C46B1F9A4
:10C8D0000E1000F055F8431CA38915BF606523F4C2
:10C8E000805343F48053A38118BFA38110BDB1F9D5
:10C8F0000E1000F013B8000038B5074D0446084686
:10C90000114600222A601A46FEF7CEFA431C02D1D5
:10C910002B6803B1236038BDBC55002038B5064DE7
:10C920000023044608462B6000F05AF8431C02D14D
:10C930002B6803B1236038BDBC55002038B5074DC6
:10C9400000230446084611462B6000F051F8431CB2
:10C9500002D12B6803B1236038BD00BFBC55002055
:10C9600038B5064D0023044608462B6000F050F809
:10C97000431C02D12B6803B1236038BDBC55002095
:10C9800038B5074D04460846114600222A601A466B
:10C9900000F04EF8431C02D12B6803B1236038BD70
:10C9A000BC5500200148FFF7C7BD00BFB0550020AF
:10C9B0000148FFF7C2BD00BFB055002038B5074D94
:10C9C00004460846114600222A601A46FEF780FAFD
:10C9D000431C02D12B6803B1236038BDBC55002035
:10C9E000024B58221A604FF0FF307047BC550020B0
:10C9F000024B58221A604FF0FF307047BC550020A0
:10CA0000024B58221A604FF0FF307047BC5500208F
:10CA1000024B58221A600020704700BFBC5500200E
:10CA2000024B58221A604FF0FF307047BC5500206F
:10CA3000024B58221A604FF0FF307047BC5500205F
:10CA4000044A05491368002B08BF0B4618441060C0
:10CA500018467047C0550020C8550020FEE700BFAB
:10CA60000D0A52504D534720537472696E6720452A
:10CA700063686F204672656552544F532052544F7D
:10CA800053204150492044656D6F2E2E2E0D0A0013
:10CA900052504D534720496E69742061732052658E
:10CAA0006D6F74650D0A00726573756C74203D3D81
:10CAB0002030002F686F6D652F6E65756265726638
:10CAC00072616E2F70726F6A656374732F66726520
:10CAD0006572746F732D746E2F6578616D706C65FF
:10CAE000732F696D7837645F7069636F5F6D342F82
:10CAF00064656D6F5F617070732F72706D73672FF7
:10CB00007374725F6563686F5F6672656572746F78
:10CB1000732F7374725F6563686F5F6672656572A9
:10CB2000746F732E63004E616D6520736572766954
:10CB300063652068616E647368616B65206973204A
:10CB4000646F6E652C204D342068617320736574AA
:10CB5000757020612072706D7367206368616E6EFE
:10CB6000656C205B2564202D2D2D3E2025645D0DF8
:10CB70000A006C656E203C2073697A656F662861D7
:10CB800070705F6275662900476574204E65772076
:10CB90004C696E652046726F6D204D6173746572CD
:10CBA00020536964650D0A00476574204D657373F1
:10CBB0006167652046726F6D204D617374657220E8
:10CBC00053696465203A2022257322205B6C656ED0
:10CBD000203A2025645D0D0A0074785F6275660056
:10CBE000537472696E67204563686F205461736B7C
:10CBF000005374724563686F5461736B007072699F
:10CC000076002F686F6D652F6E657562657266724E
:10CC1000616E2F70726F6A656374732F66726565DB
:10CC200072746F732D746E2F6D6964646C657761B7
:10CC300072652F6D756C7469636F72652F6F7065A7
:10CC40006E2D616D702F72706D73672F72706D73C2
:10CC5000675F72746F732E630072705F63686E6CCF
:10CC60000072705F63686E6C2026262072705F63AE
:10CC7000686E6C2D3E72705F6570740064656661ED
:10CC8000756C745F710072706D73675F6368616E5D
:10CC90006E656C5F637265617465645F72746F73F7
:10CCA0000072706D73675F6368616E6E656C5F6460
:10CCB000656C657465645F72746F730072706D7318
:10CCC000675F726561645F72746F735F6362002F88
:10CCD000686F6D652F6E65756265726672616E2F25
:10CCE00070726F6A656374732F6672656572746FB4
:10CCF000732D746E2F6D6964646C65776172652F36
:10CD00006D756C7469636F72652F6F70656E2D61E0
:10CD10006D702F706F7274696E672F696D783764EC
:10CD20005F6D342F706C6174666F726D2E63007668
:10CD30006563746F725F6964203C20504C415446B7
:10CD40004F524D5F44495341424C455F434F554E0E
:10CD5000544552530030203C2064697361626C6515
:10CD60005F636F756E746572735B766563746F7203
:10CD70005F69645D0030203C3D2064697361626CD2
:10CD8000655F636F756E746572735B766563746FF0
:10CD9000725F69645D0030203C2064697361626C7D
:10CDA000655F636F756E7465725F616C6C003020D7
:10CDB0003C3D2064697361626C655F636F756E747E
:10CDC00065725F616C6C00706C6174666F726D5F30
:10CDD000696E746572727570745F64697361626C98
:10CDE000655F616C6C00706C6174666F726D5F6919
:10CDF0006E746572727570745F656E61626C655F8A
:10CE0000616C6C00706C6174666F726D5F696E74DA
:10CE10006572727570745F64697361626C650070CD
:10CE20006C6174666F726D5F696E74657272757035
:10CE3000745F656E61626C65005F626F6F745F63E3
:10CE40007075005F73687574646F776E5F6370757B
:10CE50000074785F76710072785F767100656E7627
:10CE60005F696E69745F636F756E746572203E3DB5
:10CE70002030002F686F6D652F6E65756265726674
:10CE800072616E2F70726F6A656374732F6672655C
:10CE90006572746F732D746E2F6D6964646C657741
:10CEA0006172652F6D756C7469636F72652F6F7039
:10CEB000656E2D616D702F706F7274696E672F656E
:10CEC0006E762F6672656572746F732F72706D73F4
:10CED000675F706F7274696E672E6300656E765F50
:10CEE000696E69745F636F756E746572203E203081
:10CEF00000766563746F72203C204953525F434F44
:10CF0000554E54004E554C4C20213D20696E666FA5
:10CF10002D3E69737200656E765F69737200656E8F
:10CF2000765F656E61626C655F696E74657272755D
:10CF3000707400656E765F72656769737465725FA1
:10CF400069737200656E765F6465696E6974006509
:10CF50006E765F696E69740049444C450070726575
:10CF6000203C2038002F686F6D652F6E65756265F7
:10CF7000726672616E2F70726F6A656374732F666A
:10CF800072656572746F732D746E2F706C61746648
:10CF90006F726D2F647269766572732F7372632F6F
:10CFA00063636D5F696D7837642E6300706F7374AF
:10CFB000203C2036340070726520262620706F7366
:10CFC000740043434D5F557064617465526F6F74B4
:10CFD0000043434D5F476574526F6F7444697669CF
:10CFE00064657200696E6974436F6E666967002FCD
:10CFF000686F6D652F6E65756265726672616E2F02
:10D0000070726F6A656374732F6672656572746F90
:10D01000732D746E2F706C6174666F726D2F6472F5
:10D0200069766572732F7372632F756172745F69AD
:10D030006D782E6300040302010006554152545FCF
:10D04000496E697400726567496E646578203C209A
:10D050004D555F54525F434F554E54002F686F6DCE
:10D06000652F6E65756265726672616E2F70726F84
:10D070006A656374732F6672656572746F732D745D
:10D080006E2F706C6174666F726D2F647269766555
:10D0900072732F7372632F6D755F696D782E6300E5
:10D0A000726567496E646578203C204D555F525229
:10D0B0005F434F554E54004D555F5472795265632E
:10D0C000656976654D7367004D555F53656E644DB8
:10D0D0007367002C2066756E6374696F6E3A20006A
:10D0E000617373657274696F6E20222573222066E6
:10D0F00061696C65643A2066696C6520222573223B
:10D100002C206C696E65202564257325730A000048
:10D1100070010020232D302B2000686C4C006566C8
:10D120006745464700303132333435363738394178
:10D13000424344454600303132333435363738398E
:10D14000616263646566000000000000000000008A
:10D1500000000000000000000000000000000000CF
:10D1600000000000000000000000000000000000BF
:10D1700000000000000000000000000000000000AF
:10D18000000000000000000000000000000000009F
:10D19000000000000000000000000000000000008F
:10D1A0000000000000000000F8B500BFF8BC08BC9B
:10D1B0009E467047F8B500BFF8BC08BC9E46704755
:08D1C000C0B0FF7F0100000078
:04D1C8006582FF1F5E
:04D1CC004182FF1F7E
:10D1D000AAAAAAAAF84F0000498BFF1F000000006E
:10D1E000398BFF1F00000000000000001D8BFF1F97
:10D1F000018BFF1F00000000000000000000000085
:10D20000000000000200000001000000000000001B
:10D21000000000000000FF9F00010000001000005F
:10D2200000000000000000000000000000000000FE
:10D23000000000000080FF9F0001000000100000BF
:10D2400001000000000000000000000000000000DD
:10D250000100000072706D73672D6F70656E616DF7
:10D26000702D64656D6F2D6368616E6E656C000076
:10D270000000000008000020000000000000000086
:10D28000000000000100000000000000000000009D
:10D29000000000000200000001000000000000008B
:10D2A000000000000000FF9F0001000000100000CF
:10D2B000000000000000000000000000000000006E
:10D2C000000000000080FF9F00010000001000002F
:10D2D000010000000000000000000000000000004D
:10D2E0000100000072706D73672D6F70656E616D67
:10D2F000702D64656D6F2D6368616E6E656C0000E6
:10D3000000000000080000200000000000000000F5
:10D3100000000000C18FFF1FA78FFF1FAB8FFF1FF3
:10D32000AD8FFF1FB18FFF1FB98FFF1FBD8FFF1F75
:10D33000C990FF1FBF8FFF1FFFFFFFFF700100207D
:10D340000000000068D1FF1F88D1FF1F48D1FF1FD8
:10D3500000000000000000000000000000000000CD
:10D3600000000000000000000000000000000000BD
:10D3700000000000000000000000000000000000AD
:10D38000000000000000000000000000000000009D
:10D39000000000000000000000000000000000008D
:040000051FFF82FD5A
:00000001FF
