:020000041FFFDC
:10800000008000201183FF1F3D83FF1F3D83FF1F62
:108010003D83FF1F3D83FF1F3D83FF1F00000000C6
:10802000000000000000000000000000C583FF1FEA
:108030003D83FF1F000000005D85FF1FB585FF1F0A
:108040003D83FF1F3D83FF1F3D83FF1F3D83FF1FB8
:108050003D83FF1F3D83FF1F3D83FF1F3D83FF1FA8
:108060003D83FF1F3D83FF1F3D83FF1F3D83FF1F98
:108070003D83FF1F3D83FF1F3D83FF1F3D83FF1F88
:108080003D83FF1F3D83FF1F3D83FF1F3D83FF1F78
:108090003D83FF1F3D83FF1F3D83FF1F3D83FF1F68
:1080A0003D83FF1F3D83FF1F3D83FF1F3D83FF1F58
:1080B0003D83FF1F3D83FF1F3D83FF1F3D83FF1F48
:1080C0003D83FF1F3D83FF1F3D83FF1F3D83FF1F38
:1080D0003D83FF1F3D83FF1F3D83FF1F3D83FF1F28
:1080E0003D83FF1F3D83FF1F3D83FF1F3D83FF1F18
:1080F0003D83FF1F3D83FF1F3D83FF1F3D83FF1F08
:108100003D83FF1F3D83FF1F3D83FF1F3D83FF1FF7
:108110003D83FF1F3D83FF1F3D83FF1F3D83FF1FE7
:108120003D83FF1F3D83FF1F3D83FF1F3D83FF1FD7
:108130003D83FF1F3D83FF1F3D83FF1F3D83FF1FC7
:108140003D83FF1F3D83FF1F3D83FF1F3D83FF1FB7
:108150003D83FF1F3D83FF1F3D83FF1F3D83FF1FA7
:108160003D83FF1F3D83FF1F3D83FF1F3D83FF1F97
:108170003D83FF1F3D83FF1F3D83FF1F3D83FF1F87
:108180003D83FF1F3D83FF1F3D83FF1F3D83FF1F77
:108190003D83FF1F3D83FF1F3D83FF1F3D83FF1F67
:1081A0003D83FF1F3D83FF1F3D83FF1F3D83FF1F57
:1081B0003D83FF1F3D83FF1F3D83FF1F3D83FF1F47
:1081C0003D83FF1FCD89FF1F3D83FF1F3D83FF1FA1
:1081D0003D83FF1F3D83FF1F3D83FF1F3D83FF1F27
:1081E0003D83FF1F3D83FF1F3D83FF1F3D83FF1F17
:1081F0003D83FF1F3D83FF1F3D83FF1F3D83FF1F07
:108200003D83FF1F3D83FF1F3D83FF1F3D83FF1FF6
:108210003D83FF1F3D83FF1F3D83FF1F3D83FF1FE6
:108220003D83FF1F3D83FF1F3D83FF1F3D83FF1FD6
:108230003D83FF1F3D83FF1F3D83FF1F3D83FF1FC6
:1082400010B5054C237833B9044B13B10448AFF390
:1082500000800123237010BDD40100200000000025
:1082600008FBFF1F084B10B51BB108480849AFF3C6
:1082700000800848036803B910BD074B002BFBD0F2
:10828000BDE81040184700BF0000000008FBFF1FBA
:10829000D8010020D001002000000000154B002B69
:1082A00008BF134B9D46A3F5803A00218B460F462D
:1082B0001348144A121A06F024F80F4B002B00D072
:1082C00098470E4B002B00D0984700200021040057
:1082D0000D000D48002802D00C48AFF3008005F0D7
:1082E000DFFF2000290000F077FB05F0B3FF00BF9F
:1082F00000000800008000200000000000000000D6
:10830000D4010020C4530020000000000000000041
:1083100072B605F08DFA0649064A074B9A42BEBF6F
:1083200051F8040B42F8040BF8E762B6FFF7B6FF0A
:1083300030FBFF1F00000020D4010020FFF7FEBF2C
:1083400080B485B000AFF860B9607A60FB68043B28
:10835000FB60FB684FF080721A60FB68043BFB60B7
:10836000BA68FB681A60FB68043BFB600C4AFB6858
:108370001A60FB68143BFB607A68FB681A60FB6854
:10838000043BFB60FB686FF002021A60FB68203B55
:10839000FB60FB6818461437BD465DF8047B7047E8
:1083A000A583FF1F80B500AF054B1B68B3F1FF3FEE
:1083B00002D000F0C5F8FEE700F0C2F8FEE700BF0B
:1083C00000000020064B19680868B0E8F04F80F301
:1083D0000988BFF36F8F4FF0000080F3118870475A
:1083E000C052002005480068006880F3088862B623
:1083F000BFF34F8FBFF36F8F00DF00BF08ED00E0CA
:1084000080B584B000AF2C4BFB60FB681B78DBB2FF
:10841000BB60FB68FF221A70FB681B78DBB2FB7144
:10842000FB79DBB203F01003DAB2244B1A70244B51
:1084300007221A6009E0224B1B68013B204A1360A7
:10844000FB79DBB25B00DBB2FB71FB79DBB2DBB249
:108450005BB2002BEFDB1A4B1B681B02184A136040
:10846000174B1B6803F4E063154A1360BB68DAB26C
:10847000FB681A70134A134B1B6843F470031360B4
:10848000104A104B1B6843F07043136000F0A6F8CD
:108490000D4B00221A6000F0B3F80C4A0B4B1B681E
:1084A00043F040431360FFF79DFFFFF77BFF00237E
:1084B00018461037BD4680BD00E400E0F001002002
:1084C000F401002020ED00E00000002034EF00E087
:1084D00080B400AF054B4FF080521A60BFF34F8F4E
:1084E000BFF36F8FBD465DF8047B704704ED00E07D
:1084F00080B500AF00F024F8044B1B680133034A39
:108500001360BFF34F8FBFF36F8F80BD000000205B
:1085100080B500AF094B1B68002B02D100F010F8AA
:10852000FEE7064B1B68013B044A1360034B1B68C4
:10853000002B02D1002000F00DF880BD00000020CB
:10854000EFF311804FF0100181F311887047002381
:10855000184600BF80F31188704700BFEFF3098011
:10856000BFF36F8F124B1A681EF0100F08BF20ED7B
:10857000108A20E9F04F10604DF8043D4FF01000D4
:1085800080F3118804F09AF84FF0000080F311880E
:1085900008BC19680868B0E8F04F1EF0100F08BF5B
:1085A000B0EC108A80F30988BFF36F8F704700BF6B
:1085B000C052002080B500AFFFF7C2FF03F0C6FF36
:1085C0000346002B03D0044B4FF080521A6000206A
:1085D000FFF7C0FF80BD00BF04ED00E080B400AF36
:1085E000044B054A1A60054B07221A60BD465DF828
:1085F000047B704714E000E07FA9030010E000E076
:10860000DFF80C00016841F4700101607047000060
:1086100088ED00E080B582B000AFEFF305837B60AA
:108620007B680F2B0CD90D4A7B6813441B78FB70B9
:108630000B4B1B78FA789A4202D2FFF781FFFEE7D4
:10864000084B1B6803F4E062074B1B689A4202D98F
:10865000FFF776FFFEE70837BD4680BDF0E300E098
:10866000F00100200CED00E0F401002080B588B09E
:1086700000AF786000237B6103F0D4FE3E4B1B68A3
:10868000002B04D100F0B8F83B4B01221A607B6844
:10869000002B0ED008231A467B6813447B607B684E
:1086A00003F00703002B04D07B6823F00703083393
:1086B0007B607B68002B57D07B6844F6F77293424F
:1086C00052D82E4BBB612D4B1B68FB6104E0FB694C
:1086D000BB61FB691B68FB61FB695A687B689A4256
:1086E00003D2FB691B68002BF1D1FB69244A93423A
:1086F0003AD0BB691B68082213447B61FB691A6886
:10870000BB691A60FB695A687B68D31A0822520059
:10871000934222D9FA697B681344FB60FB695A686B
:108720007B68D21AFB685A60FB697A685A60FB68FA
:108730005B68BB60114B3B6102E03B691B683B61BE
:108740003B691B685A68BB689A42F6D33B691A6852
:10875000FB681A603B69FA681A600A4B1A68FB6981
:108760005B68D31A074A136003F06AFE7B691846F8
:108770002037BD4680BD00BF08520020F8510020C0
:10878000005200200400002080B586B000AF786061
:108790007B683B617B68002B27D008235B423A69EA
:1087A00013443B613B69FB6003F03CFEFB685B6884
:1087B000BB600F4B7B6102E07B691B687B617B695F
:1087C0001B685A68BB689A42F6D37B691A68FB68D3
:1087D0001A607B69FA681A60FB685A68054B1B6867
:1087E0001344044A136003F02BFE1837BD4680BDC6
:1087F000F85100200400002080B483B000AF0F4B7C
:1088000023F007037B600E4A7B6813600C4B002249
:108810005A600C4B44F6F8725A600A4B00221A60F8
:108820007B683B603B6844F6F8725A603B68054AD7
:108830001A600C37BD465DF8047B704700020020CB
:10884000F85100200052002080B483B000AF0346EE
:10885000FB71084997F907305B09FA7902F01F02AA
:10886000012000FA02F241F823200C37BD465DF8E2
:10887000047B704700E100E080B483B000AF0346A2
:108880003960FB7197F90730002B0BDA0D49FB7942
:1088900003F00F03043B3A68D2B21201D2B20B4488
:1088A0001A7609E0084997F907303A68D2B21201FE
:1088B000D2B20B4483F800230C37BD465DF8047B2D
:1088C000704700BF00ED00E000E100E080B483B03D
:1088D00000AF78607B685A6A4FF6F87313407A6885
:1088E00053620C37BD465DF8047B704780B58AB093
:1088F00002AF78600023BB6100237B6100233B61F2
:108900002B4804F0A5FA2B4804F0A2FA07F118024C
:1089100007F1140300201146012200F015F9F86157
:10892000FB69002B05D024484A21244A244B05F03A
:1089300075FC7B691A6A7B695B6A224811461A4694
:1089400004F086FA7B69D86A07F1100107F10C027E
:10895000002300934FF0FF330193042300F07EF9CE
:10896000F861FB69002B05D013485221134A144BC0
:1089700005F054FC3B691448194604F069FA3B6958
:1089800001333B617B69D96A7B695B6A07F110023D
:1089900008461146042200F0BDF9F861FB69002B7E
:1089A00005D005485621054A054B05F037FCC9E7B7
:1089B000F4F1FF1F24F2FF1F3CF2FF1F98F8FF1F86
:1089C000B0F2FF1FBCF2FF1F08F3FF1F80B500AF1E
:1089D00000F06AFA80BD00BF80B584B004AF05F036
:1089E0000DFA0E48FFF772FF61200321FFF744FFE5
:1089F0006120FFF729FF0123009300230193002347
:108A0000029300230393064806494FF48072002323
:108A100003F0F4FB03F0D4FCFEE700BF0000AB3032
:108A2000ED88FF1F2CF3FF1F80B582B000AF786088
:108A30007B68002B03D07B68DB6A002B05D11048D4
:108A40005A21104A104B05F0E9FB104B1B68002B14
:108A500005D10B485C210B4A0D4B05F0DFFB7B6811
:108A6000DB6A0A4A1268DA600A4A7B6813600A4BBA
:108A70001B68184602F05AFD0837BD4680BD00BF8E
:108A80003CF3FF1FA8F8FF1F94F3FF1F10520020B4
:108A9000B0F3FF1F0C5200201452002080B582B0AA
:108AA00000AF78607B68002B05D106486821064A34
:108AB000064B05F0B3FB064B00221A600837BD4693
:108AC00080BD00BF3CF3FF1FC4F8FF1FBCF3FF1FB6
:108AD0000C52002080B588B000AFF860B9607A60B1
:108AE0003B603B68002B05D113487F21134A144B90
:108AF00005F094FBFB68002B05D10F4880210F4A3D
:108B0000104B05F08BFBBB68BB617B689BB2BB83E2
:108B1000BB6A7B6107F1140338681946002202F032
:108B200021FE0346002B03D0F868B96801F078FAFB
:108B30002037BD4680BD00BF3CF3FF1FE0F8FF1F9C
:108B4000C4F3FF1FBCF3FF1F80B5ACB002AFF860E9
:108B5000B9607A603B60384B1B68002B01D0374B03
:108B600065E007F114031846F96800F0E3FAC7F866
:108B7000A400D7F8A430002B01D0314B57E02E4889
:108B8000002102F08FFCC7F8A400D7F8A430002B16
:108B900003D1294B1B68002B01D1284B47E07B6890
:108BA000012B03D1B7F858301A4601E03B8F1A4623
:108BB000244B1A60234B1B68234819460C2202F0F1
:108BC000B5FDC7F8A400D7F8A430002B03D11E4B85
:108BD0001B68002B06D1184B1B68184602F070FC6E
:108BE000164B24E0194B00937B680193F868B96831
:108BF000174A184B01F0B2F8C7F8A4000E4B1B68D7
:108C0000184602F06BFC0C4B1B68184602F058FC2F
:108C1000094B00221A60104B1B68002B01D1074B37
:108C200005E00D4B1A683B681A60D7F8A430184667
:108C3000A837BD4680BD00BF1452002047F4FFFF97
:108C400041F4FFFF1852002010520020D58AFF1F68
:108C5000298AFF1F9D8AFF1F0C52002080B588B013
:108C600000AFF860B9607A603B600023FB61BB68CD
:108C7000002B01D1244B43E0FB68002B01D1224B98
:108C80003EE0FB681B68002B01D11F4B38E0FB68FE
:108C90001B689B6A002B01D11B4B31E0FB68DA6833
:108CA00007F1100310461946FA6A02F095FD0346D3
:108CB000002B24D0BB6A002B02D03A69BB6A1A6031
:108CC0007B68002B03D03B8B1AB27B681A603B8B0E
:108CD0001AB23B689A4207DC7A693B68B868114669
:108CE0001A4605F003FB01E0084BFB61FB681A68BC
:108CF0007B691046194601F0AFF9FB6900E0044BAF
:108D000018462037BD4680BD44F4FFFF42F4FFFF04
:108D100046F4FFFF80B586B002AFF860B9607A60B4
:108D20003B60BB68002B01D1134B20E0FB68002B9C
:108D300001D1114B1BE0FB681B68002B01D10E4BCE
:108D400015E0FB681B689B6A002B01D10A4B0EE003
:108D5000FB681968FB689A687B680093012301939C
:108D6000084611463A68BB6801F036F803461846D3
:108D70001037BD4680BD00BF44F4FFFF80B483B010
:108D800000AF0346FB71084997F907305B09FA7990
:108D900002F01F02012000FA02F241F823200C37F2
:108DA000BD465DF8047B704700E100E080B483B00D
:108DB00000AF0346FB71094997F907305B09FA795F
:108DC00002F01F02012000FA02F2203341F82320B2
:108DD0000C37BD465DF8047B704700BF00E100E042
:108DE00080B483B000AF786039607B685B6A23F43D
:108DF00070223B684FF0006121FA03F31A437B684D
:108E00005A620C37BD465DF8047B704780B582B06E
:108E100000AF78607B681B6918467968054A02F0E4
:108E2000B9FB05480121FFF7DBFF0023184608378F
:108E3000BD4680BDDD8EFF1F0000AB3080B584B025
:108E400000AF786039603B681B681B04FB60044816
:108E50000121FA6805F08EF91037BD4680BD00BFCC
:108E60000000AB3080B582B000AF78603960034855
:108E70004421034A034B05F0D1F900BFDCF3FF1F87
:108E8000F4F8FF1F3CF4FF1F80B582B000AF78609C
:108E900002484B21024A034B05F0C0F9DCF3FF1FE7
:108EA00000F9FF1F3CF4FF1F80B582B000AF3B46C6
:108EB000094801211A4605F087F90346002B06D11F
:108EC0003B681B0C7B607B68184602F0E5FB00BF2B
:108ED0000837BD4680BD00BF0000AB3080B582B012
:108EE00000AF78603960386800F0B2F90837BD46E5
:108EF00080BD00BF80B400AF064B5B68C3F30803BE
:108F0000002B14BF01230023DBB21846BD465DF8D9
:108F1000047B704700ED00E080B586B000AFF860DC
:108F2000B9607A60FB68012B05D91A48AD211A4A4D
:108F30001A4B05F073F91A4AFB6852F82330002BDC
:108F400005DC1448AE21144A164B05F067F9144AA3
:108F5000FB6852F823305A1E1149FB6841F8232060
:108F600000237B610AE00E4A7B6952F82330002B14
:108F700001D0FB6809E07B6901337B617B69012BD0
:108F8000F1DD6120FFF7FAFEFB6818461837BD4691
:108F900080BD00BFDCF3FF1F10F9FF1F40F4FF1F6F
:108FA0001C52002068F4FF1F80B584B000AF7860C9
:108FB0007B68012B05D91D48C7211D4A1D4B05F0B3
:108FC0002DF91D4A7B6852F82330002B05DA17482B
:108FD000C821174A194B05F021F90023FB60002333
:108FE000BB600BE0144ABB6852F82330002B02D060
:108FF0000123FB6005E0BB680133BB60BB68012B4C
:10900000F0DDFB68002B02D16120FFF7CFFE0A4A9A
:109010007B6852F823305A1C07497B6841F82320AB
:109020007B6818461037BD4680BD00BFDCF3FF1FCC
:109030002CF9FF1F40F4FF1F1C52002088F4FF1F73
:1090400080B500AF0C4B1B68002B05DC0B48E321FF
:109050000B4A0C4B05F0E2F8074B1B68013B064A34
:109060001360054B1B68002B04D100200021002257
:10907000FFF752FF80BD00BF24520020DCF3FF1F2A
:1090800048F9FF1FACF4FF1F80B500AF0B4B1B6806
:10909000002B05DA0A48F1210A4A0B4B05F0BEF80D
:1090A000064B1B68002B02D10020FFF77DFF034B0E
:1090B0001B680133014A136080BD00BF24520020A9
:1090C000DCF3FF1F68F9FF1FC4F4FF1F80B485B0F5
:1090D00000AFF860B9607A603B601437BD465DF858
:1090E000047B704780B483B000AF78607B6818461B
:1090F0000C37BD465DF8047B704700BF80B483B079
:1091000000AF78607B6818460C37BD465DF8047B7D
:10911000704700BF80B400AF00231846BD465DF81D
:10912000047B704780B400AF00231846BD465DF84D
:10913000047B704780B584B000AF7860396000234D
:10914000FB601FE03B68B3F1FF3F0AD01249FA68A9
:109150001346DB0013441B010B441A683B689A4218
:109160000DD1FA681346DB0013441B010A4A13446D
:1091700078681946902202F0EDF8002307E0FB68BA
:109180000133FB60FB68012BDCD94FF0FF3318463D
:109190001037BD4680BD00BF2400002080B586B0DA
:1091A00000AF786000233B610023FB60274B1B6806
:1091B0007B610CE07B691B683B613B691A687B68DB
:1091C0009A4201D13B693DE07B699B687B617B6989
:1091D000002BEFD1902002F099F838613B69002B09
:1091E00001D100232EE038697968FFF7A3FFB8604A
:1091F000BB68002B04D0386902F094F8002321E00A
:109200003B695B6819463B695B681A463B699B682A
:10921000084611461A46412302F02EFA102002F0A9
:1092200075F8F860FB68002B04D1386902F07AF811
:10923000002307E0FB683A691A600448F96800F007
:10924000A5F83B6918461837BD4680BD2852002056
:1092500080B582B000AF78607B681B68184601F06B
:109260008FFF0837BD4680BD80B483B000AF786003
:1092700039607B68DB6D1A463B681A607B68603337
:1092800018460C37BD465DF8047B704780B483B048
:1092900000AF786039607B681B681A463B681A60CB
:1092A0007B680C3318460C37BD465DF8047B70476D
:1092B00080B483B000AF78607B68043318460C3705
:1092C000BD465DF8047B704780B584B000AF786020
:1092D00039603B681B681B68FB607B685B01183367
:1092E000FA6813440433BB60BB683A681A60FB68D1
:1092F000D3F880301B68002B05D0FB68D3F8803092
:109300001B68B8689847002318461037BD4680BDD3
:1093100080B584B000AF78607B681B681B68FB6019
:109320007B689B8C5B011833FA6813440433BB6081
:10933000FB68D3F880309B68002B0BD0FB68D3F818
:1093400080309B68FA6812681146BA681032084685
:10935000114698471037BD4680BD00BF80B483B02A
:1093600000AF7860002318460C37BD465DF8047BDB
:10937000704700BF80B483B000AF78600023184608
:109380000C37BD465DF8047B704700BF80B483B0E6
:1093900000AF786039603B68002B00D11DE07B682E
:1093A0001B68002B0ED07B681A683B689A603B688C
:1093B0000022DA607B681B683A68DA607B683A688A
:1093C0001A600AE07B683A681A607B681B680022B2
:1093D0009A607B681B680022DA600C37BD465DF836
:1093E000047B704780B483B000AF786039607B68DD
:1093F0001B68002B02D03B68002B00D11EE07B686D
:109400001A683B689A4205D17B681B689A687B683A
:109410001A6013E03B689B68002B05D13B68DB6852
:109420003A6892689A6009E03B68DB683A6892683B
:109430009A603B689B683A68D268DA600C37BD4630
:109440005DF8047B704700BF80B58AB000AFF8605C
:10945000B9607A60FB68002B05D0BB68002B02D096
:109460007B68002B01D100235CE07B6803F00303E1
:10947000002B04D07B6823F00303043300E07B68F7
:109480007B60BA687B68B2FBF3F2BB687968B3FBB8
:10949000F1F1786800FB01F15B1A002B14BF012386
:1094A0000023DBB213447B627B6A002B00DA1F339C
:1094B0005B111A467B6A03F01F03002B14BF0123C4
:1094C0000023DBB213443B623B6A08339B00FB6121
:1094D000FB69184601F01AFFB861BB69002B20D068
:1094E000FB69B86900211A4601F026FFBB69043305
:1094F0001846012101F084FF78617B69002B04D0BC
:10950000B86901F00FFF00230CE0BB69FA681A602C
:109510007A68BB69DA60BB693A6A9A61BB697A6A40
:109520001A61BB6918462837BD4680BD80B586B034
:1095300000AF786000237B617B68002B01D10023A2
:1095400053E07B685B68184601F07EFF7B685A69D0
:109550007B681B699A4206DB7B685B68184601F0F2
:109560008BFF002341E000233B6133E07A683B69D5
:1095700006339B0013445B68184600F097F80346D7
:10958000FB60FB681F2B22DC7A683B6906339B007B
:1095900013445B680121FA6801FA02F21A43796800
:1095A0003B6906339B000B445A607B681B687A68F2
:1095B000D26839694801F968014401FB02F2134499
:1095C0007B617B685B695A1C7B685A6107E03B6979
:1095D00001333B617B689A693B699A42C6DC7B68D0
:1095E0005B68184601F048FF7B6918461837BD468E
:1095F00080BD00BF80B586B000AF786039603B6841
:10960000002B02D07B68002B00D137E03B685B6801
:10961000184601F019FF7B683A6812689A1A3B688D
:10962000DB6892FBF3F37B617B69002B00DA1F336D
:109630005B113B617A69134B1340002B03DA013B4A
:1096400063F01F030133FB603B6906339B003A68FC
:1096500013440433BB60BB681B680121FA6801FA3C
:1096600002F25A40BB681A603B685B695A1E3B684D
:109670005A613B685B68184601F0FEFE1837BD462C
:1096800080BD00BF1F00008080B582B000AF786051
:109690007B68002B07D07B685B68184601F0CAFE28
:1096A000786801F03FFE0837BD4680BD80B485B0C4
:1096B00000AF78607B68DB437B607B685A427B68E5
:1096C0001340013B7B607B685A08114B13407A685A
:1096D000D21A7B6899080F4B0B40D31AFB60FB68CA
:1096E000DA08FB681A440C4B13400C4AA3FB020136
:1096F0005A1A52080A4451090A469201521A9B1AF0
:10970000BB60BB6818461437BD465DF8047B7047E4
:10971000DBB66DDB49922449C7711CC705411004B3
:1097200080B485B000AF786039607B681B01FB6056
:109730007B6804335A00FB681344FB60FA683B689B
:1097400013445A1E3B685B421340FB607B68DA009F
:10975000FB6813440E33FB60FB6818461437BD46A4
:109760005DF8047B704700BF80B58AB000AFF86039
:10977000B9607A603B60B868FFF710FD78627B6A79
:10978000002B01D1354B65E05C2001F0BFFD386254
:109790003B6A002B01D1324B5CE0386A00215C222D
:1097A00001F0CAFD3B6A4C331846012101F028FE46
:1097B000F861FB69002B01D0FB694BE03B6A7A6AD8
:1097C0001A627A683B6A1A653B6A3A681A643B6AAD
:1097D0003A6B5A643B6A7A6B9A643B6ABB61BB69B9
:1097E0007A6A1A60BB691F4A1A61BB691B691B69E7
:1097F000002B07D0BB691B691B697A6A5269B8697B
:10980000114698473B6A1B6D002B16D1786AFFF70B
:109810004FFD78617B691A687B695B681046194661
:109820004FF40072FFF710FE02463B6ADA623B6AB1
:10983000DB6A002B01D10A4B0CE0386A00F00AF910
:10984000F861FB69002B01D0FB6903E0FB683A6A11
:109850001A60002318462837BD4680BD41F4FFFF3B
:1098600047F4FFFF4401002080B586B000AF786068
:109870007B685B6A7B6128E07B699B683B617B69F5
:109880001B68FB607B685B6C002B03D07B685B6CA8
:10989000F86898477B689B6D002B08D07B681B6D30
:1098A000012B04D17868F968012200F0D1FDFB6832
:1098B000DB6A002B04D0FB68DB6A184600F09AFBD9
:1098C000F86800F0E9FC3B697B617B69002BD3D130
:1098D0007868352100F066F8B860BB68002B05D0C9
:1098E000BB681B687868194600F080FD7B689B693F
:1098F000002B04D07B689B69184601F067FA7B68EF
:10990000DB69002B04D07B68DB69184601F05EFA46
:109910007B68DB6A002B04D07B68DB6A1846FFF7A4
:10992000B3FE7B68DB6C002B04D07B68DB6C1846D5
:1099300001F080FD786801F0F5FC1837BD4680BD68
:1099400080B584B000AF786039607B685B6AFB608B
:109950007B68DB6C184601F077FD15E0FB681B683F
:10996000BB60BB6818463968202201F00FFD034632
:10997000002B06D17B68DB6C184601F07DFDFB688F
:109980000BE0FB689B68FB60FB68002BE6D17B6803
:10999000DB6C184601F070FD002318461037BD46F9
:1099A00080BD00BF80B584B000AF786039607B684F
:1099B0009B6AFB607B68DB6C184601F045FD11E09B
:1099C000FB681B68BB60BB689A683B689A4206D11B
:1099D0007B68DB6C184601F04FFDFB680BE0FB6811
:1099E0009B68FB60FB68002BEAD17B68DB6C184648
:1099F00001F042FD002318461037BD4680BD00BF70
:109A000080B584B000AF78600023FB607B681B6D7D
:109A1000002B0ED17B681B6A1846FFF79FFCF8608D
:109A2000FB68002B0BD17B689B69184601F090FA0C
:109A300005E07B681B6A1846FFF79CFCF860FB6832
:109A4000002B02D17B6801225A65FB68184610374B
:109A5000BD4680BD80B586B000AF78607B681B6D69
:109A6000012B39D17B681A6A07F1080310461946A1
:109A7000FFF7FAFB386100237B6129E07B695B011A
:109A80003A691344786819460022352300F0BEFB7A
:109A9000F860FB68002B01D1124B1EE07B689B6CC9
:109AA000F86819467A684FF0FF3300F07BFA0246F7
:109AB000FB68DA62FB68DB6A002B01D1094B0CE022
:109AC000FB68DB6A9A68FB681A627B6901337B6119
:109AD000BB687A699A42D1DB002318461837BD4625
:109AE00080BD00BF47F4FFFFF0B599B004AFF86048
:109AF000B9607A603B60FB68BB64BB6C1B6A03F1B6
:109B0000100207F1140310461946FFF7BFFB7864F3
:109B10007A697B689A4201DD5A4BAFE00023FB640F
:109B200051E0FB6C5B017A6C13445B683B63FB6C3C
:109B30005B017A6C1344DB687B63FB6C5B017A6CC2
:109B400013441B893B87BB6C1B6D002B15D13C6BF1
:109B5000FB6C5B017A6C13441B891946FB6C5B013F
:109B60007A6C1344DB6808461946FFF7D9FD0346B3
:109B7000204600211A4601F0DFFBFB6C9EB2FB6C15
:109B80009B003A6813441D68FB6C9B00BA6E13443B
:109B90001A6807F12801FB6C9B000B4407F13004A5
:109BA0000092394A01920293F86831462A462346C8
:109BB00001F010F838643B6C002B01D03B6C5DE089
:109BC000FB6C0133FB647B69FA6C9A42A9DBBB6CCA
:109BD0001B6D012B06D1BA6ABB6CDA61FA6ABB6CE9
:109BE0009A6105E0FA6ABB6CDA61BA6ABB6C9A6189
:109BF000BB6C1B6D002B40D10023FB642CE0BB6CC5
:109C0000DB6A1846FFF792FCF863FB6B002B01D16F
:109C10001E4B33E0FB6BBB614FF40073FB61002311
:109C20003B62F86B00214FF4007201F085FBBB6CC6
:109C3000996907F11802FB6B009308461146002250
:109C4000012301F02DF838643B6C002B01D03B6CF4
:109C500014E0FB6C0133FB64BB6C9B69DB8C1A4624
:109C6000FB6C9A4209DDBB6CDB6A1B69DA0F13449B
:109C70005B101A46FB6C9A42C1DC0023184654372D
:109C8000BD46F0BD45F4FFFF1193FF1F46F4FFFFF3
:109C900080B483B000AF7860002318460C37BD460F
:109CA0005DF8047B704700BF80B483B000AF78607C
:109CB0000B46FB700C37BD465DF8047B704700BF58
:109CC00080B483B000AF78607B68DB6818460C37DF
:109CD000BD465DF8047B704780B483B000AF786008
:109CE00039607B68DA683B681A437B68DA600C3756
:109CF000BD465DF8047B704780B483B000AF7860E8
:109D00003960002318460C37BD465DF8047B704768
:109D100080B485B000AFF860B9607A603B6000BF86
:109D20001437BD465DF8047B704700BF80B485B032
:109D300000AFF860B9607A603B6000BF1437BD4681
:109D40005DF8047B704700BF80B483B000AF7860DB
:109D500000BF0C37BD465DF8047B704780B588B006
:109D600002AFF860B9607A603B6001F06BFA78612D
:109D70007B69002B13D13B6800933B6A0193B86861
:109D8000F9687A6A7B68FFF7EFFC78617B69002BE2
:109D900005D1BB681B68184600F0AEF978617B6995
:109DA000002B04D0BB681B68184600F005F87B69DF
:109DB00018461837BD4680BD80B582B000AF7860C8
:109DC0007B68002B04D07868FFF74EFD01F06CFA39
:109DD0000837BD4680BD00BF80B58CB000AFF860CD
:109DE000B9607A603B600023BB6200237B62FB6842
:109DF000002B01D1664BC6E0FB689B6A3B62FB68A7
:109E00001B6B022B03D13B6A5B6D012B01D0614BB5
:109E1000B9E03B6ADB6C184601F016FB07F1100253
:109E200007F11603386A11461A4600F0C3FBF862C0
:109E3000FB6A002B04D1FB6B002B01D1564BBB629C
:109E40003B6ADB6C184601F017FBBB6A002B66D13E
:109E500021E00A2001F092FB3B6ADB6C184601F01E
:109E6000F3FA07F1100207F11603386A11461A4691
:109E700000F0A0FBF8623B6ADB6C184601F0FCFACC
:109E80007B6A0A337B627B6A40F2DB52934202DDDB
:109E9000424BBB6202E0FB6A002BDAD0BB6A002BAC
:109EA0003DD1BA6B3B69113B9A4201D93C4BBB6235
:109EB000BB6A002B33D1FB6AFB61FB697A685A608D
:109EC000FB69BA681A60BB6B9AB2FB699A81FB693D
:109ED00000229A730022DA73FB6903F11002BB6B54
:109EE000104639681A4601F035FA3B6ADB6C1846B1
:109EF00001F0AAFA3B691A46FB8A386AF96A00F04F
:109F0000FDFAB862BB6A002B04D13B6ADB691846D4
:109F100001F01EF83B6ADB6C184601F0ADFABB6A33
:109F2000002B2FD0386AF96A00F096FB3B6A1B6D54
:109F3000012B27D1BB6A1A4A934223D1FB6AFB61EA
:109F4000FB697A685A60FB69BA681A60FB6900228B
:109F50001A7300225A73FB69002242F001029A73BD
:109F60000022DA733B691A46FB8A386AF96A00F004
:109F7000C5FAB861BB69002B04D13B6ADB6918469E
:109F800000F0E6FFBB6A18463037BD4680BD00BF13
:109F900044F4FFFF43F4FFFF47F4FFFF46F4FFFFE5
:109FA00042F4FFFF80B586B000AFF860B9607A6018
:109FB0003B6000237B6100233B61FB68002B02D0E8
:109FC000BB68002B01D1002310E0FB689B6A7B611A
:109FD0007869B9687A683B6800F08CF938613B6948
:109FE000002B02D03B69FA681A603B6918461837A3
:109FF000BD4680BD80B584B000AF78607B68002B23
:10A0000000D109E07B681B68FB60FB689B6ABB6052
:10A01000B868796800F0EAF91037BD4680BD00BF26
:10A0200080B485B000AF786039600023FB607B6846
:10A03000002B02D03B68002B00D108E03B68103BAE
:10A04000FB60FB689B6843F00042FB689A60143732
:10A05000BD465DF8047B704780B586B000AF786080
:10A06000396000237B617B68002B02D03B68002BAA
:10A0700000D11CE07B689B6A3B613B68103BFB6046
:10A08000FB6808337B613B69DB6C184601F0DCF947
:10A090007B695B881AB27B691B889BB23869F96857
:10A0A00000F05CFA3B69DB6C184601F0E5F9183703
:10A0B000BD4680BD80B586B002AFF860B9607A60F9
:10A0C000FB68002B02D0BB68002B01D1094B0CE0D0
:10A0D000FB68196AFB685A6A7B6800930123019345
:10A0E000F868BB68FFF778FE034618461037BD4690
:10A0F00080BD00BF44F4FFFFB0B590B002AF786000
:10A100007B683B637B681B6D012B08D1394B7B61FE
:10A11000394BBB61394BFB61394B3B6207E0364B36
:10A120007B61344BBB61364BFB61344B3B623B6B19
:10A130001B691C6807F1140507F11C030093002339
:10A140000193386B002102222B46A047F862FB6A7C
:10A15000002B01D0FB6A49E03B6B1B69DB68386B65
:10A160009847B862BB6A03F00103002B0ED07B68EE
:10A1700001229A65786823497A68352300F0BAF895
:10A1800078627B6A002B01D11F4B2FE07B681B6D2F
:10A19000012B06D17B68DB69FB607B689B693B61B7
:10A1A00005E07B689B69FB607B68DB693B610023A2
:10A1B0007B6313E07B6B9B0007F13802134453F879
:10A1C0002C3C786B1946FFF77FF8F862FB6A002B8E
:10A1D00001D0FB6A0AE07B6B01337B637B6B012B55
:10A1E000E8DD7868FFF70CFCF862FB6A1846383740
:10A1F000BD46B0BDE0F4FF1FE8F4FF1F7DA6FF1FC2
:10A20000E9A6FF1F69A8FF1F47F4FFFF80B586B0CE
:10A2100000AFF860B9607A603B60342001F076F8F6
:10A2200078617B69002B32D078690021342201F0FB
:10A2300083F87B691846B968202201F099F87B6998
:10A240007A681A627B693A685A627B69FA689A622C
:10A25000102001F05BF838613B69002B04D178696C
:10A2600001F060F8002313E03B697A691A60FB682B
:10A27000DB6C184601F0E8F8FB68243318463969AE
:10A28000FFF784F8FB68DB6C184601F0F5F87B6992
:10A2900018461837BD4680BD80B584B000AF7860E1
:10A2A0007B68002B23D07B689A6A7B68104619462E
:10A2B000FFF746FBF860FB68002B15D07B689B6AB4
:10A2C000DB6C184601F0C0F87B689B6A24331846A3
:10A2D000F968FFF787F87B689B6ADB6C184601F02A
:10A2E000CBF8F86801F01EF8786801F01BF8103719
:10A2F000BD4680BD80B588B000AFF860B9607A60B7
:10A300003B600023FB61102001F000F8B861BB69DD
:10A31000002B01D1002362E0B8690021102201F076
:10A320000BF8102000F0F2FF78617B69002B04D15C
:10A33000B86900F0F7FF002351E0FB68DB6C1846BA
:10A3400001F082F83B68B3F1FF3F18D0FB6803F1DE
:10A3500030023B68104604211A4600F063FB0346B6
:10A36000002B09D1FB6803F130023B681046042141
:10A370001A4600F08BFB0AE01B4BFB6107E0FB6811
:10A3800030331846042100F0D7FA03463B60FB69DE
:10A39000002B0CD0786900F0C5FFB86900F0C2FF4F
:10A3A000FB68DB6C184601F067F8002317E0BB6917
:10A3B0003A689A60BB69BA685A60BB697A68DA60C1
:10A3C0007B69BA691A60FB68283318467969FEF719
:10A3D000DDFFFB68DB6C184601F04EF8BB691846E0
:10A3E0002037BD4680BD00BF40F4FFFF80B584B07C
:10A3F00000AF786039603B689B6878681946FFF762
:10A40000D1FAF860FB68002B1CD07B68DB6C184627
:10A4100001F01AF87B6803F130023B689B68104634
:10A4200004211A4600F0C2FA7B6828331846F968FE
:10A43000FEF7D8FF7B68DB6C184601F01DF8F86862
:10A4400000F070FF386800F06DFF1037BD4680BD2A
:10A4500080B588B000AFF860B9607A60FB68DB6CEB
:10A46000184600F0F1FF07F1100207F11603F86833
:10A4700011461A4600F09EF8F861FB69002B05D1E1
:10A48000FB68DB6C184600F0F7FF33E0FB69002245
:10A4900042F035021A7100225A7100229A7100228C
:10A4A000DA71FB69002242F028021A7300225A7303
:10A4B000FB691033BB61BA69BB681046194620229C
:10A4C00000F056FFBB697A685A62BB681A6ABB69BA
:10A4D0001A623B691A46FB8AF868F96900F00EF8BF
:10A4E000FB68DB69184600F033FDFB68DB6C18463F
:10A4F00000F0C2FF2037BD4680BD00BF80B58CB0E4
:10A5000002AFF860B9607A607B80BB687B617B6872
:10A51000BB610023FB6100233B62FB681B6D002BCA
:10A520000DD1FB68D96907F11402BB680093084696
:10A5300011460022012300F0B3FB786208E0FB68BB
:10A54000DA697B88104619467A6800F09FFC7862C9
:10A550007B6A18462837BD4680BD00BF80B58AB0EB
:10A5600002AFF860B9607A607B80BB683B617B6852
:10A570007B610023BB610023FB61FB681B6D002B2B
:10A580000CD1FB68996907F11002BB68009308467B
:10A5900011460022012300F083FB07E0FB689A6963
:10A5A0007B88104619467A6800F070FC2037BD465B
:10A5B00080BD00BF80B586B000AFF860B9607A603A
:10A5C000FB681B6D002B14D1FB68DB691846B9686A
:10A5D00000F0AEFB78617B69002B12D1FB68DB6A6F
:10A5E0001846FEF7A3FF7861BB684FF400721A604B
:10A5F00007E0FB68DB6918467968BA6800F0FEFB83
:10A600007861786900F0E4FE034618461837BD46C5
:10A6100080BD00BF80B586B000AFF860B9607A60D9
:10A62000FB681B6D002B07D1FB689B691846B96856
:10A6300000F07EFB786107E0FB689B69184679684B
:10A64000BA6800F0DBFB7861786900F0C1FE034670
:10A6500018461837BD4680BD80B582B000AF78601F
:10A6600039607B681B6D002B05D17B68DB6A38681D
:10A670001946FEF7BFFF0837BD4680BD80B586B0DE
:10A6800000AF78607B681B683B613B69FB60FB68DF
:10A690005B6A7B61FB681B6D012B21D11DE07B692F
:10A6A0001B68BB60BB681B6B002B13D1FB689B6DE9
:10A6B000002B03D0BB6801221A6302E0BB680222B0
:10A6C0001A63BB681B6B012B04D1F868B9680022C0
:10A6D000FFF7BEFE7B699B687B617B69002BDED147
:10A6E0001837BD4680BD00BFF0B58FB002AF7860AF
:10A6F0007B681B68BB62BB6A7B627B6A5B6A3B628E
:10A700003B6A002B1BD07B6A1B6D012B17D13B6A68
:10A710001B68FB61FB691B6B002B10D17B6A9B6D77
:10A72000002B08D0FB6901221A63786AF9690022BC
:10A73000FFF78EFE94E0FB6902221A6390E07B6AC9
:10A74000DB6C184600F080FE07F1100207F10E03E3
:10A75000786A11461A46FFF75DFFF8627B6ADB6C88
:10A76000184600F089FE78E0FB6A00221A72002287
:10A770005A7200229A720022DA72FB6A5B68786A67
:10A780001946FFF70FF9B861BB69002B00D167E0EC
:10A79000BB691B687B617B691B68FB61FB69002BE4
:10A7A00014D0FB691B6B012B10D1FB6A1A68FB6983
:10A7B0005A62FB6902221A637B6A1B6C002B04D06D
:10A7C0007B6A1B6CF86998471EE01DE03B69B3F596
:10A7D000803F19D2FB6ADB899BB203F00103002B97
:10A7E00012D17B695C68FB6A03F11002FB6A9B89EA
:10A7F0009BB21E467B69DD68FB6A1B680093F869A3
:10A80000114632462B46A0477B6ADB6C184600F0A7
:10A810001BFEFB6A9B68002B0ADAFB6A0833FA8985
:10A8200092B21A80FB6A08333A6992B25A8005E004
:10A830003A69FB89786AF96AFFF790FE07F110021E
:10A8400007F10E03786A11461A46FFF7E3FEF86235
:10A850007B6ADB6C184600F00FFEFB6A002B83D18D
:10A860003437BD46F0BD00BF80B588B000AFF8609A
:10A87000B9607A603B603B68FB61BB68BB617B6829
:10A88000013BBA690021D154BB695B6A03F0010343
:10A89000002B1CD0BB69F8691946FFF751F87861A5
:10A8A0007B69002B44D07B691B683B61FB695B6C57
:10A8B000002B03D0FB695B6C386998473B69DB6A06
:10A8C0001846FFF797FB3869FFF7E6FC30E0BA69F6
:10A8D000BB691B6AF86911460022FFF797FC3861D3
:10A8E0003B69002B24D03B6902221A63FB699B6CF5
:10A8F00038691946FA694FF0FF33FFF753FB0246F8
:10A900003B69DA623B69DB6A002B11D03B69DB6A89
:10A910009A683B691A623869B9687A68FFF7CAFBB6
:10A92000FB691B6C002B03D0FB691B6C38699847D3
:10A930002037BD4680BD00BF80B586B000AF7860CF
:10A9400039604FF0FF337B6100233B6124E03B69BA
:10A950009B007A6813441B681846FEF7A7FE03465F
:10A96000FB60FB681F2B14DC3B695A01FB68134436
:10A970007B613B699B007A6813443A69920079686D
:10A980000A4412680120F96800FA01F10A431A60CA
:10A9900006E03B6901333B613A693B689A42D6DB8A
:10A9A0007B6918461837BD4680BD00BF80B489B0AA
:10A9B00000AFF860B9607A600123FB61BB685A019F
:10A9C0007B689A4202DC4FF0FF3322E07B68002B69
:10A9D00000DA1F335B11BB617A68114B1340002B07
:10A9E00003DA013B63F01F0301337B617B69FA6982
:10A9F00002FA03F3FB61BB699B00FA681344BA696E
:10AA00009200F9680A441168FA69D2430A401A6050
:10AA1000002318462437BD465DF8047B704700BF0D
:10AA20001F00008080B489B000AFF860B9607A6020
:10AA30000123FB61BB685A017B689A4202DC4FF03C
:10AA4000FF331BE07B68002B00DA1F335B11BB6117
:10AA50007A680D4B1340002B03DA013B63F01F03B0
:10AA600001337B61FA697B6902FA03F3FB61BB691D
:10AA70009B00FA6813441A68FB6913401846243790
:10AA8000BD465DF8047B70471F00008080B489B02C
:10AA900000AFF860B9607A600123FB61BB685A01BE
:10AAA0007B689A4202DC4FF0FF3321E07B68002B89
:10AAB00000DA1F335B11BB617A68104B1340002B27
:10AAC00003DA013B63F01F0301337B61FA697B69A1
:10AAD00002FA03F3FB61BB699B00FA681344BA698D
:10AAE0009200F9680A441168FA690A431A6000235F
:10AAF00018462437BD465DF8047B70471F00008070
:10AB000080B485B000AF786039607B681B01FB6062
:10AB10007B6804335A00FB681344FB60FA683B68A7
:10AB200013445A1E3B685B421340FB607B68DA00AB
:10AB3000FB6813440E33FB60FB6818461437BD46B0
:10AB40005DF8047B704700BF80B485B000AFF8604B
:10AB5000B9607A603B60FB68BA681A60FB687A6823
:10AB60005A60BB681B017A681A44FB689A60FB68EC
:10AB70009A68BB685B00134404331A463B6813446D
:10AB80005A1E3B685B4213401A46FB68DA60143772
:10AB9000BD465DF8047B704780B483B000AF0346C8
:10ABA000FB800B46BB8013467B80BA88FB88D31A98
:10ABB0009BB2013B9AB2B9887B88CB1A9BB29A426E
:10ABC00034BF01230023DBB218460C37BD465DF8C5
:10ABD000047B704780B588B000AFF8607A603B6056
:10ABE0000B467B810023FB610023BB6100237B615B
:10ABF000BB69002B4CD13B681B891B0178337B61FF
:10AC0000786900F083FBF861FB69002B01D1234BCD
:10AC10003FE0F86900217A6900F08EFBFB69FA6871
:10AC20001A60FB69043318467968202200F0A0FB03
:10AC3000FB697A899A843B685B681A46FB69DA6229
:10AC40003B681A89FB69DA84FB69DA8CFB69A3F833
:10AC50005C20FB69BA6ADA63FB69FA6A1A643B68CA
:10AC60001B891A463B685B6810461946FFF748FF88
:10AC70000246FB691A633B681A68FB699A63F869C4
:10AC800000F01CFAF86900F039F93B6BFA691A60B8
:10AC9000BB6918462037BD4680BD00BF44F4FFFFA6
:10ACA00080B58AB002AFF860B9607A603B6000237B
:10ACB000FB610023BB617A683B6813447B61BB691D
:10ACC000002B30D1FB68B3F860307B827B8A1B019C
:10ACD0006833FA681344FB61FB69BA6A1A607B69DE
:10ACE0009AB2FB699A81FB68196D7A8A7B68009336
:10ACF0003B680193F868BB6800F040F903463B826B
:10AD0000FB683A8AA3F86020FB68B3F85C207B6993
:10AD10009BB2D31A9AB2FB68A3F85C207B8AF868CE
:10AD2000194600F001FABB6918462037BD4680BDC0
:10AD300080B586B000AF786039607B68002B07D0A3
:10AD40007B68B3F862207B689B6D5B889A4201D177
:10AD5000002337E07B68B3F862305A1C91B27A68FE
:10AD6000A2F862109AB27B68DB8C013B9BB29BB26B
:10AD700013409BB2FB827B689A6DFB8ADB00134415
:10AD800004333B6100F018FB3B691B68FB813B68A7
:10AD9000002B03D03B695A683B681A60FB897868CE
:10ADA000194600F041F9FB897A681B0113446833A6
:10ADB0001B68BB60FB897A681B011344683300225F
:10ADC0001A60BB6818461837BD4680BD80B582B092
:10ADD00000AF78607B68002B0CD07B689B6B002BEE
:10ADE00005D07B6800221A637B6800229A6378682A
:10ADF00000F098FA0837BD4680BD00BF80B586B028
:10AE000000AFF860B9607A600023FB82FB68B3F89A
:10AE10006420FB685B6D5B889A4201D1002331E0BE
:10AE2000FB68B3F864305A1C91B2FA68A2F8641057
:10AE30009AB2FB68DB8C013B9BB29BB213409BB286
:10AE4000FB82FB685A6DFB8A5B0013449A88BB68DF
:10AE50001A8000F0B1FAFB681A6DBB681B881B01F1
:10AE60001344D3E900231346184600F0BDFA3861B5
:10AE7000FB681A6DBB681B881B0113449A687B68CA
:10AE80001A603B6918461837BD4680BD80B586B04C
:10AE900000AFF8600B467A607B8100237B61FB6822
:10AEA000DB8C7A899A4201D9134B21E0FB689B6DB8
:10AEB0005B889AB2FB68DB8C013B9BB29BB2134070
:10AEC0009BB27B82FB689A6D7B8ADB001344043360
:10AED0007B617A897B691A607B697A685A6000F0C5
:10AEE00071FAFB689B6D5A88013292B25A80002336
:10AEF00018461837BD4680BD41F4FFFF80B483B0CB
:10AF000000AF78607B689B6A03F00203002B11D0CE
:10AF10007B685A6D7B68DB6C7968B1F86200796890
:10AF2000C98C411A89B2013989B25B0013440A46BF
:10AF30009A8008E07B685B6D7A68526D128842F0F7
:10AF4000010292B21A800C37BD465DF8047B70474F
:10AF500080B582B000AF786000F028FA786800F021
:10AF60001FF90346002B02D0786800F053F97B6884
:10AF70000022A3F85E200837BD4680BD80B588B0AA
:10AF800000AFF860B9603B601346FB80BA6AFB6AA9
:10AF900013447B610023FB61FB887B8337E07B8B61
:10AFA0001B01BA6813443B613B681B68184600F0FC
:10AFB0000FFA03461A464FF000033969C1E900232E
:10AFC0003B685A683B699A603B6900229A817B69B9
:10AFD0005A1EFB699A4206DD3B699B8943F00103D7
:10AFE0009AB23B699A81FA69BB6A9A4206DB3B696D
:10AFF0009B8943F002039AB23B699A81FB69013352
:10B00000FB613B69DB897B833B689B683B60FA693A
:10B010007B699A4202DA3B68002BC0D17B8B1846D1
:10B020002037BD4680BD00BF80B485B000AF7860DA
:10B030000B467B807B681A6D7B881B011344FB6089
:10B040007B881B0168337A681344BB607B68B3F864
:10B050005C20BB689B8913449AB27B68A3F85C2090
:10B06000BB689B89013B9AB2BB689A81FB689B894C
:10B0700003F00403002B13D10CE07B681A6DFB680E
:10B08000DB891B011344FB60BB689B89013B9AB2BF
:10B09000BB689A81FB689B8903F00103002BECD10C
:10B0A0007B68B3F86020FB68DA817B687A88A3F854
:10B0B00060201437BD465DF8047B704780B586B0CC
:10B0C00000AF78607B689B6B3B617B68DB8CFB60CF
:10B0D0007B684C33BB60FA687B68DB6AB8681146F2
:10B0E0003A69FFF731FD00237B610CE0BB685A68C9
:10B0F0007B691B0113447A6992B2013292B2DA8100
:10B100007B6901337B61FB685A1E7B699A42EDDCE7
:10B11000BB685A687B691B0113444FF40042DA8113
:10B120001837BD4680BD00BF80B584B000AF7860E1
:10B130000B467B807B685B6D5B889AB27B68DB8C9F
:10B14000013B9BB29BB213409BB2FB817B685A6D63
:10B15000FB895B0013447A889A8000F033F97B689E
:10B160005B6D5A88013292B25A807B68B3F85E30C8
:10B1700001339AB27B68A3F85E201037BD4680BDCC
:10B1800080B582B000AF78607B68DB6B002B03D0AA
:10B190007B68DB6B786898470837BD4680BD00BF89
:10B1A00080B584B000AF78607B689B6A03F00203CF
:10B1B000002B21D07B685B6D5B88FB817B68B3F8DB
:10B1C0005E30FA89D31ABB817B689A6D7B68DB6C31
:10B1D000DB00134404331B887B817989FA89BB899E
:10B1E000084611461A46FFF7D7FC0346002B14BF4A
:10B1F00001230023DBB209E07B689B6D1B8803F011
:10B200000103002B0CBF01230023DBB218461037CB
:10B21000BD4680BD80B582B000AF78607B681B6C96
:10B22000002B03D07B681B6C786898470837BD46B5
:10B2300080BD00BF80B500AFFDF75CFE0346184639
:10B2400080BD00BF80B500AF124B1B68002B05DA34
:10B2500011485721114A124B02F0E0FF0D4B1B68B9
:10B26000002B02DA4FF0FF3312E00A4B1B68013368
:10B27000084A1360074B1B68012B01DD002307E020
:10B2800008480021502203F03CF8FDF743FF034635
:10B29000184680BD2C520020F0F4FF1F88F9FF1FD4
:10B2A0005CF5FF1F3052002080B500AF124B1B68C9
:10B2B000002B05DC11486C21114A124B02F0AEFF45
:10B2C0000D4B1B68002B02DC4FF0FF3312E00A4BE2
:10B2D0001B68013B084A1360074B1B68002B01DD0C
:10B2E000002307E008480021502203F00AF8FDF788
:10B2F00019FF0346184680BD2C520020F0F4FF1FB2
:10B3000094F9FF1F74F5FF1F3052002080B582B002
:10B3100000AF78607868FDF7A9F90346184608374A
:10B32000BD4680BD80B582B000AF78607868FDF71B
:10B330002BFA0837BD4680BD80B584B000AFF860F9
:10B34000B9607A60F868B9687A6802F0DAFF103795
:10B35000BD4680BD80B584B000AFF860B9607A604A
:10B36000F868B9687A6802F0C1FF1037BD4680BD41
:10B3700080B584B000AFF860B9607A60F868B968E9
:10B380007A6803F0AFFA1037BD4680BD80B584B04F
:10B3900000AFF860B9607A60F868B9687A6803F05D
:10B3A00087FA034618461037BD4680BD80B400AF0B
:10B3B000BD465DF8047B704780B400AFBD465DF8C4
:10B3C000047B704780B400AFBD465DF8047B7047D6
:10B3D00080B582B000AF78607868FDF783FE0346E1
:10B3E00018460837BD4680BD80B582B000AF786092
:10B3F0007868FDF783FE034618460837BD4680BDD2
:10B4000080B582B000AF786039603B680A20194689
:10B4100000F062FB02467B681A607B681B68002BA9
:10B4200001D0002301E04FF0FF3318460837BD4636
:10B4300080BD00BF80B582B000AF7860786800F052
:10B44000A1FD0837BD4680BD80B584B000AF7860EF
:10B450007B68FB60FFF7EEFE0346002B08D1F8681F
:10B4600000214FF0FF32002300F07AFCFDF70CFEC4
:10B470001037BD4680BD00BF80B584B000AF786096
:10B480007B68FB60FFF7D6FE0346002B07D1FDF774
:10B49000D7FDF86800210022002300F047FB103799
:10B4A000BD4680BD80B582B000AF786039607868F5
:10B4B0003968FFF7A5FF034618460837BD4680BD2B
:10B4C00080B582B000AF78607B68002B02D07868CE
:10B4D000FFF7B0FF0837BD4680BD00BF80B584B020
:10B4E00000AF78600023BB607B68FB60FFF7A2FEC3
:10B4F0000346002B0ED007F10803F86800211A4616
:10B5000000F0E6FCBB68002B0BD0074B4FF08052DD
:10B510001A6006E0F86800214FF0FF32002300F0C7
:10B520001FFC1037BD4680BD04ED00E080B584B03F
:10B5300000AF78600023BB607B68FB60FFF77AFE9A
:10B540000346002B0FD007F10803F86800211A46C4
:10B55000002300F09BFBBB68002B0AD0064B4FF08A
:10B5600080521A6005E0F86800210022002300F0F4
:10B57000DDFA1037BD4680BD04ED00E080B582B035
:10B5800000AF78607B68184600F0E8FE0837BD46DB
:10B5900080BD00BF80B584B000AFF860B9607A604C
:10B5A000FB68032B06DD104840F2A1110F4A104B37
:10B5B00002F034FEFB68032B13DC0E49FA681346D5
:10B5C0009B0013449B000B440833BA685A60094936
:10B5D000FA6813469B0013449B000B4410337A68AF
:10B5E0001A601037BD4680BDF0F4FF1FA0F9FF1FA1
:10B5F0008CF5FF1F3052002080B584B000AFF8609A
:10B60000B9607A60FB68032B06D912484FF4E171E8
:10B61000114A124B02F002FEFB68032B17D8B968DF
:10B620000F48FA6813469B0013449B00034459607B
:10B6300079680B48FA6813469B0013449B00034447
:10B6400008331960F8687968BA68FDF765FC103747
:10B65000BD4680BDF0F4FF1FB4F9FF1F8CF5FF1F3E
:10B660003052002080B582B000AF78607868FDF776
:10B670009BFC0837BD4680BD80B584B000AFF86044
:10B68000B9607A603B60B868F9687A683B68FDF732
:10B690001DFD1037BD4680BD80B584B000AF786019
:10B6A0007B68032B06DD1C4840F20D211B4A1C4B16
:10B6B00002F0B4FD7B68032B2BDC7A6813469B00F9
:10B6C00013449B00174A1344FB60FB681B69002B63
:10B6D00006D1114840F21121104A134B02F09EFD91
:10B6E000FB681B69002B14D07B681846FFF7BAFF74
:10B6F000FB681B69FA68D2687868114698477A68CF
:10B70000FB685B681946FB689B6810461A46FFF7A2
:10B7100073FF1037BD4680BDF0F4FF1FCCF9FF1F4B
:10B720008CF5FF1F30520020A0F5FF1F80B584B0BC
:10B7300000AFF860B9607A60BA687B681046194655
:10B74000002200F08BF90246FB681A60FB681B6858
:10B75000002B01D0002301E04FF0FF3318461037D3
:10B76000BD4680BD80B586B000AFF860B9607A6034
:10B77000FFF760FD0346002B13D007F11403F868B0
:10B78000B9681A46002300F081FA0346012B1BD149
:10B790007B69002B03D00F4B4FF080521A600123BE
:10B7A00013E07B68B3F1FF3F01D07B6801E04FF00D
:10B7B000FF33F868B9681A46002300F0B7F903466A
:10B7C000012B01D1012300E0002318461837BD46A4
:10B7D00080BD00BF04ED00E080B586B000AFF8602A
:10B7E000B9607A60FFF726FD0346002B12D007F1FF
:10B7F0001403F868B9681A4600F06AFB0346012B87
:10B800001BD17B69002B03D00E4B4FF080521A6086
:10B81000012313E07B68B3F1FF3F01D07B6801E0B7
:10B820004FF0FF33F868B9681A46002300F098FA21
:10B830000346012B01D1012300E0002318461837ED
:10B84000BD4680BD04ED00E080B483B000AF7860F9
:10B850007B6803F108027B685A607B684FF0FF3217
:10B860009A607B6803F108027B68DA607B6803F109
:10B8700008027B681A617B6800221A600C37BD469B
:10B880005DF8047B704700BF80B483B000AF786080
:10B890007B6800221A610C37BD465DF8047B704757
:10B8A00080B485B000AF786039607B685B68FB600E
:10B8B0003B68FA685A60FB689A683B689A60FB6864
:10B8C0009B683A685A60FB683A689A603B687A6895
:10B8D0001A617B681B685A1C7B681A601437BD4666
:10B8E0005DF8047B704700BF80B485B000AF78601E
:10B8F00039603B681B68BB60BB68B3F1FF3F03D195
:10B900007B681B69FB600CE07B680833FB6002E02E
:10B91000FB685B68FB60FB685B681A68BB689A42FF
:10B92000F6D9FB685A683B685A603B685B683A68BE
:10B930009A603B68FA689A60FB683A685A603B68AC
:10B940007A681A617B681B685A1C7B681A60143716
:10B95000BD465DF8047B704780B485B000AF786069
:10B960007B681B69FB607B685B687A6892689A6099
:10B970007B689B687A6852685A60FB685A687B6883
:10B980009A4203D17B689A68FB685A607B68002200
:10B990001A61FB681B685A1EFB681A60FB681B680B
:10B9A00018461437BD465DF8047B704780B584B0F7
:10B9B00000AF786039607B68FB60FB68002B02D1C8
:10B9C000FCF7BEFDFEE7FCF793FDFB681A68FB6819
:10B9D000DB6BF968096C01FB03F31A44FB685A60DE
:10B9E000FB6800229A63FB681A68FB689A60FB6830
:10B9F0001A68FB68DB6B013BF968096C01FB03F318
:10BA00001A44FB68DA60FB684FF0FF325A64FB6847
:10BA10004FF0FF329A643B68002B0ED1FB681B6924
:10BA2000002B14D0FB681033184600F0CFFE0346FD
:10BA3000012B0CD1FCF74CFD09E0FB6810331846D4
:10BA4000FFF702FFFB6824331846FFF7FDFEFCF703
:10BA50005FFD012318461037BD4680BD80B588B014
:10BA600000AFF860B9601346FB710023FB61FB680F
:10BA7000002B26D04C20FCF7F9FDB861BB69002BE8
:10BA80001FD0FB68BA6802FB03F301337B6178695E
:10BA9000FCF7ECFD0246BB691A60BB691B68002B12
:10BAA0000CD0BB69FA68DA63BB69BA681A64B86912
:10BAB0000121FFF77BFFBB69FB6102E0B869FCF77E
:10BAC00063FEFB69002B02D1FCF73AFDFEE7FB6940
:10BAD00018462037BD4680BD80B584B000AF786081
:10BAE00039607B68002B02D1FCF72AFDFEE73A683B
:10BAF0007B689A4202D9FCF723FDFEE778680021B3
:10BB00000222FFF7ABFFF860FB68002B02D0FB6856
:10BB10003A689A63FB68002B02D1FCF711FDFEE73F
:10BB2000FB6818461037BD4680BD00BF80B588B0A1
:10BB300000AFF860B9607A603B600023FB61FB688E
:10BB4000BB61BB69002B02D1FCF7FAFCFEE7BB68C6
:10BB5000002B03D1BB691B6C002B01D1012300E03A
:10BB60000023002B02D1FCF7EBFCFEE73B68022B25
:10BB700003D1BB69DB6B012B01D1012300E0002362
:10BB8000002B02D1FCF7DCFCFEE7FCF7B1FCBB6943
:10BB90009A6BBB69DB6B9A4202D33B68022B16D1CE
:10BBA000B869B9683A6800F00BFABB695B6A002BA8
:10BBB00009D0BB692433184600F008FE0346012B68
:10BBC00001D1FCF785FCFCF7A3FC012359E07B685D
:10BBD000002B03D1FCF79CFC002352E0FB69002BF7
:10BBE00006D107F11003184600F04CFE0123FB615B
:10BBF000FCF78EFC00F016FCFCF77AFCBB695B6C72
:10BC0000B3F1FF3F02D1BB6900225A64BB699B6C50
:10BC1000B3F1FF3F02D1BB6900229A64FCF778FCC4
:10BC200007F110023B1D1046194600F045FE034681
:10BC3000002B1ED1B86900F0A7FA0346002B12D0E2
:10BC4000BB6903F110027B681046194600F088FDBD
:10BC5000B86900F037FA00F0F3FB0346002B0FD170
:10BC6000FCF736FC0CE0B86900F02CFA00F0E8FBB9
:10BC70008BE7B86900F026FA00F0E2FB002300E051
:10BC800083E718462037BD4680BD00BF80B588B029
:10BC900000AFF860B9607A603B60FB68BB61BB696C
:10BCA000002B02D1FCF74CFCFEE7BB68002B03D154
:10BCB000BB691B6C002B01D1012300E00023002B8A
:10BCC00002D1FCF73DFCFEE73B68022B03D1BB69C8
:10BCD000DB6B012B01D1012300E00023002B02D1FB
:10BCE000FCF72EFCFEE7FCF795FCFCF729FC7861DD
:10BCF000BB699A6BBB69DB6B9A4202D33B68022B30
:10BD000024D1B869B9683A6800F05AF9BB699B6CEC
:10BD1000B3F1FF3F12D1BB695B6A002B13D0BB6943
:10BD20002433184600F052FD0346002B0BD07B68ED
:10BD3000002B08D07B6801221A6004E0BB699B6C71
:10BD40005A1CBB699A640123FB6101E00023FB617B
:10BD50007869FCF7FFFBFB6918462037BD4680BDBC
:10BD600080B58AB000AFF860B9607A603B600023AC
:10BD70007B62FB683B623B6A002B02D1FCF7E0FB75
:10BD8000FEE7BB68002B03D13B6A1B6C002B01D183
:10BD9000012300E00023002B02D1FCF7D1FBFEE7DA
:10BDA000FCF7A6FB3B6A9B6B002B32D03B6ADB683F
:10BDB000FB61386AB96800F05FF93B68002B13D16A
:10BDC0003B6A9B6B5A1E3B6A9A633B6A1B69002B5A
:10BDD0001BD03B6A1033184600F0F8FC0346012BD9
:10BDE00013D1FCF775FB10E03B6AFA69DA603B6A35
:10BDF0005B6A002B09D03B6A2433184600F0E6FC4E
:10BE00000346002B01D0FCF763FBFCF781FB012309
:10BE100059E07B68002B03D1FCF77AFB002352E04A
:10BE20007B6A002B06D107F11403184600F02AFDA7
:10BE300001237B62FCF76CFB00F0F4FAFCF758FB83
:10BE40003B6A5B6CB3F1FF3F02D13B6A00225A644C
:10BE50003B6A9B6CB3F1FF3F02D13B6A00229A64BC
:10BE6000FCF756FB07F114023B1D1046194600F083
:10BE700023FD0346002B1ED1386A00F06FF90346FC
:10BE8000002B12D03B6A03F124027B68104619464E
:10BE900000F066FC386A00F015F900F0D1FA0346AC
:10BEA000002B0FD1FCF714FB0CE0386A00F00AF904
:10BEB00000F0C6FA74E7386A00F004F900F0C0FA3E
:10BEC000002300E06CE718462837BD4680BD00BF60
:10BED00080B588B000AFF860B9607A60FB68BB617C
:10BEE000BB69002B02D1FCF72BFBFEE7BB68002BE4
:10BEF00003D1BB691B6C002B01D1012300E000239F
:10BF0000002B02D1FCF71CFBFEE7FCF783FBFCF7E0
:10BF100017FB7861BB699B6B002B28D0B869B968A7
:10BF200000F0AAF8BB699B6B5A1EBB699A63BB6998
:10BF30005B6CB3F1FF3F12D1BB691B69002B13D0BF
:10BF4000BB691033184600F041FC0346002B0BD0B0
:10BF50007B68002B08D07B6801221A6004E0BB6973
:10BF60005B6C5A1CBB695A640123FB6101E000232E
:10BF7000FB617869FCF7EEFAFB6918462037BD468D
:10BF800080BD00BF80B584B000AF78607B68FB6087
:10BF9000FB68002B02D1FCF7D3FAFEE7F86800F04B
:10BFA0000BF9FB681B68002B04D0FB681B68184664
:10BFB000FCF7EAFBF868FCF7E7FB1037BD4680BDED
:10BFC00080B584B000AFF860B9607A60FB681B6C24
:10BFD000002B48D07B68002B1AD1FB689A68FB685D
:10BFE0001B6C1046B9681A4602F080F9FB689A6823
:10BFF000FB681B6C1A44FB689A60FB689A68FB68D4
:10C000005B689A422FD3FB681A68FB689A602AE043
:10C01000FB68DA68FB681B6C1046B9681A4602F0C8
:10C0200065F9FB68DA68FB681B6C5B421A44FB68C5
:10C03000DA60FB68DA68FB681B689A4207D2FB6823
:10C040005A68FB681B6C5B421A44FB68DA607B68C9
:10C05000022B08D1FB689B6B002B04D0FB689B6B09
:10C060005A1EFB689A63FB689B6B5A1CFB689A63B9
:10C070001037BD4680BD00BF80B582B000AF78608C
:10C0800039607B681B68002B19D07B68DA687B6895
:10C090001B6C1A447B68DA607B68DA687B685B68D3
:10C0A0009A4203D37B681A687B68DA607B68DA6837
:10C0B0007B681B6C386811461A4602F017F908377E
:10C0C000BD4680BD80B582B000AF7860FCF710FA45
:10C0D00014E07B685B6A002B0AD07B682433184627
:10C0E00000F074FB0346002B03D000F035FC00E0A9
:10C0F00008E07B689B6C5A1E7B689A647B689B6C2B
:10C10000002BE6DC7B684FF0FF329A64FCF700FA04
:10C11000FCF7EEF914E07B681B69002B0FD07B68FD
:10C120001033184600F052FB0346002B01D000F0FC
:10C1300013FC7B685B6C5A1E7B685A6400E003E06A
:10C140007B685B6C002BE6DC7B684FF0FF325A6447
:10C15000FCF7DEF90837BD4680BD00BF80B584B06E
:10C1600000AF7860FCF7C4F97B689B6B002B02D1B1
:10C170000123FB6001E00023FB60FCF7C9F9FB68C9
:10C1800018461037BD4680BD80B584B000AF7860DA
:10C19000FCF7AEF97B689A6B7B68DB6B9A4202D145
:10C1A0000123FB6001E00023FB60FCF7B1F9FB68B1
:10C1B00018461037BD4680BD80B485B000AF7860AA
:10C1C0000023FB6010E00C4AFB68DB0013445A6854
:10C1D0007B689A4205D1084AFB68002142F8331077
:10C1E00005E0FB680133FB60FB68072BEBD91437D4
:10C1F000BD465DF8047B70478052002080B58AB050
:10C2000002AFF860B9603B601346FB80FB68002B0F
:10C2100002D1FCF795F9FEE7BB6A042B02D9FCF7C3
:10C220008FF9FEE7FB881846396B00F065FCB861B2
:10C23000BB69002B6ED0BB691A6BFB8803F180438E
:10C24000013B9B0013447B617B6923F007037B6107
:10C250007B6903F00703002B02D0FCF771F9FEE7BE
:10C26000FB880093B869B968BA6A7B6B00F088FBF9
:10C270007869F9683A68FCF763F80246BB691A60A6
:10C28000FB6A002B02D0FB6ABA691A60FCF730F92E
:10C290002C4B1B6801332B4A13602B4B1B68002B64
:10C2A00009D1294ABB691360264B1B68012B0FD1AA
:10C2B00000F0ACFB0CE0254B1B68002B08D1224B97
:10C2C0001B68DA6ABB6A9A4202D81F4ABB691360CC
:10C2D0001F4B1B6801331E4A1360BB69DA6A1D4B92
:10C2E0001B689A4203D9BB69DB6A1A4A1360BB69AF
:10C2F000DA6A13469B0013449B00174A1A44BB6931
:10C30000043310461946FFF7CBFA0123FB61FCF713
:10C31000FFF802E04FF0FF33FB61FB69012B0BD10B
:10C320000A4B1B68002B07D0074B1B68DA6ABB6AF5
:10C330009A4201D2FCF7CCF8FB6918462037BD467B
:10C3400080BD00BF80530020C05200208C530020CD
:10C350009C53002088530020C452002080B584B034
:10C3600000AF78600023FB607B68002B19D0114B75
:10C370001B68002B02D0FCF7E3F8FEE700F052F850
:10C380000D4B1A687B681344BB600C4B1B6804336D
:10C390001846FFF7E1FAB86800F078FB00F050F8B3
:10C3A000F860FB68002B01D1FCF792F81037BD460E
:10C3B00080BD00BFA053002084530020C052002045
:10C3C00080B586B004AF00230093002301930023BF
:10C3D0000293002303930F480F4982220023FFF7A3
:10C3E0000DFF78607B68012B0AD1FCF7A9F80B4B95
:10C3F00001221A600A4B00221A60FCF701F805E0DE
:10C400007B68002B02D1FCF79BF8FEE70837BD469E
:10C4100080BD00BF71C9FF1FB4F5FF1F8C53002002
:10C420008453002080B400AF044B1B680133034ADF
:10C430001360BD465DF8047B704700BFA053002029
:10C4400080B582B000AF00237B60384B1B68002BA7
:10C4500002D1FCF775F8FEE7FCF74AF8334B1B688E
:10C46000013B324A1360314B1B68002B56D1304BD5
:10C470001B68002B52D02FE02E4BDB68DB683B6043
:10C480003B6818331846FFF767FA3B6804331846D1
:10C49000FFF762FA3B68DA6A274B1B689A4203D9B6
:10C4A0003B68DB6A244A13603B68DA6A13469B00E8
:10C4B00013449B00214A1A443B6804331046194632
:10C4C000FFF7EEF93B68DA6A1D4B1B68DB6A9A429C
:10C4D00002D31C4B01221A60164B1B68002BCBD1D8
:10C4E000194B1B68002B11D00CE000F02FF803460D
:10C4F000002B02D0134B01221A60134B1B68013B27
:10C50000114A1360104B1B68002BEED10D4B1B68BA
:10C51000012B03D101237B60FBF7DAFFFBF7F8FF68
:10C520007B6818460837BD4680BD00BFA053002079
:10C53000805300205853002088530020C45200200C
:10C54000C0520020945300209053002080B586B044
:10C5500000AF00237B614E4B1B68002B40F08780AF
:10C560004C4B1B6801334B4A13604A4B1B683B61C1
:10C570003B69002B18D1484B1B681B68002B02D06D
:10C58000FBF7DEFFFEE7444B1B68FB60434B1B6879
:10C59000414A1360414AFB681360414B1B680133F9
:10C5A0003F4A136000F0D0FA3E4B1B683A699A424A
:10C5B0004ED3394B1B681B68002B01D1012300E0CF
:10C5C0000023002B04D0374B4FF0FF321A603FE0BE
:10C5D000314B1B68DB68DB68BB60BB685B687B60FA
:10C5E0003A697B689A4203D22E4A7B6813602FE037
:10C5F000BB6804331846FFF7AFF9BB689B6A002B92
:10C6000004D0BB6818331846FFF7A6F9BB68DA6A8E
:10C61000254B1B689A4203D9BB68DB6A224A136028
:10C62000BB68DA6A13469B0013449B001F4A1A44F6
:10C63000BB68043310461946FFF732F9BB68DA6A63
:10C640001B4B1B68DB6A9A4201D301237B61B0E775
:10C65000174B1B68DA6A154913469B0013449B006D
:10C660000B441B68012B07D901237B6104E0114BAC
:10C670001B6801330F4A13600F4B1B68002B01D05E
:10C6800001237B617B6918461837BD4680BD00BF1A
:10C69000A053002084530020505300205453002006
:10C6A000985300206801002088530020C4520020C5
:10C6B000C0520020905300209453002080B582B0D7
:10C6C00000AF224B1B68002B03D0214B01221A60C4
:10C6D00038E01F4B00221A600BE01E4B1B68002B3A
:10C6E00002D1FBF72DFFFEE71A4B1B68013B194AED
:10C6F0001360184B1A68184913469B0013449B009B
:10C700000B441B68002BE8D0124B1A6813469B00A1
:10C7100013449B00104A13447B607B685B685A6833
:10C720007B685A607B685A687B6808339A4204D1F8
:10C730007B685B685A687B685A607B685B68DB680B
:10C74000064A13600837BD4680BD00BFA0530020D5
:10C750009453002088530020C4520020C05200206F
:10C7600080B584B000AF786039607B68002B02D15F
:10C77000FBF7E6FEFEE7124B1B6818337868194694
:10C78000FFF7B2F80E4B1B6804331846FFF7E4F8C6
:10C790003B68B3F1FF3F07D1094B1B6804330948DD
:10C7A0001946FFF77DF807E0074B1A683B6813440A
:10C7B000FB60F86800F06AF91037BD4680BD00BF25
:10C7C000C05200206C5300208453002080B584B0F8
:10C7D00000AF78607B68DB68DB68BB60BB68002B00
:10C7E00002D1FBF7ADFEFEE7BB6818331846FFF732
:10C7F000B3F81E4B1B68002B1DD1BB6804331846D1
:10C80000FFF7AAF8BB68DA6A194B1B689A4203D98A
:10C81000BB68DB6A164A1360BB68DA6A13469B0082
:10C8200013449B00134A1A44BB680433104619464C
:10C83000FFF736F805E0BB6818330F481946FFF7D5
:10C840002FF8BB68DA6A0D4B1B68DB6A9A4205D980
:10C850000123FB600A4B01221A6001E00023FB6008
:10C86000FB6818461037BD4680BD00BFA0530020AE
:10C8700088530020C452002058530020C05200208A
:10C880009453002080B582B000AF78607B68002BA5
:10C8900002D1FBF755FEFEE7054B1A687B681A606C
:10C8A000044B1A687B685A600837BD4680BD00BFDC
:10C8B000985300208453002080B584B000AF786086
:10C8C00039607B68002B02D1FBF73AFEFEE73B683C
:10C8D000002B02D1FBF734FEFEE7FBF709FE1C4BF1
:10C8E0001B68BB603B681B68B3F1FF3F02D10023AC
:10C8F000FB6026E07B681A68164B1B689A4207D0DB
:10C900007B685A68BB689A4202D80123FB6018E032
:10C910007B685B68BA68D21A3B681B689A420ED281
:10C920003B681A687B685968BB68CB1A1A443B6835
:10C930001A607868FFF7A6FF0023FB6001E001237F
:10C94000FB60FBF7E5FDFB6818461037BD4680BD70
:10C95000845300209853002080B400AF034B012281
:10C960001A60BD465DF8047B704700BF94530020F9
:10C9700080B582B000AF786000F082F8FCE700BFBD
:10C9800080B586B000AFF860B9607A603B60002384
:10C990007B6113E0BA687B6913441978FA687B6994
:10C9A000134430330A461A71BA687B6913441B7802
:10C9B000002B00D105E07B6901337B617B69092B8A
:10C9C000E8D9FB68002283F83D207B68042B01D95D
:10C9D00004237B60FB687A68DA62FB6804331846DC
:10C9E000FEF752FFFB6818331846FEF74DFFFB6851
:10C9F000FA681A617B68C3F10502FB689A61FB68FB
:10CA0000FA685A621837BD4680BD00BF80B582B053
:10CA100000AF00237B600CE07A6813469B00134450
:10CA20009B00104A13441846FEF70EFF7B68013343
:10CA30007B607B68042BEFD90B48FEF705FF0B48A2
:10CA4000FEF702FF0A48FEF7FFFE0A48FEF7FCFE6B
:10CA5000094B054A1A60094B044A1A600837BD465B
:10CA600080BD00BFC4520020285300203C5300204A
:10CA7000585300206C530020505300205453002082
:10CA800080B400AFBD465DF8047B704780B582B0CE
:10CA900000AF7860134B1B687A685A60124B1B68B2
:10CAA0007A689A4209D2114B1A680E4B1B680433FC
:10CAB00010461946FEF718FF10E00D4B1A68094B97
:10CAC0001B68043310461946FEF70EFF094B1B681E
:10CAD0007A689A4202D2074A7B6813600837BD46DB
:10CAE00080BD00BFC052002084530020545300205A
:10CAF000505300206801002080B584B000AF034689
:10CB00003960FB804020FBF7B1FDF860FB68002B2B
:10CB100015D03B68002B06D1FB889B001846FBF71D
:10CB2000A5FD034600E03B68FA681363FB681B6BD6
:10CB3000002B04D1F868FBF727FE0023FB60FB689D
:10CB400018461037BD4680BD80B483B000AF0E4B91
:10CB50001B681B68002B01D1012300E00023002B80
:10CB600004D00A4B4FF0FF321A6008E0064B1B68F6
:10CB7000DB68DB687B607B685B68044A13600C37AA
:10CB8000BD465DF8047B70475053002068010020CB
:10CB900080B483B000AF786039603B689AB27B683C
:10CBA00013441B6803F48033002B14BF01230023BC
:10CBB000DBB218460C37BD465DF8047B704700BFFA
:10CBC00080B582B000AF786078680B49FFF7E0FF6E
:10CBD0000346002B01D0094B09E0094BD3F8B030D4
:10CBE00003F00103002B01D0064B00E0064B184672
:10CBF0000837BD4680BD00BFB0000C0000366E0196
:10CC00000000363000A4781F00389C1C80B584B02A
:10CC100000AFF860B9607A603B607B68002B02D09F
:10CC20003B68002B05D10B483D210B4A0B4B01F013
:10CC3000F5FABB681B6803F4E0231A0C7B681A60E2
:10CC4000BB681B6803F03F023B681A601037BD46A3
:10CC500080BD00BFBCF5FF1FD4F9FF1F18F6FF1FF2
:10CC600080B584B000AFF860B9607A603B603B6823
:10CC7000072B05D912484B21124A134B01F0CEFA6B
:10CC8000BB693F2B05D90E484C210E4A0F4B01F0D2
:10CC9000C5FABA68BB6819680D4B0B40796809067C
:10CCA00001F0E06119433B681B0403F4E0231943DE
:10CCB000BB6903F03F030B4313601037BD4680BDD3
:10CCC000BCF5FF1FE8F9FF1F04F6FF1F0CF6FF1F5E
:10CCD000C0FFF8F880B483B000AF78607B68D3F809
:10CCE000803043F001027B68C3F880200C37BD46DA
:10CCF0005DF8047B704700BF80B483B000AF7860FC
:10CD00000B46FB70FA787B681A640C37BD465DF8F9
:10CD1000047B704780B483B000AF78607B681B6889
:10CD2000DBB218460C37BD465DF8047B704700BF88
:10CD300080B58AB000AFF860B9607A60174B1B7895
:10CD4000002B01D0032325E0144AFB685360BB6825
:10CD50003B617B687B612023BB610023FB61002377
:10CD60003B6206237B620D4B5A6807F110031046A5
:10CD7000194601F063F8094B5B681846FFF7AAFFF4
:10CD8000064B074A9A60054B064ADA60034B0122BC
:10CD90001A70002318462837BD4680BDA4530020D2
:10CDA000E9CEFF1F4DCFFF1F80B584B000AFF86004
:10CDB000B9607A60BB68002B02D14FF0FF331BE0F3
:10CDC000FB68012B05D0FB68022B02D04FF0FF332C
:10CDD00012E00B4B1B7883F00103DBB2002B02D077
:10CDE0004FF0FF3308E0064B9B68054A51687A68AC
:10CDF0000846B96898477B6818461037BD4680BD1D
:10CE0000A453002080B584B000AFF860B9607A60A8
:10CE1000FB68002B02D04FF0FF3312E00B4B1B7866
:10CE200083F00103DBB2002B02D04FF0FF3308E0A8
:10CE3000064BDB68054A51687A680846B968984726
:10CE40007B6818461037BD4680BD00BFA453002044
:10CE50000FB480B584B002AF0F4B1B7883F0010391
:10CE6000DBB2002B02D04FF0FF330DE007F11403CB
:10CE70003B603B680093002008494FF0FF323B695C
:10CE800000F08AF878607B6818460837BD46BDE830
:10CE9000804004B0704700BFA4530020A1CEFF1F04
:10CEA00080B584B000AF786039607B68DBB2FB731B
:10CEB0000C4B1B7883F00103DBB2002B02D04FF048
:10CEC000FF330AE0074B9B68064A516807F10F02DF
:10CED0000846114601229847002318461037BD46E0
:10CEE00080BD00BFA453002080B584B000AFF860BF
:10CEF000B9607A601DE0BB685A1CBA601B78F8689C
:10CF00001946FFF7F9FE00BFF8680E4901F0FAF87C
:10CF1000034683F00103DBB2002BF5D100BFF868B4
:10CF2000094901F0EFF8034683F00103DBB2002B5F
:10CF3000F5D17B685A1E7A60002BDCD11037BD46D4
:10CF400080BD00BF0E0098000300980080B584B03B
:10CF500000AFF860B9607A6015E000BFF8684FF480
:10CF6000180101F0CFF8034683F00103DBB2002B78
:10CF7000F4D1F868FFF7CEFE03461A46BB681A7074
:10CF8000BB680133BB607B685A1E7A60002BE4D11A
:10CF90001037BD4680BD00BF90B5A5B004AFF860A6
:10CFA000B9607A603B600023FB617B683B657B680E
:10CFB000B3F1FF3F01D1B04B7B603B68FB677DE382
:10CFC000FB6C252B07D0BB68F86CF9689847FB69A8
:10CFD0000133FB616FE3012387F85B300023FB66BD
:10CFE00000233B674BE0FB6F0133FB67FB6F1B7854
:10CFF000203B102B3DD801A252F823F055D0FF1F43
:10D0000073D0FF1F73D0FF1F69D0FF1F73D0FF1FA6
:10D0100073D0FF1F73D0FF1F73D0FF1F73D0FF1F8C
:10D0200073D0FF1F73D0FF1F4BD0FF1F73D0FF1FA4
:10D0300041D0FF1F73D0FF1F73D0FF1F5FD0FF1FB2
:10D04000FB6E43F00103FB6619E0FB6E43F0020345
:10D05000FB6614E0FB6E43F00403FB660FE0FB6E1F
:10D0600043F00803FB660AE0FB6E43F01003FB6627
:10D0700005E0FB6F013BFB6701233B6700BF3B6F94
:10D08000002BB0D00023BB6600233B671AE0FB6F88
:10D090000133FB67FB6F1B78FB64FB6C303B092B98
:10D0A0000AD8BA6E13469B0013445B001A46FB6C09
:10D0B0001344303BBB6605E0FB6F013BFB6701237C
:10D0C0003B6700BF3B6F002BE1D006237B65FB6F06
:10D0D0000133FB67FB6F1B782E2B23D100237B656D
:10D0E00000233B671AE0FB6F0133FB67FB6F1B7884
:10D0F000FB64FB6C303B092B0AD87A6D13469B000E
:10D1000013445B001A46FB6C1344303B7B6505E01F
:10D11000FB6F013BFB6701233B6700BF3B6F002BAD
:10D12000E1D002E0FB6F013BFB67FB6F0133FB6764
:10D13000FB6F1B78682B04D06C2B0ED04C2B1CD0B3
:10D1400017E0FB6F0133FB67FB6F1B78682B03D085
:10D15000FB6F013BFB6711E010E0FB6F0133FB67E6
:10D16000FB6F1B786C2B03D0FB6F013BFB6705E06B
:10D1700004E0FB6F013BFB6700E000BFFB6F013386
:10D18000FB67FB6F1B78FB64FB6C583B202B00F2AA
:10D190008A8201A252F823F041D3FF1FA7D6FF1FB6
:10D1A000A7D6FF1FA7D6FF1FA7D6FF1FA7D6FF1F13
:10D1B000A7D6FF1FA7D6FF1FA7D6FF1FA7D6FF1F03
:10D1C000A9D4FF1FE1D5FF1F1DD2FF1FA7D6FF1F48
:10D1D000A7D6FF1FA7D6FF1FA7D6FF1F1DD2FF1F71
:10D1E000A7D6FF1FA7D6FF1FA7D6FF1FA7D6FF1FD3
:10D1F00091D6FF1F7DD4FF1FD5D4FF1FA7D6FF1FD9
:10D20000A7D6FF1F01D6FF1FA7D6FF1F0FD5FF1FF1
:10D21000A7D6FF1FA7D6FF1F3BD3FF1FD7F890301D
:10D220001A1DC7F890201B68BB6107F1200107F1A8
:10D23000180297F85B3000930846114601220A2332
:10D2400000F04EFA786707F120027B6F1344BB674A
:10D25000BB69002B05DA2D237B667B6F01337B676F
:10D2600019E0FB6E03F00203002B07D02B237B6633
:10D270007B6F01337B670EE0FEFFFF7FFB6E03F0E9
:10D280000403002B05D020237B667B6F01337B6773
:10D2900001E000237B6600233B66FB6E03F008037E
:10D2A000002B1CD07B6E002B06D0BB68786EF96813
:10D2B0009847FB690133FB6101233B66BA6E07F1B6
:10D2C0001C04BB680093FB6801933B1D0293302054
:10D2D000796F234600F08CFABB6E7B671EE0FB6E15
:10D2E00003F00103002B19D1BA6E07F11C04BB68CF
:10D2F0000093FB6801933B1D02932020796F234626
:10D3000000F076FA7B6E002B06D0BB68786EF96869
:10D310009847FB690133FB6101233B663B6E002BA1
:10D320000AD17B6E002B07D0BB68786EF9689847EE
:10D33000FB690133FB612DE12CE1002387F85B30B1
:10D34000D7F890301A1DC7F890201B687B6107F151
:10D35000200107F1140297F85B300093084611464C
:10D360000022102300F0BCF9786707F120027B6FE0
:10D370001344BB6700233B66FB6E03F00803002BDE
:10D3800029D0FB6E03F01003002B13D0BB683020B4
:10D39000F968984797F85B30002B01D0582200E0DD
:10D3A0007822BB681046F9689847FB690233FB6135
:10D3B00001233B66BA6E07F11C04BB680093FB684F
:10D3C00001933B1D02933020796F234600F010FA41
:10D3D000BB6E7B6733E0FB6E03F00103002B2ED1A5
:10D3E000FB6E03F01003002B02D07B6F02337B67D0
:10D3F000BA6E07F11C04BB680093FB6801933B1DE8
:10D4000002932020796F234600F0F2F9FB6E03F0BF
:10D410001003002B13D0BB683020F968984797F8A9
:10D420005B30002B01D0582200E07822BB68104608
:10D43000F9689847FB690233FB6101233B66FB6E89
:10D4400003F01003002B18D03B6E002B15D1BB68E6
:10D450003020F968984797F85B30002B01D05822AC
:10D4600000E07822BB681046F9689847FB690233F0
:10D47000FB617B6F02337B678CE08BE0D7F89030E9
:10D480001A1DC7F890201B687B6107F1200107F186
:10D49000140297F85B3000930846114600220823D7
:10D4A00000F01EF9786747E0D7F890301A1DC7F8EA
:10D4B00090201B687B6107F1200107F1140297F8A7
:10D4C0005B300093084611460022022300F008F961
:10D4D000786731E0D7F890301A1DC7F890201B68A4
:10D4E0007B61D7F890301A1DC7F890201B687B61CC
:10D4F00007F1200107F1140297F85B30009308460A
:10D5000011460022102300F0EBF8786714E0D7F8FA
:10D5100090301A1DC7F890201B687B6107F120012D
:10D5200007F1140297F85B30009308461146002279
:10D530000A2300F0D5F8786707F120027B6F1344C7
:10D54000BB67FB6E03F00803002B10D0BA6E07F127
:10D550001C04BB680093FB6801933B1D02933020C1
:10D56000796F234600F044F9BB6E7B6712E0FB6ED7
:10D5700003F00103002B0DD1BA6E07F11C04BB6848
:10D580000093FB6801933B1D02932020796F234693
:10D5900000F02EF90BE0BB6F5A1EBA671B781A46D3
:10D5A000BB681046F9689847FB690133FB61BB6FA4
:10D5B0001B78002BEFD1FB6E03F00103002B0ED084
:10D5C000BA6E07F11C04BB680093FB6801933B1D16
:10D5D00002932020796F234600F00AF96BE06AE09D
:10D5E000D7F890301A1DC7F890201B68DBB2BB64D7
:10D5F000BB68B86CF9689847FB690133FB615AE076
:10D60000D7F890301A1DC7F890201B68FB65FB6D9A
:10D61000002B3CD0F86D01F043F903467B67FB6EAD
:10D6200003F00103002B0DD1BA6E07F11C04BB6897
:10D630000093FB6801933B1D02932020796F2346E2
:10D6400000F0D6F80BE0FB6D5A1CFA651B781A4601
:10D65000BB681046F9689847FB690133FB61FB6DB5
:10D660001B78002BEFD1FB6E03F00103002B0ED0D3
:10D67000BA6E07F11C04BB680093FB6801933B1D65
:10D6800002932020796F234600F0B2F813E012E0F5
:10D69000D7F890301A1DC7F890201B687B64FA6990
:10D6A0007B6C1A6007E0BB68F86CF9689847FB6907
:10D6B0000133FB6100BFFB6F0133FB67FB6F1B781E
:10D6C000FB64FB6C002B7FF47BAC7B68002B01D0F0
:10D6D000FB6900E03B6D18468437BD4690BD00BF36
:10D6E00080B48DB000AFF860B9607A603B60002311
:10D6F000FB61FB68BB61BB695A1CBA6100221A70EE
:10D700007B68002B33D0BB681B68FB62FB6A002B75
:10D7100006D1BB6930221A70FB690133FB6160E0FE
:10D7200021E0FA6A3B6892FBF3F37B617B693A681C
:10D7300002FB03F3FA6AD31ABB62BB6A002B04DA5A
:10D74000BB6AC3F13003BB6202E0BB6A3033BB6229
:10D750007B69FB62BB695A1CBA61BA6AD2B21A70A1
:10D76000FB690133FB61FB6A002BDAD139E0BB684E
:10D770001B687B627B6A002B06D1BB6930221A7062
:10D78000FB690133FB612CE028E03B687A6AB2FB5D
:10D79000F3F33B613B683A6902FB03F37A6AD31AFD
:10D7A0003B623B6A092B03D83B6A30333B620AE099
:10D7B00097F83830002B01D0412200E061223B6A0B
:10D7C00013440A3B3B623B697B62BB695A1CBA61EA
:10D7D0003A6AD2B21A70FB690133FB617B6A002B93
:10D7E000D3D1FB6918463437BD465DF8047B7047DA
:10D7F00080B586B000AFF860B9607A603B60BB6806
:10D800007B610EE0FB68DBB21A463B6A1046796A20
:10D8100098473B681B685A1C3B681A607B69013358
:10D820007B617A697B689A42ECDB1837BD4680BD24
:10D8300080B400AF434A434BD3F8883043F47003BD
:10D84000C2F88830404B03F5004380334FF08852D4
:10D850001A60BFF35F8F3D4B00225A603B4B0022A2
:10D860009A603A4B0022DA60384B394A1A61374BDA
:10D8700001229A60354B4FF0C042DA60334B354A93
:10D880001A61324B02229A60304B334ADA602F4BD6
:10D89000324A1A612D4B03229A602C4B4FF0C04242
:10D8A000DA602A4B2E4A1A61284B04229A60274BD1
:10D8B0004FF00042DA60254B294A1A61234B0522BA
:10D8C0009A60224B0022DA60204B00221A611F4B23
:10D8D00006229A601D4B0022DA601C4B00221A615E
:10D8E0001A4B07229A60194B0022DA60174B00226C
:10D8F0001A61164B05225A60BFF34F8FBFF36F8F2B
:10D90000184B4FF0A062C3F80028164A154BD3F805
:10D91000003843F00043C2F8003800BF114BD3F881
:10D920000038002BFADB0F4B0322C3F80028BFF3AB
:10D930004F8FBFF36F8F034B0B4A9A60BD465DF864
:10D94000047B704700ED00E00000383090ED00E00F
:10D950003B0008033D0008030000202021000B03CA
:10D9600029000B03002008E00080FF1F80B483B073
:10D9700000AF78607B68264A93421BD0254A9342C9
:10D980002DD0254A934200D03CE0244B0022C3F81E
:10D990003021224B0022C3F83421204B7822C3F8D7
:10D9A000A0231E4B7822C3F8A4231C4B0222C3F8E9
:10D9B000FC2627E0194B0122C3F86021174B0122F6
:10D9C000C3F86421154B7822C3F8D023134B782277
:10D9D000C3F8D423114B0022C3F8142712E00F4BD5
:10D9E00003225A650D4B03229A650C4B7922C3F82A
:10D9F000C4220A4B7922C3F8C822084B0022C3F87C
:10DA00001C2700BF0C37BD465DF8047B704700BF84
:10DA10000000A7300000A83000008930000033303B
:10DA200080B584B000AFF860B9607A60FB707B6845
:10DA3000032B05D90C488A210C4A0D4B00F0EEFB54
:10DA40007B6803F00302FB78002B02D04FF0004309
:10DA500000E0002342EA0301FB68BA68803243F821
:10DA600022101037BD4680BD24F6FF1FF8F9FF1FB6
:10DA7000B8F6FF1F80B485B000AFF860B9601146FA
:10DA80001A460B46FB711346BB71FA79BB79002B22
:10DA900002D04FF0804300E000231A433B7E002B6E
:10DAA00002D04FF0004300E0002342EA0301FB688C
:10DAB000BA6802F5807243F822101437BD465DF84B
:10DAC000047B704780B483B000AF786039603B68F6
:10DAD00004331A464FF0805313600C37BD465DF88F
